{
  "_format": "hh-sol-artifact-1",
  "contractName": "BlogCertificate",
  "sourceName": "contracts/BlogCert.sol",
  "abi": [
    {
      "inputs": [],
      "stateMutability": "nonpayable",
      "type": "constructor"
    },
    {
      "anonymous": false,
      "inputs": [
        {
          "indexed": true,
          "internalType": "address",
          "name": "owner",
          "type": "address"
        },
        {
          "indexed": true,
          "internalType": "address",
          "name": "approved",
          "type": "address"
        },
        {
          "indexed": true,
          "internalType": "uint256",
          "name": "tokenId",
          "type": "uint256"
        }
      ],
      "name": "Approval",
      "type": "event"
    },
    {
      "anonymous": false,
      "inputs": [
        {
          "indexed": true,
          "internalType": "address",
          "name": "owner",
          "type": "address"
        },
        {
          "indexed": true,
          "internalType": "address",
          "name": "operator",
          "type": "address"
        },
        {
          "indexed": false,
          "internalType": "bool",
          "name": "approved",
          "type": "bool"
        }
      ],
      "name": "ApprovalForAll",
      "type": "event"
    },
    {
      "anonymous": false,
      "inputs": [
        {
          "indexed": true,
          "internalType": "address",
          "name": "previousOwner",
          "type": "address"
        },
        {
          "indexed": true,
          "internalType": "address",
          "name": "newOwner",
          "type": "address"
        }
      ],
      "name": "OwnershipTransferred",
      "type": "event"
    },
    {
      "anonymous": false,
      "inputs": [
        {
          "indexed": true,
          "internalType": "address",
          "name": "from",
          "type": "address"
        },
        {
          "indexed": true,
          "internalType": "address",
          "name": "to",
          "type": "address"
        },
        {
          "indexed": true,
          "internalType": "uint256",
          "name": "tokenId",
          "type": "uint256"
        }
      ],
      "name": "Transfer",
      "type": "event"
    },
    {
      "inputs": [
        {
          "internalType": "address",
          "name": "to",
          "type": "address"
        },
        {
          "internalType": "uint256",
          "name": "tokenId",
          "type": "uint256"
        }
      ],
      "name": "approve",
      "outputs": [],
      "stateMutability": "nonpayable",
      "type": "function"
    },
    {
      "inputs": [
        {
          "internalType": "address",
          "name": "owner",
          "type": "address"
        }
      ],
      "name": "balanceOf",
      "outputs": [
        {
          "internalType": "uint256",
          "name": "",
          "type": "uint256"
        }
      ],
      "stateMutability": "view",
      "type": "function"
    },
    {
      "inputs": [],
      "name": "getAllCertificates",
      "outputs": [
        {
          "components": [
            {
              "internalType": "uint64",
              "name": "tokenId",
              "type": "uint64"
            },
            {
              "internalType": "address",
              "name": "owner",
              "type": "address"
            },
            {
              "internalType": "string",
              "name": "ipfsHash",
              "type": "string"
            },
            {
              "internalType": "uint256",
              "name": "timestamp",
              "type": "uint256"
            }
          ],
          "internalType": "struct BlogCertificate.BlogCertData[]",
          "name": "",
          "type": "tuple[]"
        }
      ],
      "stateMutability": "view",
      "type": "function"
    },
    {
      "inputs": [
        {
          "internalType": "uint256",
          "name": "tokenId",
          "type": "uint256"
        }
      ],
      "name": "getApproved",
      "outputs": [
        {
          "internalType": "address",
          "name": "",
          "type": "address"
        }
      ],
      "stateMutability": "view",
      "type": "function"
    },
    {
      "inputs": [
        {
          "internalType": "uint64",
          "name": "tokenId",
          "type": "uint64"
        }
      ],
      "name": "getCertificate",
      "outputs": [
        {
          "components": [
            {
              "internalType": "uint64",
              "name": "tokenId",
              "type": "uint64"
            },
            {
              "internalType": "address",
              "name": "owner",
              "type": "address"
            },
            {
              "internalType": "string",
              "name": "ipfsHash",
              "type": "string"
            },
            {
              "internalType": "uint256",
              "name": "timestamp",
              "type": "uint256"
            }
          ],
          "internalType": "struct BlogCertificate.BlogCertData",
          "name": "",
          "type": "tuple"
        }
      ],
      "stateMutability": "view",
      "type": "function"
    },
    {
      "inputs": [
        {
          "internalType": "address",
          "name": "owner",
          "type": "address"
        }
      ],
      "name": "getCertificatesByOwner",
      "outputs": [
        {
          "components": [
            {
              "internalType": "uint64",
              "name": "tokenId",
              "type": "uint64"
            },
            {
              "internalType": "address",
              "name": "owner",
              "type": "address"
            },
            {
              "internalType": "string",
              "name": "ipfsHash",
              "type": "string"
            },
            {
              "internalType": "uint256",
              "name": "timestamp",
              "type": "uint256"
            }
          ],
          "internalType": "struct BlogCertificate.BlogCertData[]",
          "name": "",
          "type": "tuple[]"
        }
      ],
      "stateMutability": "view",
      "type": "function"
    },
    {
      "inputs": [
        {
          "internalType": "address",
          "name": "owner",
          "type": "address"
        },
        {
          "internalType": "address",
          "name": "operator",
          "type": "address"
        }
      ],
      "name": "isApprovedForAll",
      "outputs": [
        {
          "internalType": "bool",
          "name": "",
          "type": "bool"
        }
      ],
      "stateMutability": "view",
      "type": "function"
    },
    {
      "inputs": [
        {
          "internalType": "uint64",
          "name": "tokenId",
          "type": "uint64"
        }
      ],
      "name": "isRevoked",
      "outputs": [
        {
          "internalType": "bool",
          "name": "",
          "type": "bool"
        }
      ],
      "stateMutability": "view",
      "type": "function"
    },
    {
      "inputs": [
        {
          "internalType": "address",
          "name": "owner",
          "type": "address"
        },
        {
          "internalType": "string",
          "name": "ipfstokenURI",
          "type": "string"
        }
      ],
      "name": "mintCertificate",
      "outputs": [
        {
          "internalType": "uint256",
          "name": "",
          "type": "uint256"
        }
      ],
      "stateMutability": "nonpayable",
      "type": "function"
    },
    {
      "inputs": [],
      "name": "name",
      "outputs": [
        {
          "internalType": "string",
          "name": "",
          "type": "string"
        }
      ],
      "stateMutability": "view",
      "type": "function"
    },
    {
      "inputs": [],
      "name": "owner",
      "outputs": [
        {
          "internalType": "address",
          "name": "",
          "type": "address"
        }
      ],
      "stateMutability": "view",
      "type": "function"
    },
    {
      "inputs": [
        {
          "internalType": "uint256",
          "name": "tokenId",
          "type": "uint256"
        }
      ],
      "name": "ownerOf",
      "outputs": [
        {
          "internalType": "address",
          "name": "",
          "type": "address"
        }
      ],
      "stateMutability": "view",
      "type": "function"
    },
    {
      "inputs": [],
      "name": "renounceOwnership",
      "outputs": [],
      "stateMutability": "nonpayable",
      "type": "function"
    },
    {
      "inputs": [
        {
          "internalType": "uint64",
          "name": "tokenId",
          "type": "uint64"
        }
      ],
      "name": "revokeCertificate",
      "outputs": [],
      "stateMutability": "nonpayable",
      "type": "function"
    },
    {
      "inputs": [
        {
          "internalType": "address",
          "name": "from",
          "type": "address"
        },
        {
          "internalType": "address",
          "name": "to",
          "type": "address"
        },
        {
          "internalType": "uint256",
          "name": "tokenId",
          "type": "uint256"
        }
      ],
      "name": "safeTransferFrom",
      "outputs": [],
      "stateMutability": "nonpayable",
      "type": "function"
    },
    {
      "inputs": [
        {
          "internalType": "address",
          "name": "from",
          "type": "address"
        },
        {
          "internalType": "address",
          "name": "to",
          "type": "address"
        },
        {
          "internalType": "uint256",
          "name": "tokenId",
          "type": "uint256"
        },
        {
          "internalType": "bytes",
          "name": "data",
          "type": "bytes"
        }
      ],
      "name": "safeTransferFrom",
      "outputs": [],
      "stateMutability": "nonpayable",
      "type": "function"
    },
    {
      "inputs": [
        {
          "internalType": "address",
          "name": "operator",
          "type": "address"
        },
        {
          "internalType": "bool",
          "name": "approved",
          "type": "bool"
        }
      ],
      "name": "setApprovalForAll",
      "outputs": [],
      "stateMutability": "nonpayable",
      "type": "function"
    },
    {
      "inputs": [
        {
          "internalType": "bytes4",
          "name": "interfaceId",
          "type": "bytes4"
        }
      ],
      "name": "supportsInterface",
      "outputs": [
        {
          "internalType": "bool",
          "name": "",
          "type": "bool"
        }
      ],
      "stateMutability": "view",
      "type": "function"
    },
    {
      "inputs": [],
      "name": "symbol",
      "outputs": [
        {
          "internalType": "string",
          "name": "",
          "type": "string"
        }
      ],
      "stateMutability": "view",
      "type": "function"
    },
    {
      "inputs": [
        {
          "internalType": "uint256",
          "name": "tokenId",
          "type": "uint256"
        }
      ],
      "name": "tokenURI",
      "outputs": [
        {
          "internalType": "string",
          "name": "",
          "type": "string"
        }
      ],
      "stateMutability": "view",
      "type": "function"
    },
    {
      "inputs": [],
      "name": "totalReviews",
      "outputs": [
        {
          "internalType": "uint256",
          "name": "",
          "type": "uint256"
        }
      ],
      "stateMutability": "view",
      "type": "function"
    },
    {
      "inputs": [
        {
          "internalType": "address",
          "name": "from",
          "type": "address"
        },
        {
          "internalType": "address",
          "name": "to",
          "type": "address"
        },
        {
          "internalType": "uint256",
          "name": "tokenId",
          "type": "uint256"
        }
      ],
      "name": "transferFrom",
      "outputs": [],
      "stateMutability": "nonpayable",
      "type": "function"
    },
    {
      "inputs": [
        {
          "internalType": "address",
          "name": "newOwner",
          "type": "address"
        }
      ],
      "name": "transferOwnership",
      "outputs": [],
      "stateMutability": "nonpayable",
      "type": "function"
    },
    {
      "inputs": [
        {
          "internalType": "uint256",
          "name": "tokenId",
          "type": "uint256"
        },
        {
          "internalType": "address",
          "name": "owner",
          "type": "address"
        },
        {
          "internalType": "string",
          "name": "ipfsHash",
          "type": "string"
        }
      ],
      "name": "verifyCertificate",
      "outputs": [
        {
          "internalType": "bool",
          "name": "",
          "type": "bool"
        }
      ],
      "stateMutability": "view",
      "type": "function"
    }
  ],
  "bytecode": "0x60806040523480156200001157600080fd5b506040518060400160405280600f81526020016e426c6f67436572746966696361746560881b81525060405180604001604052806003815260200162424c4360e81b815250816000908162000067919062000194565b50600162000076828262000194565b505050620000936200008d6200009960201b60201c565b6200009d565b62000260565b3390565b600780546001600160a01b038381166001600160a01b0319831681179093556040519116919082907f8be0079c531659141344cd1fd0a4f28419497f9722a3daafe3b4186f6b6457e090600090a35050565b634e487b7160e01b600052604160045260246000fd5b600181811c908216806200011a57607f821691505b6020821081036200013b57634e487b7160e01b600052602260045260246000fd5b50919050565b601f8211156200018f57600081815260208120601f850160051c810160208610156200016a5750805b601f850160051c820191505b818110156200018b5782815560010162000176565b5050505b505050565b81516001600160401b03811115620001b057620001b0620000ef565b620001c881620001c1845462000105565b8462000141565b602080601f831160018114620002005760008415620001e75750858301515b600019600386901b1c1916600185901b1785556200018b565b600085815260208120601f198616915b82811015620002315788860151825594840194600190910190840162000210565b5085821015620002505787850151600019600388901b60f8161c191681555b5050505050600190811b01905550565b6127fc80620002706000396000f3fe608060405234801561001057600080fd5b50600436106101585760003560e01c8063715018a6116100c3578063c87b56dd1161007c578063c87b56dd146102f5578063ced10bd614610308578063e23678901461031b578063e985e9c514610324578063f2fde38b14610360578063f6ae476b1461037357600080fd5b8063715018a614610282578063874ce6801461028a5780638da5cb5b146102b657806395d89b41146102c7578063a22cb465146102cf578063b88d4fde146102e257600080fd5b80631db73840116101155780631db738401461021057806321c61a001461022357806323b872dd1461023657806342842e0e146102495780636352211e1461025c57806370a082311461026f57600080fd5b806301ffc9a71461015d57806306fdde03146101855780630712249f1461019a578063081812fc146101bb578063095ea7b3146101e657806313fcfe80146101fb575b600080fd5b61017061016b366004611eb0565b610393565b60405190151581526020015b60405180910390f35b61018d6103e5565b60405161017c9190611f1d565b6101ad6101a8366004611ff7565b610477565b60405190815260200161017c565b6101ce6101c9366004612044565b61059f565b6040516001600160a01b03909116815260200161017c565b6101f96101f436600461205d565b6105c6565b005b6102036106e0565b60405161017c91906120d5565b61020361021e366004612137565b610807565b6101f9610231366004612152565b610a62565b6101f961024436600461217b565b610cd3565b6101f961025736600461217b565b610d04565b6101ce61026a366004612044565b610d1f565b6101ad61027d366004612137565b610d7f565b6101f9610e05565b610170610298366004612152565b6001600160401b03166000908152600b602052604090205460ff1690565b6007546001600160a01b03166101ce565b61018d610e19565b6101f96102dd3660046121b7565b610e28565b6101f96102f03660046121f3565b610e37565b61018d610303366004612044565b610e6f565b61017061031636600461226e565b610ebb565b6101ad60095481565b6101706103323660046122c4565b6001600160a01b03918216600090815260056020908152604080832093909416825291909152205460ff1690565b6101f961036e366004612137565b611010565b610386610381366004612152565b611086565b60405161017c91906122f7565b60006001600160e01b031982166380ac58cd60e01b14806103c457506001600160e01b03198216635b5e139f60e01b145b806103df57506301ffc9a760e01b6001600160e01b03198316145b92915050565b6060600080546103f49061230a565b80601f01602080910402602001604051908101604052809291908181526020018280546104209061230a565b801561046d5780601f106104425761010080835404028352916020019161046d565b820191906000526020600020905b81548152906001019060200180831161045057829003601f168201915b5050505050905090565b6000610487600a80546001019055565b6000610492600a5490565b90506104a784826001600160401b0316611249565b6104ba816001600160401b031684611263565b604080516080810182526001600160401b0380841682526001600160a01b038088166020840190815293830187815242606085015260088054600181018255600091909152845160039091027ff3f7a9fe364faab93b216da50a3214154f22a0a2b415b23a84c8169e8b636ee3810180549751909416600160401b026001600160e01b0319909716919094161794909417815592519192917ff3f7a9fe364faab93b216da50a3214154f22a0a2b415b23a84c8169e8b636ee4909101906105819082612392565b50606091909101516002909101556001600160401b03169392505050565b60006105aa826112f6565b506000908152600460205260409020546001600160a01b031690565b60006105d182610d1f565b9050806001600160a01b0316836001600160a01b0316036106435760405162461bcd60e51b815260206004820152602160248201527f4552433732313a20617070726f76616c20746f2063757272656e74206f776e656044820152603960f91b60648201526084015b60405180910390fd5b336001600160a01b038216148061065f575061065f8133610332565b6106d15760405162461bcd60e51b815260206004820152603e60248201527f4552433732313a20617070726f76652063616c6c6572206973206e6f7420746f60448201527f6b656e206f776e6572206e6f7220617070726f76656420666f7220616c6c0000606482015260840161063a565b6106db8383611355565b505050565b60606008805480602002602001604051908101604052809291908181526020016000905b828210156107fe576000848152602090819020604080516080810182526003860290920180546001600160401b0381168452600160401b90046001600160a01b031693830193909352600183018054929392918401916107639061230a565b80601f016020809104026020016040519081016040528092919081815260200182805461078f9061230a565b80156107dc5780601f106107b1576101008083540402835291602001916107dc565b820191906000526020600020905b8154815290600101906020018083116107bf57829003601f168201915b5050505050815260200160028201548152505081526020019060010190610704565b50505050905090565b60606000805b60085481101561087a57836001600160a01b03166008828154811061083457610834612451565b6000918252602090912060039091020154600160401b90046001600160a01b03160361086857816108648161247d565b9250505b806108728161247d565b91505061080d565b506000816001600160401b0381111561089557610895611f4c565b6040519080825280602002602001820160405280156108ce57816020015b6108bb611e12565b8152602001906001900390816108b35790505b5090506000805b600854811015610a5857856001600160a01b0316600882815481106108fc576108fc612451565b6000918252602090912060039091020154600160401b90046001600160a01b031603610a46576008818154811061093557610935612451565b600091825260209182902060408051608081018252600390930290910180546001600160401b03811684526001600160a01b03600160401b90910416938301939093526001830180549293929184019161098e9061230a565b80601f01602080910402602001604051908101604052809291908181526020018280546109ba9061230a565b8015610a075780601f106109dc57610100808354040283529160200191610a07565b820191906000526020600020905b8154815290600101906020018083116109ea57829003601f168201915b50505050508152602001600282015481525050838381518110610a2c57610a2c612451565b60200260200101819052508180610a429061247d565b9250505b80610a508161247d565b9150506108d5565b5090949350505050565b610a6a6113c3565b6001600160401b0381166000908152600260205260409020546001600160a01b0316610acf5760405162461bcd60e51b8152602060048201526014602482015273151bdad95b88191bd95cc81b9bdd08195e1a5cdd60621b604482015260640161063a565b6001600160401b0381166000908152600b602052604090205460ff1615610b385760405162461bcd60e51b815260206004820152601b60248201527f436572746966696361746520616c7265616479207265766f6b65640000000000604482015260640161063a565b6001600160401b0381166000908152600b60205260408120805460ff191660011790555b600854811015610cbd57816001600160401b031660088281548110610b8357610b83612451565b60009182526020909120600390910201546001600160401b031603610cab5760088054610bb290600190612496565b81548110610bc257610bc2612451565b906000526020600020906003020160088281548110610be357610be3612451565b60009182526020909120825460039092020180546001600160401b0390921667ffffffffffffffff1983168117825583546001600160e01b031990931617600160401b928390046001600160a01b0316909202919091178155600180820190610c4e908401826124a9565b506002918201549101556008805480610c6957610c69612583565b60008281526020812060036000199093019283020180546001600160e01b031916815590610c9a6001830182611e4c565b600282016000905550509055610cbd565b80610cb58161247d565b915050610b5c565b50610cd0816001600160401b031661141d565b50565b610cdd3382611426565b610cf95760405162461bcd60e51b815260040161063a90612599565b6106db8383836114a5565b6106db83838360405180602001604052806000815250610e37565b6000818152600260205260408120546001600160a01b0316806103df5760405162461bcd60e51b8152602060048201526018602482015277115490cdcc8c4e881a5b9d985b1a59081d1bdad95b88125160421b604482015260640161063a565b60006001600160a01b038216610de95760405162461bcd60e51b815260206004820152602960248201527f4552433732313a2061646472657373207a65726f206973206e6f7420612076616044820152683634b21037bbb732b960b91b606482015260840161063a565b506001600160a01b031660009081526003602052604090205490565b610e0d6113c3565b610e17600061164c565b565b6060600180546103f49061230a565b610e3333838361169e565b5050565b610e413383611426565b610e5d5760405162461bcd60e51b815260040161063a90612599565b610e698484848461176c565b50505050565b6001600160401b0381166000908152600b602052604090205460609060ff1615610eb2576040518060600160405280602181526020016127a66021913992915050565b6103df8261179f565b6000838152600260205260408120546001600160a01b0316610edf57506000611009565b826001600160a01b0316610ef285610d1f565b6001600160a01b031614610f0857506000611009565b6001600160401b0384166000908152600b602052604090205460ff1615610f3157506000611009565b60005b600854811015611003578460088281548110610f5257610f52612451565b60009182526020909120600390910201546001600160401b031603610ff15782604051602001610f8291906125e7565b6040516020818303038152906040528051906020012060088281548110610fab57610fab612451565b9060005260206000209060030201600101604051602001610fcc9190612603565b6040516020818303038152906040528051906020012003610ff1576001915050611009565b80610ffb8161247d565b915050610f34565b50600190505b9392505050565b6110186113c3565b6001600160a01b03811661107d5760405162461bcd60e51b815260206004820152602660248201527f4f776e61626c653a206e6577206f776e657220697320746865207a65726f206160448201526564647265737360d01b606482015260840161063a565b610cd08161164c565b61108e611e12565b60005b6008548110156111e957826001600160401b0316600882815481106110b8576110b8612451565b60009182526020909120600390910201546001600160401b0316036111d757600881815481106110ea576110ea612451565b600091825260209182902060408051608081018252600390930290910180546001600160401b03811684526001600160a01b03600160401b9091041693830193909352600183018054929392918401916111439061230a565b80601f016020809104026020016040519081016040528092919081815260200182805461116f9061230a565b80156111bc5780601f10611191576101008083540402835291602001916111bc565b820191906000526020600020905b81548152906001019060200180831161119f57829003601f168201915b50505050508152602001600282015481525050915050919050565b806111e18161247d565b915050611091565b5060405162461bcd60e51b815260206004820152602e60248201527f4365727469666963617465206e6f7420666f756e6420666f722074686520707260448201526d1bdd9a591959081d1bdad95b925960921b606482015260840161063a565b610e338282604051806020016040528060008152506118a7565b6000828152600260205260409020546001600160a01b03166112de5760405162461bcd60e51b815260206004820152602e60248201527f45524337323155524953746f726167653a2055524920736574206f66206e6f6e60448201526d32bc34b9ba32b73a103a37b5b2b760911b606482015260840161063a565b60008281526006602052604090206106db8282612392565b6000818152600260205260409020546001600160a01b0316610cd05760405162461bcd60e51b8152602060048201526018602482015277115490cdcc8c4e881a5b9d985b1a59081d1bdad95b88125160421b604482015260640161063a565b600081815260046020526040902080546001600160a01b0319166001600160a01b038416908117909155819061138a82610d1f565b6001600160a01b03167f8c5be1e5ebec7d5bd14f71427d1e84f3dd0314c0f7b2291e5b200ac8c7c3b92560405160405180910390a45050565b6007546001600160a01b03163314610e175760405162461bcd60e51b815260206004820181905260248201527f4f776e61626c653a2063616c6c6572206973206e6f7420746865206f776e6572604482015260640161063a565b610cd0816118da565b60008061143283610d1f565b9050806001600160a01b0316846001600160a01b0316148061147957506001600160a01b0380821660009081526005602090815260408083209388168352929052205460ff165b8061149d5750836001600160a01b03166114928461059f565b6001600160a01b0316145b949350505050565b826001600160a01b03166114b882610d1f565b6001600160a01b03161461151c5760405162461bcd60e51b815260206004820152602560248201527f4552433732313a207472616e736665722066726f6d20696e636f72726563742060448201526437bbb732b960d91b606482015260840161063a565b6001600160a01b03821661157e5760405162461bcd60e51b8152602060048201526024808201527f4552433732313a207472616e7366657220746f20746865207a65726f206164646044820152637265737360e01b606482015260840161063a565b61158983838361191a565b611594600082611355565b6001600160a01b03831660009081526003602052604081208054600192906115bd908490612496565b90915550506001600160a01b03821660009081526003602052604081208054600192906115eb908490612679565b909155505060008181526002602052604080822080546001600160a01b0319166001600160a01b0386811691821790925591518493918716917fddf252ad1be2c89b69c2b068fc378daa952ba7f163c4a11628f55a4df523b3ef91a4505050565b600780546001600160a01b038381166001600160a01b0319831681179093556040519116919082907f8be0079c531659141344cd1fd0a4f28419497f9722a3daafe3b4186f6b6457e090600090a35050565b816001600160a01b0316836001600160a01b0316036116ff5760405162461bcd60e51b815260206004820152601960248201527f4552433732313a20617070726f766520746f2063616c6c657200000000000000604482015260640161063a565b6001600160a01b03838116600081815260056020908152604080832094871680845294825291829020805460ff191686151590811790915591519182527f17307eab39ab6107e8899845ad3d59bd9653f200f220920489ca2b5937696c31910160405180910390a3505050565b6117778484846114a5565b611783848484846119a9565b610e695760405162461bcd60e51b815260040161063a9061268c565b60606117aa826112f6565b600082815260066020526040812080546117c39061230a565b80601f01602080910402602001604051908101604052809291908181526020018280546117ef9061230a565b801561183c5780601f106118115761010080835404028352916020019161183c565b820191906000526020600020905b81548152906001019060200180831161181f57829003601f168201915b50505050509050600061185a60408051602081019091526000815290565b9050805160000361186c575092915050565b81511561189e5780826040516020016118869291906126de565b60405160208183030381529060405292505050919050565b61149d84611aaa565b6118b18383611b1d565b6118be60008484846119a9565b6106db5760405162461bcd60e51b815260040161063a9061268c565b6118e381611c6b565b600081815260066020526040902080546118fc9061230a565b159050610cd0576000818152600660205260408120610cd091611e4c565b6001600160a01b0383161580159061193a57506001600160a01b03821615155b156106db576001600160a01b038316156106db5760405162461bcd60e51b815260206004820152602a60248201527f53425420626c6f672063657274696669636174652063616e6e6f7420626520746044820152691c985b9cd9995c9c995960b21b606482015260840161063a565b60006001600160a01b0384163b15611a9f57604051630a85bd0160e11b81526001600160a01b0385169063150b7a02906119ed90339089908890889060040161270d565b6020604051808303816000875af1925050508015611a28575060408051601f3d908101601f19168201909252611a259181019061274a565b60015b611a85573d808015611a56576040519150601f19603f3d011682016040523d82523d6000602084013e611a5b565b606091505b508051600003611a7d5760405162461bcd60e51b815260040161063a9061268c565b805181602001fd5b6001600160e01b031916630a85bd0160e11b14905061149d565b506001949350505050565b6060611ab5826112f6565b6000611acc60408051602081019091526000815290565b90506000815111611aec5760405180602001604052806000815250611009565b80611af684611d12565b604051602001611b079291906126de565b6040516020818303038152906040529392505050565b6001600160a01b038216611b735760405162461bcd60e51b815260206004820181905260248201527f4552433732313a206d696e7420746f20746865207a65726f2061646472657373604482015260640161063a565b6000818152600260205260409020546001600160a01b031615611bd85760405162461bcd60e51b815260206004820152601c60248201527f4552433732313a20746f6b656e20616c7265616479206d696e74656400000000604482015260640161063a565b611be46000838361191a565b6001600160a01b0382166000908152600360205260408120805460019290611c0d908490612679565b909155505060008181526002602052604080822080546001600160a01b0319166001600160a01b03861690811790915590518392907fddf252ad1be2c89b69c2b068fc378daa952ba7f163c4a11628f55a4df523b3ef908290a45050565b6000611c7682610d1f565b9050611c848160008461191a565b611c8f600083611355565b6001600160a01b0381166000908152600360205260408120805460019290611cb8908490612496565b909155505060008281526002602052604080822080546001600160a01b0319169055518391906001600160a01b038416907fddf252ad1be2c89b69c2b068fc378daa952ba7f163c4a11628f55a4df523b3ef908390a45050565b606081600003611d395750506040805180820190915260018152600360fc1b602082015290565b8160005b8115611d635780611d4d8161247d565b9150611d5c9050600a8361277d565b9150611d3d565b6000816001600160401b03811115611d7d57611d7d611f4c565b6040519080825280601f01601f191660200182016040528015611da7576020820181803683370190505b5090505b841561149d57611dbc600183612496565b9150611dc9600a86612791565b611dd4906030612679565b60f81b818381518110611de957611de9612451565b60200101906001600160f81b031916908160001a905350611e0b600a8661277d565b9450611dab565b604051806080016040528060006001600160401b0316815260200160006001600160a01b0316815260200160608152602001600081525090565b508054611e589061230a565b6000825580601f10611e68575050565b601f016020900490600052602060002090810190610cd091905b80821115611e965760008155600101611e82565b5090565b6001600160e01b031981168114610cd057600080fd5b600060208284031215611ec257600080fd5b813561100981611e9a565b60005b83811015611ee8578181015183820152602001611ed0565b50506000910152565b60008151808452611f09816020860160208601611ecd565b601f01601f19169290920160200192915050565b6020815260006110096020830184611ef1565b80356001600160a01b0381168114611f4757600080fd5b919050565b634e487b7160e01b600052604160045260246000fd5b60006001600160401b0380841115611f7c57611f7c611f4c565b604051601f8501601f19908116603f01168101908282118183101715611fa457611fa4611f4c565b81604052809350858152868686011115611fbd57600080fd5b858560208301376000602087830101525050509392505050565b600082601f830112611fe857600080fd5b61100983833560208501611f62565b6000806040838503121561200a57600080fd5b61201383611f30565b915060208301356001600160401b0381111561202e57600080fd5b61203a85828601611fd7565b9150509250929050565b60006020828403121561205657600080fd5b5035919050565b6000806040838503121561207057600080fd5b61207983611f30565b946020939093013593505050565b6001600160401b03815116825260018060a01b03602082015116602083015260006040820151608060408501526120c16080850182611ef1565b606093840151949093019390935250919050565b6000602080830181845280855180835260408601915060408160051b870101925083870160005b8281101561212a57603f19888603018452612118858351612087565b945092850192908501906001016120fc565b5092979650505050505050565b60006020828403121561214957600080fd5b61100982611f30565b60006020828403121561216457600080fd5b81356001600160401b038116811461100957600080fd5b60008060006060848603121561219057600080fd5b61219984611f30565b92506121a760208501611f30565b9150604084013590509250925092565b600080604083850312156121ca57600080fd5b6121d383611f30565b9150602083013580151581146121e857600080fd5b809150509250929050565b6000806000806080858703121561220957600080fd5b61221285611f30565b935061222060208601611f30565b92506040850135915060608501356001600160401b0381111561224257600080fd5b8501601f8101871361225357600080fd5b61226287823560208401611f62565b91505092959194509250565b60008060006060848603121561228357600080fd5b8335925061229360208501611f30565b915060408401356001600160401b038111156122ae57600080fd5b6122ba86828701611fd7565b9150509250925092565b600080604083850312156122d757600080fd5b6122e083611f30565b91506122ee60208401611f30565b90509250929050565b6020815260006110096020830184612087565b600181811c9082168061231e57607f821691505b60208210810361233e57634e487b7160e01b600052602260045260246000fd5b50919050565b601f8211156106db57600081815260208120601f850160051c8101602086101561236b5750805b601f850160051c820191505b8181101561238a57828155600101612377565b505050505050565b81516001600160401b038111156123ab576123ab611f4c565b6123bf816123b9845461230a565b84612344565b602080601f8311600181146123f457600084156123dc5750858301515b600019600386901b1c1916600185901b17855561238a565b600085815260208120601f198616915b8281101561242357888601518255948401946001909101908401612404565b50858210156124415787850151600019600388901b60f8161c191681555b5050505050600190811b01905550565b634e487b7160e01b600052603260045260246000fd5b634e487b7160e01b600052601160045260246000fd5b60006001820161248f5761248f612467565b5060010190565b818103818111156103df576103df612467565b8181036124b4575050565b6124be825461230a565b6001600160401b038111156124d5576124d5611f4c565b6124e3816123b9845461230a565b6000601f82116001811461251757600083156124ff5750848201545b600019600385901b1c1916600184901b17845561257c565b600085815260209020601f19841690600086815260209020845b838110156125515782860154825560019586019590910190602001612531565b508583101561256f5781850154600019600388901b60f8161c191681555b50505060018360011b0184555b5050505050565b634e487b7160e01b600052603160045260246000fd5b6020808252602e908201527f4552433732313a2063616c6c6572206973206e6f7420746f6b656e206f776e6560408201526d1c881b9bdc88185c1c1c9bdd995960921b606082015260800190565b600082516125f9818460208701611ecd565b9190910192915050565b60008083546126118161230a565b60018281168015612629576001811461263e5761266d565b60ff198416875282151583028701945061266d565b8760005260208060002060005b858110156126645781548a82015290840190820161264b565b50505082870194505b50929695505050505050565b808201808211156103df576103df612467565b60208082526032908201527f4552433732313a207472616e7366657220746f206e6f6e20455243373231526560408201527131b2b4bb32b91034b6b83632b6b2b73a32b960711b606082015260800190565b600083516126f0818460208801611ecd565b835190830190612704818360208801611ecd565b01949350505050565b6001600160a01b038581168252841660208201526040810183905260806060820181905260009061274090830184611ef1565b9695505050505050565b60006020828403121561275c57600080fd5b815161100981611e9a565b634e487b7160e01b600052601260045260246000fd5b60008261278c5761278c612767565b500490565b6000826127a0576127a0612767565b50069056fe5468697320636572746966696361746520686173206265656e207265766f6b6564a2646970667358221220307f20e96c67f7a9739534d4eb57fc1c1053120f321c8f4e5d39547ba6d5b51964736f6c63430008140033",
  "linkReferences": {},
  "deployedLinkReferences": {}
}