{
  "_format": "hh-sol-artifact-1",
  "contractName": "BlogReview",
  "sourceName": "contracts/BlogReviewCert.sol",
  "abi": [
    {
      "inputs": [],
      "stateMutability": "nonpayable",
      "type": "constructor"
    },
    {
      "inputs": [
        {
          "internalType": "address",
          "name": "sender",
          "type": "address"
        },
        {
          "internalType": "uint256",
          "name": "tokenId",
          "type": "uint256"
        },
        {
          "internalType": "address",
          "name": "owner",
          "type": "address"
        }
      ],
      "name": "ERC721IncorrectOwner",
      "type": "error"
    },
    {
      "inputs": [
        {
          "internalType": "address",
          "name": "operator",
          "type": "address"
        },
        {
          "internalType": "uint256",
          "name": "tokenId",
          "type": "uint256"
        }
      ],
      "name": "ERC721InsufficientApproval",
      "type": "error"
    },
    {
      "inputs": [
        {
          "internalType": "address",
          "name": "approver",
          "type": "address"
        }
      ],
      "name": "ERC721InvalidApprover",
      "type": "error"
    },
    {
      "inputs": [
        {
          "internalType": "address",
          "name": "operator",
          "type": "address"
        }
      ],
      "name": "ERC721InvalidOperator",
      "type": "error"
    },
    {
      "inputs": [
        {
          "internalType": "address",
          "name": "owner",
          "type": "address"
        }
      ],
      "name": "ERC721InvalidOwner",
      "type": "error"
    },
    {
      "inputs": [
        {
          "internalType": "address",
          "name": "receiver",
          "type": "address"
        }
      ],
      "name": "ERC721InvalidReceiver",
      "type": "error"
    },
    {
      "inputs": [
        {
          "internalType": "address",
          "name": "sender",
          "type": "address"
        }
      ],
      "name": "ERC721InvalidSender",
      "type": "error"
    },
    {
      "inputs": [
        {
          "internalType": "uint256",
          "name": "tokenId",
          "type": "uint256"
        }
      ],
      "name": "ERC721NonexistentToken",
      "type": "error"
    },
    {
      "anonymous": false,
      "inputs": [
        {
          "indexed": true,
          "internalType": "address",
          "name": "owner",
          "type": "address"
        },
        {
          "indexed": true,
          "internalType": "address",
          "name": "approved",
          "type": "address"
        },
        {
          "indexed": true,
          "internalType": "uint256",
          "name": "tokenId",
          "type": "uint256"
        }
      ],
      "name": "Approval",
      "type": "event"
    },
    {
      "anonymous": false,
      "inputs": [
        {
          "indexed": true,
          "internalType": "address",
          "name": "owner",
          "type": "address"
        },
        {
          "indexed": true,
          "internalType": "address",
          "name": "operator",
          "type": "address"
        },
        {
          "indexed": false,
          "internalType": "bool",
          "name": "approved",
          "type": "bool"
        }
      ],
      "name": "ApprovalForAll",
      "type": "event"
    },
    {
      "anonymous": false,
      "inputs": [
        {
          "indexed": false,
          "internalType": "uint256",
          "name": "_fromTokenId",
          "type": "uint256"
        },
        {
          "indexed": false,
          "internalType": "uint256",
          "name": "_toTokenId",
          "type": "uint256"
        }
      ],
      "name": "BatchMetadataUpdate",
      "type": "event"
    },
    {
      "anonymous": false,
      "inputs": [
        {
          "indexed": false,
          "internalType": "uint256",
          "name": "_tokenId",
          "type": "uint256"
        }
      ],
      "name": "MetadataUpdate",
      "type": "event"
    },
    {
      "anonymous": false,
      "inputs": [
        {
          "indexed": true,
          "internalType": "address",
          "name": "from",
          "type": "address"
        },
        {
          "indexed": true,
          "internalType": "address",
          "name": "to",
          "type": "address"
        },
        {
          "indexed": true,
          "internalType": "uint256",
          "name": "tokenId",
          "type": "uint256"
        }
      ],
      "name": "Transfer",
      "type": "event"
    },
    {
      "inputs": [
        {
          "internalType": "address",
          "name": "to",
          "type": "address"
        },
        {
          "internalType": "uint256",
          "name": "tokenId",
          "type": "uint256"
        }
      ],
      "name": "approve",
      "outputs": [],
      "stateMutability": "nonpayable",
      "type": "function"
    },
    {
      "inputs": [
        {
          "internalType": "address",
          "name": "owner",
          "type": "address"
        }
      ],
      "name": "balanceOf",
      "outputs": [
        {
          "internalType": "uint256",
          "name": "",
          "type": "uint256"
        }
      ],
      "stateMutability": "view",
      "type": "function"
    },
    {
      "inputs": [],
      "name": "getAllCertificates",
      "outputs": [
        {
          "components": [
            {
              "internalType": "uint64",
              "name": "tokenId",
              "type": "uint64"
            },
            {
              "internalType": "address",
              "name": "owner",
              "type": "address"
            },
            {
              "internalType": "string",
              "name": "ownerName",
              "type": "string"
            },
            {
              "internalType": "string",
              "name": "title",
              "type": "string"
            },
            {
              "internalType": "string",
              "name": "ipfsHash",
              "type": "string"
            },
            {
              "internalType": "string",
              "name": "blogName",
              "type": "string"
            },
            {
              "internalType": "uint256",
              "name": "timestamp",
              "type": "uint256"
            }
          ],
          "internalType": "struct BlogReview.NFTData[]",
          "name": "",
          "type": "tuple[]"
        }
      ],
      "stateMutability": "view",
      "type": "function"
    },
    {
      "inputs": [
        {
          "internalType": "uint256",
          "name": "tokenId",
          "type": "uint256"
        }
      ],
      "name": "getApproved",
      "outputs": [
        {
          "internalType": "address",
          "name": "",
          "type": "address"
        }
      ],
      "stateMutability": "view",
      "type": "function"
    },
    {
      "inputs": [
        {
          "internalType": "uint64",
          "name": "tokenId",
          "type": "uint64"
        }
      ],
      "name": "getCertificate",
      "outputs": [
        {
          "components": [
            {
              "internalType": "uint64",
              "name": "tokenId",
              "type": "uint64"
            },
            {
              "internalType": "address",
              "name": "owner",
              "type": "address"
            },
            {
              "internalType": "string",
              "name": "ownerName",
              "type": "string"
            },
            {
              "internalType": "string",
              "name": "title",
              "type": "string"
            },
            {
              "internalType": "string",
              "name": "ipfsHash",
              "type": "string"
            },
            {
              "internalType": "string",
              "name": "blogName",
              "type": "string"
            },
            {
              "internalType": "uint256",
              "name": "timestamp",
              "type": "uint256"
            }
          ],
          "internalType": "struct BlogReview.NFTData",
          "name": "",
          "type": "tuple"
        }
      ],
      "stateMutability": "view",
      "type": "function"
    },
    {
      "inputs": [
        {
          "internalType": "address",
          "name": "owner",
          "type": "address"
        },
        {
          "internalType": "address",
          "name": "operator",
          "type": "address"
        }
      ],
      "name": "isApprovedForAll",
      "outputs": [
        {
          "internalType": "bool",
          "name": "",
          "type": "bool"
        }
      ],
      "stateMutability": "view",
      "type": "function"
    },
    {
      "inputs": [
        {
          "internalType": "address",
          "name": "owner",
          "type": "address"
        },
        {
          "internalType": "string",
          "name": "ownerName",
          "type": "string"
        },
        {
          "internalType": "string",
          "name": "title",
          "type": "string"
        },
        {
          "internalType": "string",
          "name": "ipfsHash",
          "type": "string"
        },
        {
          "internalType": "string",
          "name": "ipfstokenURI",
          "type": "string"
        },
        {
          "internalType": "string",
          "name": "blogName",
          "type": "string"
        }
      ],
      "name": "mintCertificate",
      "outputs": [
        {
          "internalType": "uint256",
          "name": "",
          "type": "uint256"
        }
      ],
      "stateMutability": "nonpayable",
      "type": "function"
    },
    {
      "inputs": [],
      "name": "name",
      "outputs": [
        {
          "internalType": "string",
          "name": "",
          "type": "string"
        }
      ],
      "stateMutability": "view",
      "type": "function"
    },
    {
      "inputs": [
        {
          "internalType": "uint256",
          "name": "tokenId",
          "type": "uint256"
        }
      ],
      "name": "ownerOf",
      "outputs": [
        {
          "internalType": "address",
          "name": "",
          "type": "address"
        }
      ],
      "stateMutability": "view",
      "type": "function"
    },
    {
      "inputs": [
        {
          "internalType": "address",
          "name": "from",
          "type": "address"
        },
        {
          "internalType": "address",
          "name": "to",
          "type": "address"
        },
        {
          "internalType": "uint256",
          "name": "tokenId",
          "type": "uint256"
        }
      ],
      "name": "safeTransferFrom",
      "outputs": [],
      "stateMutability": "nonpayable",
      "type": "function"
    },
    {
      "inputs": [
        {
          "internalType": "address",
          "name": "from",
          "type": "address"
        },
        {
          "internalType": "address",
          "name": "to",
          "type": "address"
        },
        {
          "internalType": "uint256",
          "name": "tokenId",
          "type": "uint256"
        },
        {
          "internalType": "bytes",
          "name": "data",
          "type": "bytes"
        }
      ],
      "name": "safeTransferFrom",
      "outputs": [],
      "stateMutability": "nonpayable",
      "type": "function"
    },
    {
      "inputs": [
        {
          "internalType": "address",
          "name": "operator",
          "type": "address"
        },
        {
          "internalType": "bool",
          "name": "approved",
          "type": "bool"
        }
      ],
      "name": "setApprovalForAll",
      "outputs": [],
      "stateMutability": "nonpayable",
      "type": "function"
    },
    {
      "inputs": [
        {
          "internalType": "bytes4",
          "name": "interfaceId",
          "type": "bytes4"
        }
      ],
      "name": "supportsInterface",
      "outputs": [
        {
          "internalType": "bool",
          "name": "",
          "type": "bool"
        }
      ],
      "stateMutability": "view",
      "type": "function"
    },
    {
      "inputs": [],
      "name": "symbol",
      "outputs": [
        {
          "internalType": "string",
          "name": "",
          "type": "string"
        }
      ],
      "stateMutability": "view",
      "type": "function"
    },
    {
      "inputs": [
        {
          "internalType": "uint256",
          "name": "tokenId",
          "type": "uint256"
        }
      ],
      "name": "tokenURI",
      "outputs": [
        {
          "internalType": "string",
          "name": "",
          "type": "string"
        }
      ],
      "stateMutability": "view",
      "type": "function"
    },
    {
      "inputs": [],
      "name": "totalReviews",
      "outputs": [
        {
          "internalType": "uint256",
          "name": "",
          "type": "uint256"
        }
      ],
      "stateMutability": "view",
      "type": "function"
    },
    {
      "inputs": [
        {
          "internalType": "address",
          "name": "from",
          "type": "address"
        },
        {
          "internalType": "address",
          "name": "to",
          "type": "address"
        },
        {
          "internalType": "uint256",
          "name": "tokenId",
          "type": "uint256"
        }
      ],
      "name": "transferFrom",
      "outputs": [],
      "stateMutability": "nonpayable",
      "type": "function"
    }
  ],
  "bytecode": "0x60806040523480156200001157600080fd5b506040518060400160405280601581526020017f426c6f67526576696577436572746966696361746500000000000000000000008152506040518060400160405280600381526020017f425243000000000000000000000000000000000000000000000000000000000081525081600090816200008f919062000324565b508060019081620000a1919062000324565b5050506200040b565b600081519050919050565b7f4e487b7100000000000000000000000000000000000000000000000000000000600052604160045260246000fd5b7f4e487b7100000000000000000000000000000000000000000000000000000000600052602260045260246000fd5b600060028204905060018216806200012c57607f821691505b602082108103620001425762000141620000e4565b5b50919050565b60008190508160005260206000209050919050565b60006020601f8301049050919050565b600082821b905092915050565b600060088302620001ac7fffffffffffffffffffffffffffffffffffffffffffffffffffffffffffffffff826200016d565b620001b886836200016d565b95508019841693508086168417925050509392505050565b6000819050919050565b6000819050919050565b600062000205620001ff620001f984620001d0565b620001da565b620001d0565b9050919050565b6000819050919050565b6200022183620001e4565b6200023962000230826200020c565b8484546200017a565b825550505050565b600090565b6200025062000241565b6200025d81848462000216565b505050565b5b8181101562000285576200027960008262000246565b60018101905062000263565b5050565b601f821115620002d4576200029e8162000148565b620002a9846200015d565b81016020851015620002b9578190505b620002d1620002c8856200015d565b83018262000262565b50505b505050565b600082821c905092915050565b6000620002f960001984600802620002d9565b1980831691505092915050565b6000620003148383620002e6565b9150826002028217905092915050565b6200032f82620000aa565b67ffffffffffffffff8111156200034b576200034a620000b5565b5b62000357825462000113565b6200036482828562000289565b600060209050601f8311600181146200039c576000841562000387578287015190505b62000393858262000306565b86555062000403565b601f198416620003ac8662000148565b60005b82811015620003d657848901518255600182019150602085019450602081019050620003af565b86831015620003f65784890151620003f2601f891682620002e6565b8355505b6001600288020188555050505b505050505050565b6132f8806200041b6000396000f3fe608060405234801561001057600080fd5b506004361061010b5760003560e01c806370a08231116100a2578063b88d4fde11610071578063b88d4fde146102ca578063c87b56dd146102e6578063e236789014610316578063e985e9c514610334578063f6ae476b146103645761010b565b806370a08231146102305780638d13d72d1461026057806395d89b4114610290578063a22cb465146102ae5761010b565b806313fcfe80116100de57806313fcfe80146101aa57806323b872dd146101c857806342842e0e146101e45780636352211e146102005761010b565b806301ffc9a71461011057806306fdde0314610140578063081812fc1461015e578063095ea7b31461018e575b600080fd5b61012a600480360381019061012591906121f7565b610394565b604051610137919061223f565b60405180910390f35b6101486103f5565b60405161015591906122ea565b60405180910390f35b61017860048036038101906101739190612342565b610487565b60405161018591906123b0565b60405180910390f35b6101a860048036038101906101a391906123f7565b6104a3565b005b6101b26104b9565b6040516101bf9190612635565b60405180910390f35b6101e260048036038101906101dd9190612657565b6107f2565b005b6101fe60048036038101906101f99190612657565b6108f4565b005b61021a60048036038101906102159190612342565b610914565b60405161022791906123b0565b60405180910390f35b61024a600480360381019061024591906126aa565b610926565b60405161025791906126e6565b60405180910390f35b61027a60048036038101906102759190612836565b6109e0565b60405161028791906126e6565b60405180910390f35b610298610b85565b6040516102a591906122ea565b60405180910390f35b6102c860048036038101906102c3919061297b565b610c17565b005b6102e460048036038101906102df9190612a5c565b610c2d565b005b61030060048036038101906102fb9190612342565b610c4a565b60405161030d91906122ea565b60405180910390f35b61031e610d5d565b60405161032b91906126e6565b60405180910390f35b61034e60048036038101906103499190612adf565b610d63565b60405161035b919061223f565b60405180910390f35b61037e60048036038101906103799190612b4b565b610df7565b60405161038b9190612c29565b60405180910390f35b6000634906490660e01b7bffffffffffffffffffffffffffffffffffffffffffffffffffffffff1916827bffffffffffffffffffffffffffffffffffffffffffffffffffffffff191614806103ee57506103ed826111c6565b5b9050919050565b60606000805461040490612c7a565b80601f016020809104026020016040519081016040528092919081815260200182805461043090612c7a565b801561047d5780601f106104525761010080835404028352916020019161047d565b820191906000526020600020905b81548152906001019060200180831161046057829003601f168201915b5050505050905090565b6000610492826112a8565b5061049c82611330565b9050919050565b6104b582826104b061136d565b611375565b5050565b60606007805480602002602001604051908101604052809291908181526020016000905b828210156107e957838290600052602060002090600602016040518060e00160405290816000820160009054906101000a900467ffffffffffffffff1667ffffffffffffffff1667ffffffffffffffff1681526020016000820160089054906101000a900473ffffffffffffffffffffffffffffffffffffffff1673ffffffffffffffffffffffffffffffffffffffff1673ffffffffffffffffffffffffffffffffffffffff16815260200160018201805461059890612c7a565b80601f01602080910402602001604051908101604052809291908181526020018280546105c490612c7a565b80156106115780601f106105e657610100808354040283529160200191610611565b820191906000526020600020905b8154815290600101906020018083116105f457829003601f168201915b5050505050815260200160028201805461062a90612c7a565b80601f016020809104026020016040519081016040528092919081815260200182805461065690612c7a565b80156106a35780601f10610678576101008083540402835291602001916106a3565b820191906000526020600020905b81548152906001019060200180831161068657829003601f168201915b505050505081526020016003820180546106bc90612c7a565b80601f01602080910402602001604051908101604052809291908181526020018280546106e890612c7a565b80156107355780601f1061070a57610100808354040283529160200191610735565b820191906000526020600020905b81548152906001019060200180831161071857829003601f168201915b5050505050815260200160048201805461074e90612c7a565b80601f016020809104026020016040519081016040528092919081815260200182805461077a90612c7a565b80156107c75780601f1061079c576101008083540402835291602001916107c7565b820191906000526020600020905b8154815290600101906020018083116107aa57829003601f168201915b50505050508152602001600582015481525050815260200190600101906104dd565b50505050905090565b600073ffffffffffffffffffffffffffffffffffffffff168273ffffffffffffffffffffffffffffffffffffffff16036108645760006040517f64a0ae9200000000000000000000000000000000000000000000000000000000815260040161085b91906123b0565b60405180910390fd5b6000610878838361087361136d565b611387565b90508373ffffffffffffffffffffffffffffffffffffffff168173ffffffffffffffffffffffffffffffffffffffff16146108ee578382826040517f64283d7b0000000000000000000000000000000000000000000000000000000081526004016108e593929190612cab565b60405180910390fd5b50505050565b61090f83838360405180602001604052806000815250610c2d565b505050565b600061091f826112a8565b9050919050565b60008073ffffffffffffffffffffffffffffffffffffffff168273ffffffffffffffffffffffffffffffffffffffff16036109995760006040517f89c62b6400000000000000000000000000000000000000000000000000000000815260040161099091906123b0565b60405180910390fd5b600360008373ffffffffffffffffffffffffffffffffffffffff1673ffffffffffffffffffffffffffffffffffffffff168152602001908152602001600020549050919050565b6000806109eb6115a1565b9050610a01888267ffffffffffffffff166115e7565b610a158167ffffffffffffffff1685611605565b60076040518060e001604052808367ffffffffffffffff1681526020018a73ffffffffffffffffffffffffffffffffffffffff16815260200189815260200188815260200187815260200185815260200142815250908060018154018082558091505060019003906000526020600020906006020160009091909190915060008201518160000160006101000a81548167ffffffffffffffff021916908367ffffffffffffffff16021790555060208201518160000160086101000a81548173ffffffffffffffffffffffffffffffffffffffff021916908373ffffffffffffffffffffffffffffffffffffffff1602179055506040820151816001019081610b1e9190612e8e565b506060820151816002019081610b349190612e8e565b506080820151816003019081610b4a9190612e8e565b5060a0820151816004019081610b609190612e8e565b5060c0820151816005015550508067ffffffffffffffff169150509695505050505050565b606060018054610b9490612c7a565b80601f0160208091040260200160405190810160405280929190818152602001828054610bc090612c7a565b8015610c0d5780601f10610be257610100808354040283529160200191610c0d565b820191906000526020600020905b815481529060010190602001808311610bf057829003601f168201915b5050505050905090565b610c29610c2261136d565b8383611661565b5050565b610c388484846107f2565b610c44848484846117d0565b50505050565b6060610c55826112a8565b506000600660008481526020019081526020016000208054610c7690612c7a565b80601f0160208091040260200160405190810160405280929190818152602001828054610ca290612c7a565b8015610cef5780601f10610cc457610100808354040283529160200191610cef565b820191906000526020600020905b815481529060010190602001808311610cd257829003601f168201915b505050505090506000610d00611987565b90506000815103610d15578192505050610d58565b600082511115610d4a578082604051602001610d32929190612f9c565b60405160208183030381529060405292505050610d58565b610d538461199e565b925050505b919050565b60085481565b6000600560008473ffffffffffffffffffffffffffffffffffffffff1673ffffffffffffffffffffffffffffffffffffffff16815260200190815260200160002060008373ffffffffffffffffffffffffffffffffffffffff1673ffffffffffffffffffffffffffffffffffffffff16815260200190815260200160002060009054906101000a900460ff16905092915050565b610dff61212e565b60005b600780549050811015611185578267ffffffffffffffff1660078281548110610e2e57610e2d612fc0565b5b906000526020600020906006020160000160009054906101000a900467ffffffffffffffff1667ffffffffffffffff16036111725760078181548110610e7757610e76612fc0565b5b90600052602060002090600602016040518060e00160405290816000820160009054906101000a900467ffffffffffffffff1667ffffffffffffffff1667ffffffffffffffff1681526020016000820160089054906101000a900473ffffffffffffffffffffffffffffffffffffffff1673ffffffffffffffffffffffffffffffffffffffff1673ffffffffffffffffffffffffffffffffffffffff168152602001600182018054610f2890612c7a565b80601f0160208091040260200160405190810160405280929190818152602001828054610f5490612c7a565b8015610fa15780601f10610f7657610100808354040283529160200191610fa1565b820191906000526020600020905b815481529060010190602001808311610f8457829003601f168201915b50505050508152602001600282018054610fba90612c7a565b80601f0160208091040260200160405190810160405280929190818152602001828054610fe690612c7a565b80156110335780601f1061100857610100808354040283529160200191611033565b820191906000526020600020905b81548152906001019060200180831161101657829003601f168201915b5050505050815260200160038201805461104c90612c7a565b80601f016020809104026020016040519081016040528092919081815260200182805461107890612c7a565b80156110c55780601f1061109a576101008083540402835291602001916110c5565b820191906000526020600020905b8154815290600101906020018083116110a857829003601f168201915b505050505081526020016004820180546110de90612c7a565b80601f016020809104026020016040519081016040528092919081815260200182805461110a90612c7a565b80156111575780601f1061112c57610100808354040283529160200191611157565b820191906000526020600020905b81548152906001019060200180831161113a57829003601f168201915b505050505081526020016005820154815250509150506111c1565b808061117d9061301e565b915050610e02565b506040517f08c379a00000000000000000000000000000000000000000000000000000000081526004016111b8906130d8565b60405180910390fd5b919050565b60007f80ac58cd000000000000000000000000000000000000000000000000000000007bffffffffffffffffffffffffffffffffffffffffffffffffffffffff1916827bffffffffffffffffffffffffffffffffffffffffffffffffffffffff1916148061129157507f5b5e139f000000000000000000000000000000000000000000000000000000007bffffffffffffffffffffffffffffffffffffffffffffffffffffffff1916827bffffffffffffffffffffffffffffffffffffffffffffffffffffffff1916145b806112a157506112a082611a07565b5b9050919050565b6000806112b483611a71565b9050600073ffffffffffffffffffffffffffffffffffffffff168173ffffffffffffffffffffffffffffffffffffffff160361132757826040517f7e27328900000000000000000000000000000000000000000000000000000000815260040161131e91906126e6565b60405180910390fd5b80915050919050565b60006004600083815260200190815260200160002060009054906101000a900473ffffffffffffffffffffffffffffffffffffffff169050919050565b600033905090565b6113828383836001611aae565b505050565b60008061139384611a71565b9050600073ffffffffffffffffffffffffffffffffffffffff168373ffffffffffffffffffffffffffffffffffffffff16146113d5576113d4818486611c73565b5b600073ffffffffffffffffffffffffffffffffffffffff168173ffffffffffffffffffffffffffffffffffffffff161461146657611417600085600080611aae565b6001600360008373ffffffffffffffffffffffffffffffffffffffff1673ffffffffffffffffffffffffffffffffffffffff168152602001908152602001600020600082825403925050819055505b600073ffffffffffffffffffffffffffffffffffffffff168573ffffffffffffffffffffffffffffffffffffffff16146114e9576001600360008773ffffffffffffffffffffffffffffffffffffffff1673ffffffffffffffffffffffffffffffffffffffff168152602001908152602001600020600082825401925050819055505b846002600086815260200190815260200160002060006101000a81548173ffffffffffffffffffffffffffffffffffffffff021916908373ffffffffffffffffffffffffffffffffffffffff160217905550838573ffffffffffffffffffffffffffffffffffffffff168273ffffffffffffffffffffffffffffffffffffffff167fddf252ad1be2c89b69c2b068fc378daa952ba7f163c4a11628f55a4df523b3ef60405160405180910390a4809150509392505050565b60006305f5e10042446008546040516020016115bf93929190613119565b6040516020818303038152906040528051906020012060001c6115e29190613185565b905090565b611601828260405180602001604052806000815250611d37565b5050565b806006600084815260200190815260200160002090816116259190612e8e565b507ff8e1a15aba9398e019f0b49df1a4fde98ee17ae345cb5f6b5e2c27f5033e8ce78260405161165591906126e6565b60405180910390a15050565b600073ffffffffffffffffffffffffffffffffffffffff168273ffffffffffffffffffffffffffffffffffffffff16036116d257816040517f5b08ba180000000000000000000000000000000000000000000000000000000081526004016116c991906123b0565b60405180910390fd5b80600560008573ffffffffffffffffffffffffffffffffffffffff1673ffffffffffffffffffffffffffffffffffffffff16815260200190815260200160002060008473ffffffffffffffffffffffffffffffffffffffff1673ffffffffffffffffffffffffffffffffffffffff16815260200190815260200160002060006101000a81548160ff0219169083151502179055508173ffffffffffffffffffffffffffffffffffffffff168373ffffffffffffffffffffffffffffffffffffffff167f17307eab39ab6107e8899845ad3d59bd9653f200f220920489ca2b5937696c31836040516117c3919061223f565b60405180910390a3505050565b60008373ffffffffffffffffffffffffffffffffffffffff163b1115611981578273ffffffffffffffffffffffffffffffffffffffff1663150b7a0261181461136d565b8685856040518563ffffffff1660e01b8152600401611836949392919061320b565b6020604051808303816000875af192505050801561187257506040513d601f19601f8201168201806040525081019061186f919061326c565b60015b6118f6573d80600081146118a2576040519150601f19603f3d011682016040523d82523d6000602084013e6118a7565b606091505b5060008151036118ee57836040517f64a0ae920000000000000000000000000000000000000000000000000000000081526004016118e591906123b0565b60405180910390fd5b805181602001fd5b63150b7a0260e01b7bffffffffffffffffffffffffffffffffffffffffffffffffffffffff1916817bffffffffffffffffffffffffffffffffffffffffffffffffffffffff19161461197f57836040517f64a0ae9200000000000000000000000000000000000000000000000000000000815260040161197691906123b0565b60405180910390fd5b505b50505050565b606060405180602001604052806000815250905090565b60606119a9826112a8565b5060006119b4611987565b905060008151116119d457604051806020016040528060008152506119ff565b806119de84611d53565b6040516020016119ef929190612f9c565b6040516020818303038152906040525b915050919050565b60007f01ffc9a7000000000000000000000000000000000000000000000000000000007bffffffffffffffffffffffffffffffffffffffffffffffffffffffff1916827bffffffffffffffffffffffffffffffffffffffffffffffffffffffff1916149050919050565b60006002600083815260200190815260200160002060009054906101000a900473ffffffffffffffffffffffffffffffffffffffff169050919050565b8080611ae75750600073ffffffffffffffffffffffffffffffffffffffff168273ffffffffffffffffffffffffffffffffffffffff1614155b15611c1b576000611af7846112a8565b9050600073ffffffffffffffffffffffffffffffffffffffff168373ffffffffffffffffffffffffffffffffffffffff1614158015611b6257508273ffffffffffffffffffffffffffffffffffffffff168173ffffffffffffffffffffffffffffffffffffffff1614155b8015611b755750611b738184610d63565b155b15611bb757826040517fa9fbf51f000000000000000000000000000000000000000000000000000000008152600401611bae91906123b0565b60405180910390fd5b8115611c1957838573ffffffffffffffffffffffffffffffffffffffff168273ffffffffffffffffffffffffffffffffffffffff167f8c5be1e5ebec7d5bd14f71427d1e84f3dd0314c0f7b2291e5b200ac8c7c3b92560405160405180910390a45b505b836004600085815260200190815260200160002060006101000a81548173ffffffffffffffffffffffffffffffffffffffff021916908373ffffffffffffffffffffffffffffffffffffffff16021790555050505050565b611c7e838383611e21565b611d3257600073ffffffffffffffffffffffffffffffffffffffff168373ffffffffffffffffffffffffffffffffffffffff1603611cf357806040517f7e273289000000000000000000000000000000000000000000000000000000008152600401611cea91906126e6565b60405180910390fd5b81816040517f177e802f000000000000000000000000000000000000000000000000000000008152600401611d29929190613299565b60405180910390fd5b505050565b611d418383611ee2565b611d4e60008484846117d0565b505050565b606060006001611d6284611fdb565b01905060008167ffffffffffffffff811115611d8157611d8061270b565b5b6040519080825280601f01601f191660200182016040528015611db35781602001600182028036833780820191505090505b509050600082602001820190505b600115611e16578080600190039150507f3031323334353637383961626364656600000000000000000000000000000000600a86061a8153600a8581611e0a57611e09613156565b5b04945060008503611dc1575b819350505050919050565b60008073ffffffffffffffffffffffffffffffffffffffff168373ffffffffffffffffffffffffffffffffffffffff1614158015611ed957508273ffffffffffffffffffffffffffffffffffffffff168473ffffffffffffffffffffffffffffffffffffffff161480611e9a5750611e998484610d63565b5b80611ed857508273ffffffffffffffffffffffffffffffffffffffff16611ec083611330565b73ffffffffffffffffffffffffffffffffffffffff16145b5b90509392505050565b600073ffffffffffffffffffffffffffffffffffffffff168273ffffffffffffffffffffffffffffffffffffffff1603611f545760006040517f64a0ae92000000000000000000000000000000000000000000000000000000008152600401611f4b91906123b0565b60405180910390fd5b6000611f6283836000611387565b9050600073ffffffffffffffffffffffffffffffffffffffff168173ffffffffffffffffffffffffffffffffffffffff1614611fd65760006040517f73c6ac6e000000000000000000000000000000000000000000000000000000008152600401611fcd91906123b0565b60405180910390fd5b505050565b600080600090507a184f03e93ff9f4daa797ed6e38ed64bf6a1f0100000000000000008310612039577a184f03e93ff9f4daa797ed6e38ed64bf6a1f010000000000000000838161202f5761202e613156565b5b0492506040810190505b6d04ee2d6d415b85acef81000000008310612076576d04ee2d6d415b85acef8100000000838161206c5761206b613156565b5b0492506020810190505b662386f26fc1000083106120a557662386f26fc10000838161209b5761209a613156565b5b0492506010810190505b6305f5e10083106120ce576305f5e10083816120c4576120c3613156565b5b0492506008810190505b61271083106120f35761271083816120e9576120e8613156565b5b0492506004810190505b60648310612116576064838161210c5761210b613156565b5b0492506002810190505b600a8310612125576001810190505b80915050919050565b6040518060e00160405280600067ffffffffffffffff168152602001600073ffffffffffffffffffffffffffffffffffffffff16815260200160608152602001606081526020016060815260200160608152602001600081525090565b6000604051905090565b600080fd5b600080fd5b60007fffffffff0000000000000000000000000000000000000000000000000000000082169050919050565b6121d48161219f565b81146121df57600080fd5b50565b6000813590506121f1816121cb565b92915050565b60006020828403121561220d5761220c612195565b5b600061221b848285016121e2565b91505092915050565b60008115159050919050565b61223981612224565b82525050565b60006020820190506122546000830184612230565b92915050565b600081519050919050565b600082825260208201905092915050565b60005b83811015612294578082015181840152602081019050612279565b60008484015250505050565b6000601f19601f8301169050919050565b60006122bc8261225a565b6122c68185612265565b93506122d6818560208601612276565b6122df816122a0565b840191505092915050565b6000602082019050818103600083015261230481846122b1565b905092915050565b6000819050919050565b61231f8161230c565b811461232a57600080fd5b50565b60008135905061233c81612316565b92915050565b60006020828403121561235857612357612195565b5b60006123668482850161232d565b91505092915050565b600073ffffffffffffffffffffffffffffffffffffffff82169050919050565b600061239a8261236f565b9050919050565b6123aa8161238f565b82525050565b60006020820190506123c560008301846123a1565b92915050565b6123d48161238f565b81146123df57600080fd5b50565b6000813590506123f1816123cb565b92915050565b6000806040838503121561240e5761240d612195565b5b600061241c858286016123e2565b925050602061242d8582860161232d565b9150509250929050565b600081519050919050565b600082825260208201905092915050565b6000819050602082019050919050565b600067ffffffffffffffff82169050919050565b61248081612463565b82525050565b61248f8161238f565b82525050565b600082825260208201905092915050565b60006124b18261225a565b6124bb8185612495565b93506124cb818560208601612276565b6124d4816122a0565b840191505092915050565b6124e88161230c565b82525050565b600060e0830160008301516125066000860182612477565b5060208301516125196020860182612486565b506040830151848203604086015261253182826124a6565b9150506060830151848203606086015261254b82826124a6565b9150506080830151848203608086015261256582826124a6565b91505060a083015184820360a086015261257f82826124a6565b91505060c083015161259460c08601826124df565b508091505092915050565b60006125ab83836124ee565b905092915050565b6000602082019050919050565b60006125cb82612437565b6125d58185612442565b9350836020820285016125e785612453565b8060005b858110156126235784840389528151612604858261259f565b945061260f836125b3565b925060208a019950506001810190506125eb565b50829750879550505050505092915050565b6000602082019050818103600083015261264f81846125c0565b905092915050565b6000806000606084860312156126705761266f612195565b5b600061267e868287016123e2565b935050602061268f868287016123e2565b92505060406126a08682870161232d565b9150509250925092565b6000602082840312156126c0576126bf612195565b5b60006126ce848285016123e2565b91505092915050565b6126e08161230c565b82525050565b60006020820190506126fb60008301846126d7565b92915050565b600080fd5b600080fd5b7f4e487b7100000000000000000000000000000000000000000000000000000000600052604160045260246000fd5b612743826122a0565b810181811067ffffffffffffffff821117156127625761276161270b565b5b80604052505050565b600061277561218b565b9050612781828261273a565b919050565b600067ffffffffffffffff8211156127a1576127a061270b565b5b6127aa826122a0565b9050602081019050919050565b82818337600083830152505050565b60006127d96127d484612786565b61276b565b9050828152602081018484840111156127f5576127f4612706565b5b6128008482856127b7565b509392505050565b600082601f83011261281d5761281c612701565b5b813561282d8482602086016127c6565b91505092915050565b60008060008060008060c0878903121561285357612852612195565b5b600061286189828a016123e2565b965050602087013567ffffffffffffffff8111156128825761288161219a565b5b61288e89828a01612808565b955050604087013567ffffffffffffffff8111156128af576128ae61219a565b5b6128bb89828a01612808565b945050606087013567ffffffffffffffff8111156128dc576128db61219a565b5b6128e889828a01612808565b935050608087013567ffffffffffffffff8111156129095761290861219a565b5b61291589828a01612808565b92505060a087013567ffffffffffffffff8111156129365761293561219a565b5b61294289828a01612808565b9150509295509295509295565b61295881612224565b811461296357600080fd5b50565b6000813590506129758161294f565b92915050565b6000806040838503121561299257612991612195565b5b60006129a0858286016123e2565b92505060206129b185828601612966565b9150509250929050565b600067ffffffffffffffff8211156129d6576129d561270b565b5b6129df826122a0565b9050602081019050919050565b60006129ff6129fa846129bb565b61276b565b905082815260208101848484011115612a1b57612a1a612706565b5b612a268482856127b7565b509392505050565b600082601f830112612a4357612a42612701565b5b8135612a538482602086016129ec565b91505092915050565b60008060008060808587031215612a7657612a75612195565b5b6000612a84878288016123e2565b9450506020612a95878288016123e2565b9350506040612aa68782880161232d565b925050606085013567ffffffffffffffff811115612ac757612ac661219a565b5b612ad387828801612a2e565b91505092959194509250565b60008060408385031215612af657612af5612195565b5b6000612b04858286016123e2565b9250506020612b15858286016123e2565b9150509250929050565b612b2881612463565b8114612b3357600080fd5b50565b600081359050612b4581612b1f565b92915050565b600060208284031215612b6157612b60612195565b5b6000612b6f84828501612b36565b91505092915050565b600060e083016000830151612b906000860182612477565b506020830151612ba36020860182612486565b5060408301518482036040860152612bbb82826124a6565b91505060608301518482036060860152612bd582826124a6565b91505060808301518482036080860152612bef82826124a6565b91505060a083015184820360a0860152612c0982826124a6565b91505060c0830151612c1e60c08601826124df565b508091505092915050565b60006020820190508181036000830152612c438184612b78565b905092915050565b7f4e487b7100000000000000000000000000000000000000000000000000000000600052602260045260246000fd5b60006002820490506001821680612c9257607f821691505b602082108103612ca557612ca4612c4b565b5b50919050565b6000606082019050612cc060008301866123a1565b612ccd60208301856126d7565b612cda60408301846123a1565b949350505050565b60008190508160005260206000209050919050565b60006020601f8301049050919050565b600082821b905092915050565b600060088302612d447fffffffffffffffffffffffffffffffffffffffffffffffffffffffffffffffff82612d07565b612d4e8683612d07565b95508019841693508086168417925050509392505050565b6000819050919050565b6000612d8b612d86612d818461230c565b612d66565b61230c565b9050919050565b6000819050919050565b612da583612d70565b612db9612db182612d92565b848454612d14565b825550505050565b600090565b612dce612dc1565b612dd9818484612d9c565b505050565b5b81811015612dfd57612df2600082612dc6565b600181019050612ddf565b5050565b601f821115612e4257612e1381612ce2565b612e1c84612cf7565b81016020851015612e2b578190505b612e3f612e3785612cf7565b830182612dde565b50505b505050565b600082821c905092915050565b6000612e6560001984600802612e47565b1980831691505092915050565b6000612e7e8383612e54565b9150826002028217905092915050565b612e978261225a565b67ffffffffffffffff811115612eb057612eaf61270b565b5b612eba8254612c7a565b612ec5828285612e01565b600060209050601f831160018114612ef85760008415612ee6578287015190505b612ef08582612e72565b865550612f58565b601f198416612f0686612ce2565b60005b82811015612f2e57848901518255600182019150602085019450602081019050612f09565b86831015612f4b5784890151612f47601f891682612e54565b8355505b6001600288020188555050505b505050505050565b600081905092915050565b6000612f768261225a565b612f808185612f60565b9350612f90818560208601612276565b80840191505092915050565b6000612fa88285612f6b565b9150612fb48284612f6b565b91508190509392505050565b7f4e487b7100000000000000000000000000000000000000000000000000000000600052603260045260246000fd5b7f4e487b7100000000000000000000000000000000000000000000000000000000600052601160045260246000fd5b60006130298261230c565b91507fffffffffffffffffffffffffffffffffffffffffffffffffffffffffffffffff820361305b5761305a612fef565b5b600182019050919050565b7f4365727469666963617465206e6f7420666f756e6420666f722074686520707260008201527f6f766964656420746f6b656e4964000000000000000000000000000000000000602082015250565b60006130c2602e83612265565b91506130cd82613066565b604082019050919050565b600060208201905081810360008301526130f1816130b5565b9050919050565b6000819050919050565b61311361310e8261230c565b6130f8565b82525050565b60006131258286613102565b6020820191506131358285613102565b6020820191506131458284613102565b602082019150819050949350505050565b7f4e487b7100000000000000000000000000000000000000000000000000000000600052601260045260246000fd5b60006131908261230c565b915061319b8361230c565b9250826131ab576131aa613156565b5b828206905092915050565b600081519050919050565b600082825260208201905092915050565b60006131dd826131b6565b6131e781856131c1565b93506131f7818560208601612276565b613200816122a0565b840191505092915050565b600060808201905061322060008301876123a1565b61322d60208301866123a1565b61323a60408301856126d7565b818103606083015261324c81846131d2565b905095945050505050565b600081519050613266816121cb565b92915050565b60006020828403121561328257613281612195565b5b600061329084828501613257565b91505092915050565b60006040820190506132ae60008301856123a1565b6132bb60208301846126d7565b939250505056fea2646970667358221220a57a5751c2c817164df5af6777256cc6676c30e46488297c3316ab7c944059a964736f6c63430008140033",
  "linkReferences": {},
  "deployedLinkReferences": {}
}