{
  "_format": "hh-sol-artifact-1",
  "contractName": "BlogCertificate",
  "sourceName": "contracts/BlogCert.sol",
  "abi": [
    {
      "inputs": [],
      "stateMutability": "nonpayable",
      "type": "constructor"
    },
    {
      "anonymous": false,
      "inputs": [
        {
          "indexed": true,
          "internalType": "address",
          "name": "owner",
          "type": "address"
        },
        {
          "indexed": true,
          "internalType": "address",
          "name": "approved",
          "type": "address"
        },
        {
          "indexed": true,
          "internalType": "uint256",
          "name": "tokenId",
          "type": "uint256"
        }
      ],
      "name": "Approval",
      "type": "event"
    },
    {
      "anonymous": false,
      "inputs": [
        {
          "indexed": true,
          "internalType": "address",
          "name": "owner",
          "type": "address"
        },
        {
          "indexed": true,
          "internalType": "address",
          "name": "operator",
          "type": "address"
        },
        {
          "indexed": false,
          "internalType": "bool",
          "name": "approved",
          "type": "bool"
        }
      ],
      "name": "ApprovalForAll",
      "type": "event"
    },
    {
      "anonymous": false,
      "inputs": [
        {
          "indexed": true,
          "internalType": "address",
          "name": "previousOwner",
          "type": "address"
        },
        {
          "indexed": true,
          "internalType": "address",
          "name": "newOwner",
          "type": "address"
        }
      ],
      "name": "OwnershipTransferred",
      "type": "event"
    },
    {
      "anonymous": false,
      "inputs": [
        {
          "indexed": true,
          "internalType": "address",
          "name": "from",
          "type": "address"
        },
        {
          "indexed": true,
          "internalType": "address",
          "name": "to",
          "type": "address"
        },
        {
          "indexed": true,
          "internalType": "uint256",
          "name": "tokenId",
          "type": "uint256"
        }
      ],
      "name": "Transfer",
      "type": "event"
    },
    {
      "inputs": [
        {
          "internalType": "address",
          "name": "to",
          "type": "address"
        },
        {
          "internalType": "uint256",
          "name": "tokenId",
          "type": "uint256"
        }
      ],
      "name": "approve",
      "outputs": [],
      "stateMutability": "nonpayable",
      "type": "function"
    },
    {
      "inputs": [
        {
          "internalType": "address",
          "name": "owner",
          "type": "address"
        }
      ],
      "name": "balanceOf",
      "outputs": [
        {
          "internalType": "uint256",
          "name": "",
          "type": "uint256"
        }
      ],
      "stateMutability": "view",
      "type": "function"
    },
    {
      "inputs": [],
      "name": "getAllCertificates",
      "outputs": [
        {
          "components": [
            {
              "internalType": "uint64",
              "name": "tokenId",
              "type": "uint64"
            },
            {
              "internalType": "address",
              "name": "owner",
              "type": "address"
            },
            {
              "internalType": "string",
              "name": "ownerName",
              "type": "string"
            },
            {
              "internalType": "string",
              "name": "title",
              "type": "string"
            },
            {
              "internalType": "string",
              "name": "ipfsHash",
              "type": "string"
            },
            {
              "internalType": "string",
              "name": "blogName",
              "type": "string"
            },
            {
              "internalType": "uint256",
              "name": "timestamp",
              "type": "uint256"
            }
          ],
          "internalType": "struct BlogCertificate.BlogCertData[]",
          "name": "",
          "type": "tuple[]"
        }
      ],
      "stateMutability": "view",
      "type": "function"
    },
    {
      "inputs": [
        {
          "internalType": "uint256",
          "name": "tokenId",
          "type": "uint256"
        }
      ],
      "name": "getApproved",
      "outputs": [
        {
          "internalType": "address",
          "name": "",
          "type": "address"
        }
      ],
      "stateMutability": "view",
      "type": "function"
    },
    {
      "inputs": [
        {
          "internalType": "uint64",
          "name": "tokenId",
          "type": "uint64"
        }
      ],
      "name": "getCertificate",
      "outputs": [
        {
          "components": [
            {
              "internalType": "uint64",
              "name": "tokenId",
              "type": "uint64"
            },
            {
              "internalType": "address",
              "name": "owner",
              "type": "address"
            },
            {
              "internalType": "string",
              "name": "ownerName",
              "type": "string"
            },
            {
              "internalType": "string",
              "name": "title",
              "type": "string"
            },
            {
              "internalType": "string",
              "name": "ipfsHash",
              "type": "string"
            },
            {
              "internalType": "string",
              "name": "blogName",
              "type": "string"
            },
            {
              "internalType": "uint256",
              "name": "timestamp",
              "type": "uint256"
            }
          ],
          "internalType": "struct BlogCertificate.BlogCertData",
          "name": "",
          "type": "tuple"
        }
      ],
      "stateMutability": "view",
      "type": "function"
    },
    {
      "inputs": [
        {
          "internalType": "address",
          "name": "owner",
          "type": "address"
        },
        {
          "internalType": "address",
          "name": "operator",
          "type": "address"
        }
      ],
      "name": "isApprovedForAll",
      "outputs": [
        {
          "internalType": "bool",
          "name": "",
          "type": "bool"
        }
      ],
      "stateMutability": "view",
      "type": "function"
    },
    {
      "inputs": [
        {
          "internalType": "uint64",
          "name": "tokenId",
          "type": "uint64"
        }
      ],
      "name": "isRevoked",
      "outputs": [
        {
          "internalType": "bool",
          "name": "",
          "type": "bool"
        }
      ],
      "stateMutability": "view",
      "type": "function"
    },
    {
      "inputs": [
        {
          "internalType": "address",
          "name": "owner",
          "type": "address"
        },
        {
          "internalType": "string",
          "name": "ownerName",
          "type": "string"
        },
        {
          "internalType": "string",
          "name": "title",
          "type": "string"
        },
        {
          "internalType": "string",
          "name": "ipfsHash",
          "type": "string"
        },
        {
          "internalType": "string",
          "name": "ipfstokenURI",
          "type": "string"
        },
        {
          "internalType": "string",
          "name": "blogName",
          "type": "string"
        }
      ],
      "name": "mintCertificate",
      "outputs": [
        {
          "internalType": "uint256",
          "name": "",
          "type": "uint256"
        }
      ],
      "stateMutability": "nonpayable",
      "type": "function"
    },
    {
      "inputs": [],
      "name": "name",
      "outputs": [
        {
          "internalType": "string",
          "name": "",
          "type": "string"
        }
      ],
      "stateMutability": "view",
      "type": "function"
    },
    {
      "inputs": [],
      "name": "owner",
      "outputs": [
        {
          "internalType": "address",
          "name": "",
          "type": "address"
        }
      ],
      "stateMutability": "view",
      "type": "function"
    },
    {
      "inputs": [
        {
          "internalType": "uint256",
          "name": "tokenId",
          "type": "uint256"
        }
      ],
      "name": "ownerOf",
      "outputs": [
        {
          "internalType": "address",
          "name": "",
          "type": "address"
        }
      ],
      "stateMutability": "view",
      "type": "function"
    },
    {
      "inputs": [],
      "name": "renounceOwnership",
      "outputs": [],
      "stateMutability": "nonpayable",
      "type": "function"
    },
    {
      "inputs": [
        {
          "internalType": "uint64",
          "name": "tokenId",
          "type": "uint64"
        }
      ],
      "name": "revokeCertificate",
      "outputs": [],
      "stateMutability": "nonpayable",
      "type": "function"
    },
    {
      "inputs": [
        {
          "internalType": "address",
          "name": "from",
          "type": "address"
        },
        {
          "internalType": "address",
          "name": "to",
          "type": "address"
        },
        {
          "internalType": "uint256",
          "name": "tokenId",
          "type": "uint256"
        }
      ],
      "name": "safeTransferFrom",
      "outputs": [],
      "stateMutability": "nonpayable",
      "type": "function"
    },
    {
      "inputs": [
        {
          "internalType": "address",
          "name": "from",
          "type": "address"
        },
        {
          "internalType": "address",
          "name": "to",
          "type": "address"
        },
        {
          "internalType": "uint256",
          "name": "tokenId",
          "type": "uint256"
        },
        {
          "internalType": "bytes",
          "name": "data",
          "type": "bytes"
        }
      ],
      "name": "safeTransferFrom",
      "outputs": [],
      "stateMutability": "nonpayable",
      "type": "function"
    },
    {
      "inputs": [
        {
          "internalType": "address",
          "name": "operator",
          "type": "address"
        },
        {
          "internalType": "bool",
          "name": "approved",
          "type": "bool"
        }
      ],
      "name": "setApprovalForAll",
      "outputs": [],
      "stateMutability": "nonpayable",
      "type": "function"
    },
    {
      "inputs": [
        {
          "internalType": "bytes4",
          "name": "interfaceId",
          "type": "bytes4"
        }
      ],
      "name": "supportsInterface",
      "outputs": [
        {
          "internalType": "bool",
          "name": "",
          "type": "bool"
        }
      ],
      "stateMutability": "view",
      "type": "function"
    },
    {
      "inputs": [],
      "name": "symbol",
      "outputs": [
        {
          "internalType": "string",
          "name": "",
          "type": "string"
        }
      ],
      "stateMutability": "view",
      "type": "function"
    },
    {
      "inputs": [
        {
          "internalType": "uint256",
          "name": "tokenId",
          "type": "uint256"
        }
      ],
      "name": "tokenURI",
      "outputs": [
        {
          "internalType": "string",
          "name": "",
          "type": "string"
        }
      ],
      "stateMutability": "view",
      "type": "function"
    },
    {
      "inputs": [],
      "name": "totalReviews",
      "outputs": [
        {
          "internalType": "uint256",
          "name": "",
          "type": "uint256"
        }
      ],
      "stateMutability": "view",
      "type": "function"
    },
    {
      "inputs": [
        {
          "internalType": "address",
          "name": "from",
          "type": "address"
        },
        {
          "internalType": "address",
          "name": "to",
          "type": "address"
        },
        {
          "internalType": "uint256",
          "name": "tokenId",
          "type": "uint256"
        }
      ],
      "name": "transferFrom",
      "outputs": [],
      "stateMutability": "nonpayable",
      "type": "function"
    },
    {
      "inputs": [
        {
          "internalType": "address",
          "name": "newOwner",
          "type": "address"
        }
      ],
      "name": "transferOwnership",
      "outputs": [],
      "stateMutability": "nonpayable",
      "type": "function"
    },
    {
      "inputs": [
        {
          "internalType": "uint256",
          "name": "tokenId",
          "type": "uint256"
        },
        {
          "internalType": "address",
          "name": "owner",
          "type": "address"
        },
        {
          "internalType": "string",
          "name": "ipfsHash",
          "type": "string"
        }
      ],
      "name": "verifyCertificate",
      "outputs": [
        {
          "internalType": "bool",
          "name": "",
          "type": "bool"
        }
      ],
      "stateMutability": "view",
      "type": "function"
    }
  ],
  "bytecode": "0x60806040523480156200001157600080fd5b506040518060400160405280600f81526020016e426c6f67436572746966696361746560881b81525060405180604001604052806003815260200162424c4360e81b815250816000908162000067919062000194565b50600162000076828262000194565b505050620000936200008d6200009960201b60201c565b6200009d565b62000260565b3390565b600780546001600160a01b038381166001600160a01b0319831681179093556040519116919082907f8be0079c531659141344cd1fd0a4f28419497f9722a3daafe3b4186f6b6457e090600090a35050565b634e487b7160e01b600052604160045260246000fd5b600181811c908216806200011a57607f821691505b6020821081036200013b57634e487b7160e01b600052602260045260246000fd5b50919050565b601f8211156200018f57600081815260208120601f850160051c810160208610156200016a5750805b601f850160051c820191505b818110156200018b5782815560010162000176565b5050505b505050565b81516001600160401b03811115620001b057620001b0620000ef565b620001c881620001c1845462000105565b8462000141565b602080601f831160018114620002005760008415620001e75750858301515b600019600386901b1c1916600185901b1785556200018b565b600085815260208120601f198616915b82811015620002315788860151825594840194600190910190840162000210565b5085821015620002505787850151600019600388901b60f8161c191681555b5050505050600190811b01905550565b612a8280620002706000396000f3fe608060405234801561001057600080fd5b506004361061014d5760003560e01c8063874ce680116100c3578063c87b56dd1161007c578063c87b56dd146102d7578063ced10bd6146102ea578063e2367890146102fd578063e985e9c514610306578063f2fde38b14610319578063f6ae476b1461032c57600080fd5b8063874ce680146102595780638d13d72d146102855780638da5cb5b1461029857806395d89b41146102a9578063a22cb465146102b1578063b88d4fde146102c457600080fd5b806321c61a001161011557806321c61a00146101e457806323b872dd146101f757806342842e0e1461020a5780636352211e1461021d57806370a0823114610230578063715018a61461025157600080fd5b806301ffc9a71461015257806306fdde031461017a578063081812fc1461018f578063095ea7b3146101ba57806313fcfe80146101cf575b600080fd5b610165610160366004612053565b61034c565b60405190151581526020015b60405180910390f35b61018261039e565b60405161017191906120c0565b6101a261019d3660046120d3565b610430565b6040516001600160a01b039091168152602001610171565b6101cd6101c8366004612108565b610457565b005b6101d7610571565b60405161017191906121d0565b6101cd6101f2366004612232565b61084e565b6101cd61020536600461225b565b610b22565b6101cd61021836600461225b565b610b53565b6101a261022b3660046120d3565b610b6e565b61024361023e366004612297565b610bce565b604051908152602001610171565b6101cd610c54565b610165610267366004612232565b6001600160401b03166000908152600b602052604090205460ff1690565b61024361029336600461235d565b610c68565b6007546001600160a01b03166101a2565b610182610de8565b6101cd6102bf36600461243d565b610df7565b6101cd6102d2366004612479565b610e06565b6101826102e53660046120d3565b610e3e565b6101656102f83660046124f4565b610e8a565b61024360095481565b61016561031436600461254a565b610fdf565b6101cd610327366004612297565b61100d565b61033f61033a366004612232565b611083565b604051610171919061257d565b60006001600160e01b031982166380ac58cd60e01b148061037d57506001600160e01b03198216635b5e139f60e01b145b8061039857506301ffc9a760e01b6001600160e01b03198316145b92915050565b6060600080546103ad90612590565b80601f01602080910402602001604051908101604052809291908181526020018280546103d990612590565b80156104265780601f106103fb57610100808354040283529160200191610426565b820191906000526020600020905b81548152906001019060200180831161040957829003601f168201915b5050505050905090565b600061043b82611446565b506000908152600460205260409020546001600160a01b031690565b600061046282610b6e565b9050806001600160a01b0316836001600160a01b0316036104d45760405162461bcd60e51b815260206004820152602160248201527f4552433732313a20617070726f76616c20746f2063757272656e74206f776e656044820152603960f91b60648201526084015b60405180910390fd5b336001600160a01b03821614806104f057506104f08133610fdf565b6105625760405162461bcd60e51b815260206004820152603e60248201527f4552433732313a20617070726f76652063616c6c6572206973206e6f7420746f60448201527f6b656e206f776e6572206e6f7220617070726f76656420666f7220616c6c000060648201526084016104cb565b61056c83836114a5565b505050565b60606008805480602002602001604051908101604052809291908181526020016000905b828210156108455760008481526020908190206040805160e0810182526006860290920180546001600160401b0381168452600160401b90046001600160a01b031693830193909352600183018054929392918401916105f490612590565b80601f016020809104026020016040519081016040528092919081815260200182805461062090612590565b801561066d5780601f106106425761010080835404028352916020019161066d565b820191906000526020600020905b81548152906001019060200180831161065057829003601f168201915b5050505050815260200160028201805461068690612590565b80601f01602080910402602001604051908101604052809291908181526020018280546106b290612590565b80156106ff5780601f106106d4576101008083540402835291602001916106ff565b820191906000526020600020905b8154815290600101906020018083116106e257829003601f168201915b5050505050815260200160038201805461071890612590565b80601f016020809104026020016040519081016040528092919081815260200182805461074490612590565b80156107915780601f1061076657610100808354040283529160200191610791565b820191906000526020600020905b81548152906001019060200180831161077457829003601f168201915b505050505081526020016004820180546107aa90612590565b80601f01602080910402602001604051908101604052809291908181526020018280546107d690612590565b80156108235780601f106107f857610100808354040283529160200191610823565b820191906000526020600020905b81548152906001019060200180831161080657829003601f168201915b5050505050815260200160058201548152505081526020019060010190610595565b50505050905090565b610856611513565b6001600160401b0381166000908152600260205260409020546001600160a01b03166108bb5760405162461bcd60e51b8152602060048201526014602482015273151bdad95b88191bd95cc81b9bdd08195e1a5cdd60621b60448201526064016104cb565b6001600160401b0381166000908152600b602052604090205460ff16156109245760405162461bcd60e51b815260206004820152601b60248201527f436572746966696361746520616c7265616479207265766f6b6564000000000060448201526064016104cb565b6001600160401b0381166000908152600b60205260408120805460ff191660011790555b600854811015610b0c57816001600160401b03166008828154811061096f5761096f6125ca565b60009182526020909120600690910201546001600160401b031603610afa576008805461099e906001906125f6565b815481106109ae576109ae6125ca565b9060005260206000209060060201600882815481106109cf576109cf6125ca565b60009182526020909120825460069092020180546001600160401b0390921667ffffffffffffffff1983168117825583546001600160e01b031990931617600160401b928390046001600160a01b0316909202919091178155600180820190610a3a90840182612657565b50600281810190610a4d90840182612657565b50600381810190610a6090840182612657565b50600481810190610a7390840182612657565b506005918201549101556008805480610a8e57610a8e612737565b60008281526020812060066000199093019283020180546001600160e01b031916815590610abf6001830182611fef565b610acd600283016000611fef565b610adb600383016000611fef565b610ae9600483016000611fef565b600582016000905550509055610b0c565b80610b048161274d565b915050610948565b50610b1f816001600160401b031661156d565b50565b610b2c3382611576565b610b485760405162461bcd60e51b81526004016104cb90612766565b61056c8383836115d5565b61056c83838360405180602001604052806000815250610e06565b6000818152600260205260408120546001600160a01b0316806103985760405162461bcd60e51b8152602060048201526018602482015277115490cdcc8c4e881a5b9d985b1a59081d1bdad95b88125160421b60448201526064016104cb565b60006001600160a01b038216610c385760405162461bcd60e51b815260206004820152602960248201527f4552433732313a2061646472657373207a65726f206973206e6f7420612076616044820152683634b21037bbb732b960b91b60648201526084016104cb565b506001600160a01b031660009081526003602052604090205490565b610c5c611513565b610c66600061177c565b565b6000610c78600a80546001019055565b6000610c83600a5490565b9050610c9888826001600160401b03166117ce565b610cab816001600160401b0316856117e8565b6040805160e0810182526001600160401b0380841682526001600160a01b03808c16602084019081529383018b8152606084018b9052608084018a905260a084018890524260c085015260088054600181018255600091909152845160069091027ff3f7a9fe364faab93b216da50a3214154f22a0a2b415b23a84c8169e8b636ee3810180549751909416600160401b026001600160e01b0319909716919094161794909417815592519192917ff3f7a9fe364faab93b216da50a3214154f22a0a2b415b23a84c8169e8b636ee490910190610d8790826127b4565b5060608201516002820190610d9c90826127b4565b5060808201516003820190610db190826127b4565b5060a08201516004820190610dc690826127b4565b5060c091909101516005909101556001600160401b0316979650505050505050565b6060600180546103ad90612590565b610e0233838361187b565b5050565b610e103383611576565b610e2c5760405162461bcd60e51b81526004016104cb90612766565b610e3884848484611949565b50505050565b6001600160401b0381166000908152600b602052604090205460609060ff1615610e8157604051806060016040528060218152602001612a2c6021913992915050565b6103988261197c565b6000838152600260205260408120546001600160a01b0316610eae57506000610fd8565b826001600160a01b0316610ec185610b6e565b6001600160a01b031614610ed757506000610fd8565b6001600160401b0384166000908152600b602052604090205460ff1615610f0057506000610fd8565b60005b600854811015610fd2578460088281548110610f2157610f216125ca565b60009182526020909120600690910201546001600160401b031603610fc05782604051602001610f51919061286d565b6040516020818303038152906040528051906020012060088281548110610f7a57610f7a6125ca565b9060005260206000209060060201600301604051602001610f9b9190612889565b6040516020818303038152906040528051906020012003610fc0576001915050610fd8565b80610fca8161274d565b915050610f03565b50600190505b9392505050565b6001600160a01b03918216600090815260056020908152604080832093909416825291909152205460ff1690565b611015611513565b6001600160a01b03811661107a5760405162461bcd60e51b815260206004820152602660248201527f4f776e61626c653a206e6577206f776e657220697320746865207a65726f206160448201526564647265737360d01b60648201526084016104cb565b610b1f8161177c565b6110d56040518060e0016040528060006001600160401b0316815260200160006001600160a01b0316815260200160608152602001606081526020016060815260200160608152602001600081525090565b60005b6008548110156113e657826001600160401b0316600882815481106110ff576110ff6125ca565b60009182526020909120600690910201546001600160401b0316036113d45760088181548110611131576111316125ca565b60009182526020918290206040805160e081018252600690930290910180546001600160401b03811684526001600160a01b03600160401b90910416938301939093526001830180549293929184019161118a90612590565b80601f01602080910402602001604051908101604052809291908181526020018280546111b690612590565b80156112035780601f106111d857610100808354040283529160200191611203565b820191906000526020600020905b8154815290600101906020018083116111e657829003601f168201915b5050505050815260200160028201805461121c90612590565b80601f016020809104026020016040519081016040528092919081815260200182805461124890612590565b80156112955780601f1061126a57610100808354040283529160200191611295565b820191906000526020600020905b81548152906001019060200180831161127857829003601f168201915b505050505081526020016003820180546112ae90612590565b80601f01602080910402602001604051908101604052809291908181526020018280546112da90612590565b80156113275780601f106112fc57610100808354040283529160200191611327565b820191906000526020600020905b81548152906001019060200180831161130a57829003601f168201915b5050505050815260200160048201805461134090612590565b80601f016020809104026020016040519081016040528092919081815260200182805461136c90612590565b80156113b95780601f1061138e576101008083540402835291602001916113b9565b820191906000526020600020905b81548152906001019060200180831161139c57829003601f168201915b50505050508152602001600582015481525050915050919050565b806113de8161274d565b9150506110d8565b5060405162461bcd60e51b815260206004820152602e60248201527f4365727469666963617465206e6f7420666f756e6420666f722074686520707260448201526d1bdd9a591959081d1bdad95b925960921b60648201526084016104cb565b6000818152600260205260409020546001600160a01b0316610b1f5760405162461bcd60e51b8152602060048201526018602482015277115490cdcc8c4e881a5b9d985b1a59081d1bdad95b88125160421b60448201526064016104cb565b600081815260046020526040902080546001600160a01b0319166001600160a01b03841690811790915581906114da82610b6e565b6001600160a01b03167f8c5be1e5ebec7d5bd14f71427d1e84f3dd0314c0f7b2291e5b200ac8c7c3b92560405160405180910390a45050565b6007546001600160a01b03163314610c665760405162461bcd60e51b815260206004820181905260248201527f4f776e61626c653a2063616c6c6572206973206e6f7420746865206f776e657260448201526064016104cb565b610b1f81611a84565b60008061158283610b6e565b9050806001600160a01b0316846001600160a01b031614806115a957506115a98185610fdf565b806115cd5750836001600160a01b03166115c284610430565b6001600160a01b0316145b949350505050565b826001600160a01b03166115e882610b6e565b6001600160a01b03161461164c5760405162461bcd60e51b815260206004820152602560248201527f4552433732313a207472616e736665722066726f6d20696e636f72726563742060448201526437bbb732b960d91b60648201526084016104cb565b6001600160a01b0382166116ae5760405162461bcd60e51b8152602060048201526024808201527f4552433732313a207472616e7366657220746f20746865207a65726f206164646044820152637265737360e01b60648201526084016104cb565b6116b9838383611ac4565b6116c46000826114a5565b6001600160a01b03831660009081526003602052604081208054600192906116ed9084906125f6565b90915550506001600160a01b038216600090815260036020526040812080546001929061171b9084906128ff565b909155505060008181526002602052604080822080546001600160a01b0319166001600160a01b0386811691821790925591518493918716917fddf252ad1be2c89b69c2b068fc378daa952ba7f163c4a11628f55a4df523b3ef91a4505050565b600780546001600160a01b038381166001600160a01b0319831681179093556040519116919082907f8be0079c531659141344cd1fd0a4f28419497f9722a3daafe3b4186f6b6457e090600090a35050565b610e02828260405180602001604052806000815250611b53565b6000828152600260205260409020546001600160a01b03166118635760405162461bcd60e51b815260206004820152602e60248201527f45524337323155524953746f726167653a2055524920736574206f66206e6f6e60448201526d32bc34b9ba32b73a103a37b5b2b760911b60648201526084016104cb565b600082815260066020526040902061056c82826127b4565b816001600160a01b0316836001600160a01b0316036118dc5760405162461bcd60e51b815260206004820152601960248201527f4552433732313a20617070726f766520746f2063616c6c65720000000000000060448201526064016104cb565b6001600160a01b03838116600081815260056020908152604080832094871680845294825291829020805460ff191686151590811790915591519182527f17307eab39ab6107e8899845ad3d59bd9653f200f220920489ca2b5937696c31910160405180910390a3505050565b6119548484846115d5565b61196084848484611b86565b610e385760405162461bcd60e51b81526004016104cb90612912565b606061198782611446565b600082815260066020526040812080546119a090612590565b80601f01602080910402602001604051908101604052809291908181526020018280546119cc90612590565b8015611a195780601f106119ee57610100808354040283529160200191611a19565b820191906000526020600020905b8154815290600101906020018083116119fc57829003601f168201915b505050505090506000611a3760408051602081019091526000815290565b90508051600003611a49575092915050565b815115611a7b578082604051602001611a63929190612964565b60405160208183030381529060405292505050919050565b6115cd84611c87565b611a8d81611cfa565b60008181526006602052604090208054611aa690612590565b159050610b1f576000818152600660205260408120610b1f91611fef565b6001600160a01b03831615801590611ae457506001600160a01b03821615155b1561056c576001600160a01b0383161561056c5760405162461bcd60e51b815260206004820152602a60248201527f53425420626c6f672063657274696669636174652063616e6e6f7420626520746044820152691c985b9cd9995c9c995960b21b60648201526084016104cb565b611b5d8383611da1565b611b6a6000848484611b86565b61056c5760405162461bcd60e51b81526004016104cb90612912565b60006001600160a01b0384163b15611c7c57604051630a85bd0160e11b81526001600160a01b0385169063150b7a0290611bca903390899088908890600401612993565b6020604051808303816000875af1925050508015611c05575060408051601f3d908101601f19168201909252611c02918101906129d0565b60015b611c62573d808015611c33576040519150601f19603f3d011682016040523d82523d6000602084013e611c38565b606091505b508051600003611c5a5760405162461bcd60e51b81526004016104cb90612912565b805181602001fd5b6001600160e01b031916630a85bd0160e11b1490506115cd565b506001949350505050565b6060611c9282611446565b6000611ca960408051602081019091526000815290565b90506000815111611cc95760405180602001604052806000815250610fd8565b80611cd384611eef565b604051602001611ce4929190612964565b6040516020818303038152906040529392505050565b6000611d0582610b6e565b9050611d1381600084611ac4565b611d1e6000836114a5565b6001600160a01b0381166000908152600360205260408120805460019290611d479084906125f6565b909155505060008281526002602052604080822080546001600160a01b0319169055518391906001600160a01b038416907fddf252ad1be2c89b69c2b068fc378daa952ba7f163c4a11628f55a4df523b3ef908390a45050565b6001600160a01b038216611df75760405162461bcd60e51b815260206004820181905260248201527f4552433732313a206d696e7420746f20746865207a65726f206164647265737360448201526064016104cb565b6000818152600260205260409020546001600160a01b031615611e5c5760405162461bcd60e51b815260206004820152601c60248201527f4552433732313a20746f6b656e20616c7265616479206d696e7465640000000060448201526064016104cb565b611e6860008383611ac4565b6001600160a01b0382166000908152600360205260408120805460019290611e919084906128ff565b909155505060008181526002602052604080822080546001600160a01b0319166001600160a01b03861690811790915590518392907fddf252ad1be2c89b69c2b068fc378daa952ba7f163c4a11628f55a4df523b3ef908290a45050565b606081600003611f165750506040805180820190915260018152600360fc1b602082015290565b8160005b8115611f405780611f2a8161274d565b9150611f399050600a83612a03565b9150611f1a565b6000816001600160401b03811115611f5a57611f5a6122b2565b6040519080825280601f01601f191660200182016040528015611f84576020820181803683370190505b5090505b84156115cd57611f996001836125f6565b9150611fa6600a86612a17565b611fb19060306128ff565b60f81b818381518110611fc657611fc66125ca565b60200101906001600160f81b031916908160001a905350611fe8600a86612a03565b9450611f88565b508054611ffb90612590565b6000825580601f1061200b575050565b601f016020900490600052602060002090810190610b1f91905b808211156120395760008155600101612025565b5090565b6001600160e01b031981168114610b1f57600080fd5b60006020828403121561206557600080fd5b8135610fd88161203d565b60005b8381101561208b578181015183820152602001612073565b50506000910152565b600081518084526120ac816020860160208601612070565b601f01601f19169290920160200192915050565b602081526000610fd86020830184612094565b6000602082840312156120e557600080fd5b5035919050565b80356001600160a01b038116811461210357600080fd5b919050565b6000806040838503121561211b57600080fd5b612124836120ec565b946020939093013593505050565b6001600160401b03815116825260018060a01b0360208201511660208301526000604082015160e0604085015261216c60e0850182612094565b9050606083015184820360608601526121858282612094565b9150506080830151848203608086015261219f8282612094565b91505060a083015184820360a08601526121b98282612094565b91505060c083015160c08501528091505092915050565b6000602080830181845280855180835260408601915060408160051b870101925083870160005b8281101561222557603f19888603018452612213858351612132565b945092850192908501906001016121f7565b5092979650505050505050565b60006020828403121561224457600080fd5b81356001600160401b0381168114610fd857600080fd5b60008060006060848603121561227057600080fd5b612279846120ec565b9250612287602085016120ec565b9150604084013590509250925092565b6000602082840312156122a957600080fd5b610fd8826120ec565b634e487b7160e01b600052604160045260246000fd5b60006001600160401b03808411156122e2576122e26122b2565b604051601f8501601f19908116603f0116810190828211818310171561230a5761230a6122b2565b8160405280935085815286868601111561232357600080fd5b858560208301376000602087830101525050509392505050565b600082601f83011261234e57600080fd5b610fd8838335602085016122c8565b60008060008060008060c0878903121561237657600080fd5b61237f876120ec565b955060208701356001600160401b038082111561239b57600080fd5b6123a78a838b0161233d565b965060408901359150808211156123bd57600080fd5b6123c98a838b0161233d565b955060608901359150808211156123df57600080fd5b6123eb8a838b0161233d565b9450608089013591508082111561240157600080fd5b61240d8a838b0161233d565b935060a089013591508082111561242357600080fd5b5061243089828a0161233d565b9150509295509295509295565b6000806040838503121561245057600080fd5b612459836120ec565b91506020830135801515811461246e57600080fd5b809150509250929050565b6000806000806080858703121561248f57600080fd5b612498856120ec565b93506124a6602086016120ec565b92506040850135915060608501356001600160401b038111156124c857600080fd5b8501601f810187136124d957600080fd5b6124e8878235602084016122c8565b91505092959194509250565b60008060006060848603121561250957600080fd5b83359250612519602085016120ec565b915060408401356001600160401b0381111561253457600080fd5b6125408682870161233d565b9150509250925092565b6000806040838503121561255d57600080fd5b612566836120ec565b9150612574602084016120ec565b90509250929050565b602081526000610fd86020830184612132565b600181811c908216806125a457607f821691505b6020821081036125c457634e487b7160e01b600052602260045260246000fd5b50919050565b634e487b7160e01b600052603260045260246000fd5b634e487b7160e01b600052601160045260246000fd5b81810381811115610398576103986125e0565b601f82111561056c57600081815260208120601f850160051c810160208610156126305750805b601f850160051c820191505b8181101561264f5782815560010161263c565b505050505050565b818103612662575050565b61266c8254612590565b6001600160401b03811115612683576126836122b2565b612697816126918454612590565b84612609565b6000601f8211600181146126cb57600083156126b35750848201545b600019600385901b1c1916600184901b178455612730565b600085815260209020601f19841690600086815260209020845b8381101561270557828601548255600195860195909101906020016126e5565b50858310156127235781850154600019600388901b60f8161c191681555b50505060018360011b0184555b5050505050565b634e487b7160e01b600052603160045260246000fd5b60006001820161275f5761275f6125e0565b5060010190565b6020808252602e908201527f4552433732313a2063616c6c6572206973206e6f7420746f6b656e206f776e6560408201526d1c881b9bdc88185c1c1c9bdd995960921b606082015260800190565b81516001600160401b038111156127cd576127cd6122b2565b6127db816126918454612590565b602080601f83116001811461281057600084156127f85750858301515b600019600386901b1c1916600185901b17855561264f565b600085815260208120601f198616915b8281101561283f57888601518255948401946001909101908401612820565b508582101561285d5787850151600019600388901b60f8161c191681555b5050505050600190811b01905550565b6000825161287f818460208701612070565b9190910192915050565b600080835461289781612590565b600182811680156128af57600181146128c4576128f3565b60ff19841687528215158302870194506128f3565b8760005260208060002060005b858110156128ea5781548a8201529084019082016128d1565b50505082870194505b50929695505050505050565b80820180821115610398576103986125e0565b60208082526032908201527f4552433732313a207472616e7366657220746f206e6f6e20455243373231526560408201527131b2b4bb32b91034b6b83632b6b2b73a32b960711b606082015260800190565b60008351612976818460208801612070565b83519083019061298a818360208801612070565b01949350505050565b6001600160a01b03858116825284166020820152604081018390526080606082018190526000906129c690830184612094565b9695505050505050565b6000602082840312156129e257600080fd5b8151610fd88161203d565b634e487b7160e01b600052601260045260246000fd5b600082612a1257612a126129ed565b500490565b600082612a2657612a266129ed565b50069056fe5468697320636572746966696361746520686173206265656e207265766f6b6564a2646970667358221220bf4c34005225d300653c6f48cf112c7354d586606f6460f12c584b0fcd5c65f764736f6c63430008140033",
  "linkReferences": {},
  "deployedLinkReferences": {}
}