{
  "_format": "hh-sol-artifact-1",
  "contractName": "BlogCertificate",
  "sourceName": "contracts/BlogCert.sol",
  "abi": [
    {
      "inputs": [],
      "stateMutability": "nonpayable",
      "type": "constructor"
    },
    {
      "anonymous": false,
      "inputs": [
        {
          "indexed": true,
          "internalType": "address",
          "name": "owner",
          "type": "address"
        },
        {
          "indexed": true,
          "internalType": "address",
          "name": "approved",
          "type": "address"
        },
        {
          "indexed": true,
          "internalType": "uint256",
          "name": "tokenId",
          "type": "uint256"
        }
      ],
      "name": "Approval",
      "type": "event"
    },
    {
      "anonymous": false,
      "inputs": [
        {
          "indexed": true,
          "internalType": "address",
          "name": "owner",
          "type": "address"
        },
        {
          "indexed": true,
          "internalType": "address",
          "name": "operator",
          "type": "address"
        },
        {
          "indexed": false,
          "internalType": "bool",
          "name": "approved",
          "type": "bool"
        }
      ],
      "name": "ApprovalForAll",
      "type": "event"
    },
    {
      "anonymous": false,
      "inputs": [
        {
          "indexed": true,
          "internalType": "address",
          "name": "previousOwner",
          "type": "address"
        },
        {
          "indexed": true,
          "internalType": "address",
          "name": "newOwner",
          "type": "address"
        }
      ],
      "name": "OwnershipTransferred",
      "type": "event"
    },
    {
      "anonymous": false,
      "inputs": [
        {
          "indexed": true,
          "internalType": "address",
          "name": "from",
          "type": "address"
        },
        {
          "indexed": true,
          "internalType": "address",
          "name": "to",
          "type": "address"
        },
        {
          "indexed": true,
          "internalType": "uint256",
          "name": "tokenId",
          "type": "uint256"
        }
      ],
      "name": "Transfer",
      "type": "event"
    },
    {
      "inputs": [
        {
          "internalType": "address",
          "name": "to",
          "type": "address"
        },
        {
          "internalType": "uint256",
          "name": "tokenId",
          "type": "uint256"
        }
      ],
      "name": "approve",
      "outputs": [],
      "stateMutability": "nonpayable",
      "type": "function"
    },
    {
      "inputs": [
        {
          "internalType": "address",
          "name": "owner",
          "type": "address"
        }
      ],
      "name": "balanceOf",
      "outputs": [
        {
          "internalType": "uint256",
          "name": "",
          "type": "uint256"
        }
      ],
      "stateMutability": "view",
      "type": "function"
    },
    {
      "inputs": [],
      "name": "getAllCertificates",
      "outputs": [
        {
          "components": [
            {
              "internalType": "uint64",
              "name": "tokenId",
              "type": "uint64"
            },
            {
              "internalType": "address",
              "name": "owner",
              "type": "address"
            },
            {
              "internalType": "string",
              "name": "ipfsHash",
              "type": "string"
            },
            {
              "internalType": "uint256",
              "name": "timestamp",
              "type": "uint256"
            }
          ],
          "internalType": "struct BlogCertificate.BlogCertData[]",
          "name": "",
          "type": "tuple[]"
        }
      ],
      "stateMutability": "view",
      "type": "function"
    },
    {
      "inputs": [
        {
          "internalType": "uint256",
          "name": "tokenId",
          "type": "uint256"
        }
      ],
      "name": "getApproved",
      "outputs": [
        {
          "internalType": "address",
          "name": "",
          "type": "address"
        }
      ],
      "stateMutability": "view",
      "type": "function"
    },
    {
      "inputs": [
        {
          "internalType": "uint64",
          "name": "tokenId",
          "type": "uint64"
        }
      ],
      "name": "getCertificate",
      "outputs": [
        {
          "components": [
            {
              "internalType": "uint64",
              "name": "tokenId",
              "type": "uint64"
            },
            {
              "internalType": "address",
              "name": "owner",
              "type": "address"
            },
            {
              "internalType": "string",
              "name": "ipfsHash",
              "type": "string"
            },
            {
              "internalType": "uint256",
              "name": "timestamp",
              "type": "uint256"
            }
          ],
          "internalType": "struct BlogCertificate.BlogCertData",
          "name": "",
          "type": "tuple"
        }
      ],
      "stateMutability": "view",
      "type": "function"
    },
    {
      "inputs": [
        {
          "internalType": "address",
          "name": "owner",
          "type": "address"
        }
      ],
      "name": "getCertificatesByOwner",
      "outputs": [
        {
          "components": [
            {
              "internalType": "uint64",
              "name": "tokenId",
              "type": "uint64"
            },
            {
              "internalType": "address",
              "name": "owner",
              "type": "address"
            },
            {
              "internalType": "string",
              "name": "ipfsHash",
              "type": "string"
            },
            {
              "internalType": "uint256",
              "name": "timestamp",
              "type": "uint256"
            }
          ],
          "internalType": "struct BlogCertificate.BlogCertData[]",
          "name": "",
          "type": "tuple[]"
        }
      ],
      "stateMutability": "view",
      "type": "function"
    },
    {
      "inputs": [
        {
          "internalType": "address",
          "name": "owner",
          "type": "address"
        },
        {
          "internalType": "address",
          "name": "operator",
          "type": "address"
        }
      ],
      "name": "isApprovedForAll",
      "outputs": [
        {
          "internalType": "bool",
          "name": "",
          "type": "bool"
        }
      ],
      "stateMutability": "view",
      "type": "function"
    },
    {
      "inputs": [
        {
          "internalType": "uint64",
          "name": "tokenId",
          "type": "uint64"
        }
      ],
      "name": "isRevoked",
      "outputs": [
        {
          "internalType": "bool",
          "name": "",
          "type": "bool"
        }
      ],
      "stateMutability": "view",
      "type": "function"
    },
    {
      "inputs": [
        {
          "internalType": "address",
          "name": "owner",
          "type": "address"
        },
        {
          "internalType": "string",
          "name": "ipfstokenURI",
          "type": "string"
        }
      ],
      "name": "mintCertificate",
      "outputs": [
        {
          "internalType": "uint256",
          "name": "",
          "type": "uint256"
        }
      ],
      "stateMutability": "nonpayable",
      "type": "function"
    },
    {
      "inputs": [],
      "name": "name",
      "outputs": [
        {
          "internalType": "string",
          "name": "",
          "type": "string"
        }
      ],
      "stateMutability": "view",
      "type": "function"
    },
    {
      "inputs": [],
      "name": "owner",
      "outputs": [
        {
          "internalType": "address",
          "name": "",
          "type": "address"
        }
      ],
      "stateMutability": "view",
      "type": "function"
    },
    {
      "inputs": [
        {
          "internalType": "uint256",
          "name": "tokenId",
          "type": "uint256"
        }
      ],
      "name": "ownerOf",
      "outputs": [
        {
          "internalType": "address",
          "name": "",
          "type": "address"
        }
      ],
      "stateMutability": "view",
      "type": "function"
    },
    {
      "inputs": [],
      "name": "renounceOwnership",
      "outputs": [],
      "stateMutability": "nonpayable",
      "type": "function"
    },
    {
      "inputs": [
        {
          "internalType": "uint64",
          "name": "tokenId",
          "type": "uint64"
        }
      ],
      "name": "revokeCertificate",
      "outputs": [],
      "stateMutability": "nonpayable",
      "type": "function"
    },
    {
      "inputs": [
        {
          "internalType": "address",
          "name": "from",
          "type": "address"
        },
        {
          "internalType": "address",
          "name": "to",
          "type": "address"
        },
        {
          "internalType": "uint256",
          "name": "tokenId",
          "type": "uint256"
        }
      ],
      "name": "safeTransferFrom",
      "outputs": [],
      "stateMutability": "nonpayable",
      "type": "function"
    },
    {
      "inputs": [
        {
          "internalType": "address",
          "name": "from",
          "type": "address"
        },
        {
          "internalType": "address",
          "name": "to",
          "type": "address"
        },
        {
          "internalType": "uint256",
          "name": "tokenId",
          "type": "uint256"
        },
        {
          "internalType": "bytes",
          "name": "data",
          "type": "bytes"
        }
      ],
      "name": "safeTransferFrom",
      "outputs": [],
      "stateMutability": "nonpayable",
      "type": "function"
    },
    {
      "inputs": [
        {
          "internalType": "address",
          "name": "operator",
          "type": "address"
        },
        {
          "internalType": "bool",
          "name": "approved",
          "type": "bool"
        }
      ],
      "name": "setApprovalForAll",
      "outputs": [],
      "stateMutability": "nonpayable",
      "type": "function"
    },
    {
      "inputs": [
        {
          "internalType": "bytes4",
          "name": "interfaceId",
          "type": "bytes4"
        }
      ],
      "name": "supportsInterface",
      "outputs": [
        {
          "internalType": "bool",
          "name": "",
          "type": "bool"
        }
      ],
      "stateMutability": "view",
      "type": "function"
    },
    {
      "inputs": [],
      "name": "symbol",
      "outputs": [
        {
          "internalType": "string",
          "name": "",
          "type": "string"
        }
      ],
      "stateMutability": "view",
      "type": "function"
    },
    {
      "inputs": [
        {
          "internalType": "uint256",
          "name": "tokenId",
          "type": "uint256"
        }
      ],
      "name": "tokenURI",
      "outputs": [
        {
          "internalType": "string",
          "name": "",
          "type": "string"
        }
      ],
      "stateMutability": "view",
      "type": "function"
    },
    {
      "inputs": [],
      "name": "totalReviews",
      "outputs": [
        {
          "internalType": "uint256",
          "name": "",
          "type": "uint256"
        }
      ],
      "stateMutability": "view",
      "type": "function"
    },
    {
      "inputs": [
        {
          "internalType": "address",
          "name": "from",
          "type": "address"
        },
        {
          "internalType": "address",
          "name": "to",
          "type": "address"
        },
        {
          "internalType": "uint256",
          "name": "tokenId",
          "type": "uint256"
        }
      ],
      "name": "transferFrom",
      "outputs": [],
      "stateMutability": "nonpayable",
      "type": "function"
    },
    {
      "inputs": [
        {
          "internalType": "address",
          "name": "newOwner",
          "type": "address"
        }
      ],
      "name": "transferOwnership",
      "outputs": [],
      "stateMutability": "nonpayable",
      "type": "function"
    },
    {
      "inputs": [
        {
          "internalType": "uint256",
          "name": "tokenId",
          "type": "uint256"
        },
        {
          "internalType": "string",
          "name": "ipfsHash",
          "type": "string"
        }
      ],
      "name": "verifyCertificate",
      "outputs": [
        {
          "internalType": "bool",
          "name": "",
          "type": "bool"
        }
      ],
      "stateMutability": "view",
      "type": "function"
    }
  ],
  "bytecode": "0x60806040523480156200001157600080fd5b506040518060400160405280600f81526020016e426c6f67436572746966696361746560881b81525060405180604001604052806003815260200162424c4360e81b815250816000908162000067919062000194565b50600162000076828262000194565b505050620000936200008d6200009960201b60201c565b6200009d565b62000260565b3390565b600780546001600160a01b038381166001600160a01b0319831681179093556040519116919082907f8be0079c531659141344cd1fd0a4f28419497f9722a3daafe3b4186f6b6457e090600090a35050565b634e487b7160e01b600052604160045260246000fd5b600181811c908216806200011a57607f821691505b6020821081036200013b57634e487b7160e01b600052602260045260246000fd5b50919050565b601f8211156200018f57600081815260208120601f850160051c810160208610156200016a5750805b601f850160051c820191505b818110156200018b5782815560010162000176565b5050505b505050565b81516001600160401b03811115620001b057620001b0620000ef565b620001c881620001c1845462000105565b8462000141565b602080601f831160018114620002005760008415620001e75750858301515b600019600386901b1c1916600185901b1785556200018b565b600085815260208120601f198616915b82811015620002315788860151825594840194600190910190840162000210565b5085821015620002505787850151600019600388901b60f8161c191681555b5050505050600190811b01905550565b6127b580620002706000396000f3fe608060405234801561001057600080fd5b50600436106101585760003560e01c806370a08231116100c3578063b88d4fde1161007c578063b88d4fde146102f5578063c87b56dd14610308578063e23678901461031b578063e985e9c514610324578063f2fde38b14610360578063f6ae476b1461037357600080fd5b806370a0823114610282578063715018a614610295578063874ce6801461029d5780638da5cb5b146102c957806395d89b41146102da578063a22cb465146102e257600080fd5b806313fcfe801161011557806313fcfe801461020e5780631db738401461022357806321c61a001461023657806323b872dd1461024957806342842e0e1461025c5780636352211e1461026f57600080fd5b806301ffc9a71461015d57806306fdde03146101855780630712249f1461019a578063081812fc146101bb57806308d5fd12146101e6578063095ea7b3146101f9575b600080fd5b61017061016b366004611e8f565b610393565b60405190151581526020015b60405180910390f35b61018d6103e5565b60405161017c9190611efc565b6101ad6101a8366004611fd6565b610477565b60405190815260200161017c565b6101ce6101c9366004612023565b61059f565b6040516001600160a01b03909116815260200161017c565b6101706101f436600461203c565b6105c6565b61020c61020736600461206c565b6106f9565b005b610216610813565b60405161017c91906120e4565b610216610231366004612146565b61093a565b61020c610244366004612161565b610b95565b61020c61025736600461218a565b610e06565b61020c61026a36600461218a565b610e37565b6101ce61027d366004612023565b610e52565b6101ad610290366004612146565b610eb2565b61020c610f38565b6101706102ab366004612161565b6001600160401b03166000908152600b602052604090205460ff1690565b6007546001600160a01b03166101ce565b61018d610f4c565b61020c6102f03660046121c6565b610f5b565b61020c610303366004612202565b610f6a565b61018d610316366004612023565b610fa2565b6101ad60095481565b61017061033236600461227d565b6001600160a01b03918216600090815260056020908152604080832093909416825291909152205460ff1690565b61020c61036e366004612146565b610fee565b610386610381366004612161565b611064565b60405161017c91906122b0565b60006001600160e01b031982166380ac58cd60e01b14806103c457506001600160e01b03198216635b5e139f60e01b145b806103df57506301ffc9a760e01b6001600160e01b03198316145b92915050565b6060600080546103f4906122c3565b80601f0160208091040260200160405190810160405280929190818152602001828054610420906122c3565b801561046d5780601f106104425761010080835404028352916020019161046d565b820191906000526020600020905b81548152906001019060200180831161045057829003601f168201915b5050505050905090565b6000610487600a80546001019055565b6000610492600a5490565b90506104a784826001600160401b0316611227565b6104ba816001600160401b031684611241565b604080516080810182526001600160401b0380841682526001600160a01b038088166020840190815293830187815242606085015260088054600181018255600091909152845160039091027ff3f7a9fe364faab93b216da50a3214154f22a0a2b415b23a84c8169e8b636ee3810180549751909416600160401b026001600160e01b0319909716919094161794909417815592519192917ff3f7a9fe364faab93b216da50a3214154f22a0a2b415b23a84c8169e8b636ee490910190610581908261234b565b50606091909101516002909101556001600160401b03169392505050565b60006105aa826112d4565b506000908152600460205260409020546001600160a01b031690565b6000828152600260205260408120546001600160a01b03166105ea575060006103df565b6001600160401b0383166000908152600b602052604090205460ff1615610613575060006103df565b60005b6008548110156106ef5783600882815481106106345761063461240a565b60009182526020909120600390910201546001600160401b0316036106dd57826040516020016106649190612420565b604051602081830303815290604052805190602001206008828154811061068d5761068d61240a565b90600052602060002090600302016001016040516020016106ae919061243c565b60405160208183030381529060405280519060200120036106d35760019150506103df565b60009150506103df565b806106e7816124c8565b915050610616565b5060009392505050565b600061070482610e52565b9050806001600160a01b0316836001600160a01b0316036107765760405162461bcd60e51b815260206004820152602160248201527f4552433732313a20617070726f76616c20746f2063757272656e74206f776e656044820152603960f91b60648201526084015b60405180910390fd5b336001600160a01b038216148061079257506107928133610332565b6108045760405162461bcd60e51b815260206004820152603e60248201527f4552433732313a20617070726f76652063616c6c6572206973206e6f7420746f60448201527f6b656e206f776e6572206e6f7220617070726f76656420666f7220616c6c0000606482015260840161076d565b61080e8383611333565b505050565b60606008805480602002602001604051908101604052809291908181526020016000905b82821015610931576000848152602090819020604080516080810182526003860290920180546001600160401b0381168452600160401b90046001600160a01b03169383019390935260018301805492939291840191610896906122c3565b80601f01602080910402602001604051908101604052809291908181526020018280546108c2906122c3565b801561090f5780601f106108e45761010080835404028352916020019161090f565b820191906000526020600020905b8154815290600101906020018083116108f257829003601f168201915b5050505050815260200160028201548152505081526020019060010190610837565b50505050905090565b60606000805b6008548110156109ad57836001600160a01b0316600882815481106109675761096761240a565b6000918252602090912060039091020154600160401b90046001600160a01b03160361099b5781610997816124c8565b9250505b806109a5816124c8565b915050610940565b506000816001600160401b038111156109c8576109c8611f2b565b604051908082528060200260200182016040528015610a0157816020015b6109ee611df1565b8152602001906001900390816109e65790505b5090506000805b600854811015610b8b57856001600160a01b031660088281548110610a2f57610a2f61240a565b6000918252602090912060039091020154600160401b90046001600160a01b031603610b795760088181548110610a6857610a6861240a565b600091825260209182902060408051608081018252600390930290910180546001600160401b03811684526001600160a01b03600160401b909104169383019390935260018301805492939291840191610ac1906122c3565b80601f0160208091040260200160405190810160405280929190818152602001828054610aed906122c3565b8015610b3a5780601f10610b0f57610100808354040283529160200191610b3a565b820191906000526020600020905b815481529060010190602001808311610b1d57829003601f168201915b50505050508152602001600282015481525050838381518110610b5f57610b5f61240a565b60200260200101819052508180610b75906124c8565b9250505b80610b83816124c8565b915050610a08565b5090949350505050565b610b9d6113a1565b6001600160401b0381166000908152600260205260409020546001600160a01b0316610c025760405162461bcd60e51b8152602060048201526014602482015273151bdad95b88191bd95cc81b9bdd08195e1a5cdd60621b604482015260640161076d565b6001600160401b0381166000908152600b602052604090205460ff1615610c6b5760405162461bcd60e51b815260206004820152601b60248201527f436572746966696361746520616c7265616479207265766f6b65640000000000604482015260640161076d565b6001600160401b0381166000908152600b60205260408120805460ff191660011790555b600854811015610df057816001600160401b031660088281548110610cb657610cb661240a565b60009182526020909120600390910201546001600160401b031603610dde5760088054610ce5906001906124e1565b81548110610cf557610cf561240a565b906000526020600020906003020160088281548110610d1657610d1661240a565b60009182526020909120825460039092020180546001600160401b0390921667ffffffffffffffff1983168117825583546001600160e01b031990931617600160401b928390046001600160a01b0316909202919091178155600180820190610d81908401826124f4565b506002918201549101556008805480610d9c57610d9c6125ce565b60008281526020812060036000199093019283020180546001600160e01b031916815590610dcd6001830182611e2b565b600282016000905550509055610df0565b80610de8816124c8565b915050610c8f565b50610e03816001600160401b03166113fb565b50565b610e103382611404565b610e2c5760405162461bcd60e51b815260040161076d906125e4565b61080e838383611483565b61080e83838360405180602001604052806000815250610f6a565b6000818152600260205260408120546001600160a01b0316806103df5760405162461bcd60e51b8152602060048201526018602482015277115490cdcc8c4e881a5b9d985b1a59081d1bdad95b88125160421b604482015260640161076d565b60006001600160a01b038216610f1c5760405162461bcd60e51b815260206004820152602960248201527f4552433732313a2061646472657373207a65726f206973206e6f7420612076616044820152683634b21037bbb732b960b91b606482015260840161076d565b506001600160a01b031660009081526003602052604090205490565b610f406113a1565b610f4a600061162a565b565b6060600180546103f4906122c3565b610f6633838361167c565b5050565b610f743383611404565b610f905760405162461bcd60e51b815260040161076d906125e4565b610f9c8484848461174a565b50505050565b6001600160401b0381166000908152600b602052604090205460609060ff1615610fe55760405180606001604052806021815260200161275f6021913992915050565b6103df8261177d565b610ff66113a1565b6001600160a01b03811661105b5760405162461bcd60e51b815260206004820152602660248201527f4f776e61626c653a206e6577206f776e657220697320746865207a65726f206160448201526564647265737360d01b606482015260840161076d565b610e038161162a565b61106c611df1565b60005b6008548110156111c757826001600160401b0316600882815481106110965761109661240a565b60009182526020909120600390910201546001600160401b0316036111b557600881815481106110c8576110c861240a565b600091825260209182902060408051608081018252600390930290910180546001600160401b03811684526001600160a01b03600160401b909104169383019390935260018301805492939291840191611121906122c3565b80601f016020809104026020016040519081016040528092919081815260200182805461114d906122c3565b801561119a5780601f1061116f5761010080835404028352916020019161119a565b820191906000526020600020905b81548152906001019060200180831161117d57829003601f168201915b50505050508152602001600282015481525050915050919050565b806111bf816124c8565b91505061106f565b5060405162461bcd60e51b815260206004820152602e60248201527f4365727469666963617465206e6f7420666f756e6420666f722074686520707260448201526d1bdd9a591959081d1bdad95b925960921b606482015260840161076d565b610f66828260405180602001604052806000815250611885565b6000828152600260205260409020546001600160a01b03166112bc5760405162461bcd60e51b815260206004820152602e60248201527f45524337323155524953746f726167653a2055524920736574206f66206e6f6e60448201526d32bc34b9ba32b73a103a37b5b2b760911b606482015260840161076d565b600082815260066020526040902061080e828261234b565b6000818152600260205260409020546001600160a01b0316610e035760405162461bcd60e51b8152602060048201526018602482015277115490cdcc8c4e881a5b9d985b1a59081d1bdad95b88125160421b604482015260640161076d565b600081815260046020526040902080546001600160a01b0319166001600160a01b038416908117909155819061136882610e52565b6001600160a01b03167f8c5be1e5ebec7d5bd14f71427d1e84f3dd0314c0f7b2291e5b200ac8c7c3b92560405160405180910390a45050565b6007546001600160a01b03163314610f4a5760405162461bcd60e51b815260206004820181905260248201527f4f776e61626c653a2063616c6c6572206973206e6f7420746865206f776e6572604482015260640161076d565b610e03816118b8565b60008061141083610e52565b9050806001600160a01b0316846001600160a01b0316148061145757506001600160a01b0380821660009081526005602090815260408083209388168352929052205460ff165b8061147b5750836001600160a01b03166114708461059f565b6001600160a01b0316145b949350505050565b826001600160a01b031661149682610e52565b6001600160a01b0316146114fa5760405162461bcd60e51b815260206004820152602560248201527f4552433732313a207472616e736665722066726f6d20696e636f72726563742060448201526437bbb732b960d91b606482015260840161076d565b6001600160a01b03821661155c5760405162461bcd60e51b8152602060048201526024808201527f4552433732313a207472616e7366657220746f20746865207a65726f206164646044820152637265737360e01b606482015260840161076d565b6115678383836118f8565b611572600082611333565b6001600160a01b038316600090815260036020526040812080546001929061159b9084906124e1565b90915550506001600160a01b03821660009081526003602052604081208054600192906115c9908490612632565b909155505060008181526002602052604080822080546001600160a01b0319166001600160a01b0386811691821790925591518493918716917fddf252ad1be2c89b69c2b068fc378daa952ba7f163c4a11628f55a4df523b3ef91a4505050565b600780546001600160a01b038381166001600160a01b0319831681179093556040519116919082907f8be0079c531659141344cd1fd0a4f28419497f9722a3daafe3b4186f6b6457e090600090a35050565b816001600160a01b0316836001600160a01b0316036116dd5760405162461bcd60e51b815260206004820152601960248201527f4552433732313a20617070726f766520746f2063616c6c657200000000000000604482015260640161076d565b6001600160a01b03838116600081815260056020908152604080832094871680845294825291829020805460ff191686151590811790915591519182527f17307eab39ab6107e8899845ad3d59bd9653f200f220920489ca2b5937696c31910160405180910390a3505050565b611755848484611483565b61176184848484611987565b610f9c5760405162461bcd60e51b815260040161076d90612645565b6060611788826112d4565b600082815260066020526040812080546117a1906122c3565b80601f01602080910402602001604051908101604052809291908181526020018280546117cd906122c3565b801561181a5780601f106117ef5761010080835404028352916020019161181a565b820191906000526020600020905b8154815290600101906020018083116117fd57829003601f168201915b50505050509050600061183860408051602081019091526000815290565b9050805160000361184a575092915050565b81511561187c578082604051602001611864929190612697565b60405160208183030381529060405292505050919050565b61147b84611a88565b61188f8383611afc565b61189c6000848484611987565b61080e5760405162461bcd60e51b815260040161076d90612645565b6118c181611c4a565b600081815260066020526040902080546118da906122c3565b159050610e03576000818152600660205260408120610e0391611e2b565b6001600160a01b0383161580159061191857506001600160a01b03821615155b1561080e576001600160a01b0383161561080e5760405162461bcd60e51b815260206004820152602a60248201527f53425420626c6f672063657274696669636174652063616e6e6f7420626520746044820152691c985b9cd9995c9c995960b21b606482015260840161076d565b60006001600160a01b0384163b15611a7d57604051630a85bd0160e11b81526001600160a01b0385169063150b7a02906119cb9033908990889088906004016126c6565b6020604051808303816000875af1925050508015611a06575060408051601f3d908101601f19168201909252611a0391810190612703565b60015b611a63573d808015611a34576040519150601f19603f3d011682016040523d82523d6000602084013e611a39565b606091505b508051600003611a5b5760405162461bcd60e51b815260040161076d90612645565b805181602001fd5b6001600160e01b031916630a85bd0160e11b14905061147b565b506001949350505050565b6060611a93826112d4565b6000611aaa60408051602081019091526000815290565b90506000815111611aca5760405180602001604052806000815250611af5565b80611ad484611cf1565b604051602001611ae5929190612697565b6040516020818303038152906040525b9392505050565b6001600160a01b038216611b525760405162461bcd60e51b815260206004820181905260248201527f4552433732313a206d696e7420746f20746865207a65726f2061646472657373604482015260640161076d565b6000818152600260205260409020546001600160a01b031615611bb75760405162461bcd60e51b815260206004820152601c60248201527f4552433732313a20746f6b656e20616c7265616479206d696e74656400000000604482015260640161076d565b611bc3600083836118f8565b6001600160a01b0382166000908152600360205260408120805460019290611bec908490612632565b909155505060008181526002602052604080822080546001600160a01b0319166001600160a01b03861690811790915590518392907fddf252ad1be2c89b69c2b068fc378daa952ba7f163c4a11628f55a4df523b3ef908290a45050565b6000611c5582610e52565b9050611c63816000846118f8565b611c6e600083611333565b6001600160a01b0381166000908152600360205260408120805460019290611c979084906124e1565b909155505060008281526002602052604080822080546001600160a01b0319169055518391906001600160a01b038416907fddf252ad1be2c89b69c2b068fc378daa952ba7f163c4a11628f55a4df523b3ef908390a45050565b606081600003611d185750506040805180820190915260018152600360fc1b602082015290565b8160005b8115611d425780611d2c816124c8565b9150611d3b9050600a83612736565b9150611d1c565b6000816001600160401b03811115611d5c57611d5c611f2b565b6040519080825280601f01601f191660200182016040528015611d86576020820181803683370190505b5090505b841561147b57611d9b6001836124e1565b9150611da8600a8661274a565b611db3906030612632565b60f81b818381518110611dc857611dc861240a565b60200101906001600160f81b031916908160001a905350611dea600a86612736565b9450611d8a565b604051806080016040528060006001600160401b0316815260200160006001600160a01b0316815260200160608152602001600081525090565b508054611e37906122c3565b6000825580601f10611e47575050565b601f016020900490600052602060002090810190610e0391905b80821115611e755760008155600101611e61565b5090565b6001600160e01b031981168114610e0357600080fd5b600060208284031215611ea157600080fd5b8135611af581611e79565b60005b83811015611ec7578181015183820152602001611eaf565b50506000910152565b60008151808452611ee8816020860160208601611eac565b601f01601f19169290920160200192915050565b602081526000611af56020830184611ed0565b80356001600160a01b0381168114611f2657600080fd5b919050565b634e487b7160e01b600052604160045260246000fd5b60006001600160401b0380841115611f5b57611f5b611f2b565b604051601f8501601f19908116603f01168101908282118183101715611f8357611f83611f2b565b81604052809350858152868686011115611f9c57600080fd5b858560208301376000602087830101525050509392505050565b600082601f830112611fc757600080fd5b611af583833560208501611f41565b60008060408385031215611fe957600080fd5b611ff283611f0f565b915060208301356001600160401b0381111561200d57600080fd5b61201985828601611fb6565b9150509250929050565b60006020828403121561203557600080fd5b5035919050565b6000806040838503121561204f57600080fd5b8235915060208301356001600160401b0381111561200d57600080fd5b6000806040838503121561207f57600080fd5b61208883611f0f565b946020939093013593505050565b6001600160401b03815116825260018060a01b03602082015116602083015260006040820151608060408501526120d06080850182611ed0565b606093840151949093019390935250919050565b6000602080830181845280855180835260408601915060408160051b870101925083870160005b8281101561213957603f19888603018452612127858351612096565b9450928501929085019060010161210b565b5092979650505050505050565b60006020828403121561215857600080fd5b611af582611f0f565b60006020828403121561217357600080fd5b81356001600160401b0381168114611af557600080fd5b60008060006060848603121561219f57600080fd5b6121a884611f0f565b92506121b660208501611f0f565b9150604084013590509250925092565b600080604083850312156121d957600080fd5b6121e283611f0f565b9150602083013580151581146121f757600080fd5b809150509250929050565b6000806000806080858703121561221857600080fd5b61222185611f0f565b935061222f60208601611f0f565b92506040850135915060608501356001600160401b0381111561225157600080fd5b8501601f8101871361226257600080fd5b61227187823560208401611f41565b91505092959194509250565b6000806040838503121561229057600080fd5b61229983611f0f565b91506122a760208401611f0f565b90509250929050565b602081526000611af56020830184612096565b600181811c908216806122d757607f821691505b6020821081036122f757634e487b7160e01b600052602260045260246000fd5b50919050565b601f82111561080e57600081815260208120601f850160051c810160208610156123245750805b601f850160051c820191505b8181101561234357828155600101612330565b505050505050565b81516001600160401b0381111561236457612364611f2b565b6123788161237284546122c3565b846122fd565b602080601f8311600181146123ad57600084156123955750858301515b600019600386901b1c1916600185901b178555612343565b600085815260208120601f198616915b828110156123dc578886015182559484019460019091019084016123bd565b50858210156123fa5787850151600019600388901b60f8161c191681555b5050505050600190811b01905550565b634e487b7160e01b600052603260045260246000fd5b60008251612432818460208701611eac565b9190910192915050565b600080835461244a816122c3565b600182811680156124625760018114612477576124a6565b60ff19841687528215158302870194506124a6565b8760005260208060002060005b8581101561249d5781548a820152908401908201612484565b50505082870194505b50929695505050505050565b634e487b7160e01b600052601160045260246000fd5b6000600182016124da576124da6124b2565b5060010190565b818103818111156103df576103df6124b2565b8181036124ff575050565b61250982546122c3565b6001600160401b0381111561252057612520611f2b565b61252e8161237284546122c3565b6000601f821160018114612562576000831561254a5750848201545b600019600385901b1c1916600184901b1784556125c7565b600085815260209020601f19841690600086815260209020845b8381101561259c578286015482556001958601959091019060200161257c565b50858310156125ba5781850154600019600388901b60f8161c191681555b50505060018360011b0184555b5050505050565b634e487b7160e01b600052603160045260246000fd5b6020808252602e908201527f4552433732313a2063616c6c6572206973206e6f7420746f6b656e206f776e6560408201526d1c881b9bdc88185c1c1c9bdd995960921b606082015260800190565b808201808211156103df576103df6124b2565b60208082526032908201527f4552433732313a207472616e7366657220746f206e6f6e20455243373231526560408201527131b2b4bb32b91034b6b83632b6b2b73a32b960711b606082015260800190565b600083516126a9818460208801611eac565b8351908301906126bd818360208801611eac565b01949350505050565b6001600160a01b03858116825284166020820152604081018390526080606082018190526000906126f990830184611ed0565b9695505050505050565b60006020828403121561271557600080fd5b8151611af581611e79565b634e487b7160e01b600052601260045260246000fd5b60008261274557612745612720565b500490565b60008261275957612759612720565b50069056fe5468697320636572746966696361746520686173206265656e207265766f6b6564a2646970667358221220715b952845990dc4edece7292eb38bb5c2d4d28291eda6f068381f468fb8fc5164736f6c63430008140033",
  "linkReferences": {},
  "deployedLinkReferences": {}
}