{
  "_format": "hh-sol-artifact-1",
  "contractName": "BlogCertificate",
  "sourceName": "contracts/BlogCert.sol",
  "abi": [
    {
      "inputs": [],
      "stateMutability": "nonpayable",
      "type": "constructor"
    },
    {
      "anonymous": false,
      "inputs": [
        {
          "indexed": true,
          "internalType": "address",
          "name": "owner",
          "type": "address"
        },
        {
          "indexed": true,
          "internalType": "address",
          "name": "approved",
          "type": "address"
        },
        {
          "indexed": true,
          "internalType": "uint256",
          "name": "tokenId",
          "type": "uint256"
        }
      ],
      "name": "Approval",
      "type": "event"
    },
    {
      "anonymous": false,
      "inputs": [
        {
          "indexed": true,
          "internalType": "address",
          "name": "owner",
          "type": "address"
        },
        {
          "indexed": true,
          "internalType": "address",
          "name": "operator",
          "type": "address"
        },
        {
          "indexed": false,
          "internalType": "bool",
          "name": "approved",
          "type": "bool"
        }
      ],
      "name": "ApprovalForAll",
      "type": "event"
    },
    {
      "anonymous": false,
      "inputs": [
        {
          "indexed": true,
          "internalType": "address",
          "name": "previousOwner",
          "type": "address"
        },
        {
          "indexed": true,
          "internalType": "address",
          "name": "newOwner",
          "type": "address"
        }
      ],
      "name": "OwnershipTransferred",
      "type": "event"
    },
    {
      "anonymous": false,
      "inputs": [
        {
          "indexed": true,
          "internalType": "address",
          "name": "from",
          "type": "address"
        },
        {
          "indexed": true,
          "internalType": "address",
          "name": "to",
          "type": "address"
        },
        {
          "indexed": true,
          "internalType": "uint256",
          "name": "tokenId",
          "type": "uint256"
        }
      ],
      "name": "Transfer",
      "type": "event"
    },
    {
      "inputs": [
        {
          "internalType": "address",
          "name": "to",
          "type": "address"
        },
        {
          "internalType": "uint256",
          "name": "tokenId",
          "type": "uint256"
        }
      ],
      "name": "approve",
      "outputs": [],
      "stateMutability": "nonpayable",
      "type": "function"
    },
    {
      "inputs": [
        {
          "internalType": "address",
          "name": "owner",
          "type": "address"
        }
      ],
      "name": "balanceOf",
      "outputs": [
        {
          "internalType": "uint256",
          "name": "",
          "type": "uint256"
        }
      ],
      "stateMutability": "view",
      "type": "function"
    },
    {
      "inputs": [],
      "name": "getAllCertificates",
      "outputs": [
        {
          "components": [
            {
              "internalType": "uint64",
              "name": "tokenId",
              "type": "uint64"
            },
            {
              "internalType": "address",
              "name": "owner",
              "type": "address"
            },
            {
              "internalType": "string",
              "name": "ipfsHash",
              "type": "string"
            },
            {
              "internalType": "uint256",
              "name": "timestamp",
              "type": "uint256"
            }
          ],
          "internalType": "struct BlogCertificate.BlogCertData[]",
          "name": "",
          "type": "tuple[]"
        }
      ],
      "stateMutability": "view",
      "type": "function"
    },
    {
      "inputs": [
        {
          "internalType": "uint256",
          "name": "tokenId",
          "type": "uint256"
        }
      ],
      "name": "getApproved",
      "outputs": [
        {
          "internalType": "address",
          "name": "",
          "type": "address"
        }
      ],
      "stateMutability": "view",
      "type": "function"
    },
    {
      "inputs": [
        {
          "internalType": "uint64",
          "name": "tokenId",
          "type": "uint64"
        }
      ],
      "name": "getCertificate",
      "outputs": [
        {
          "components": [
            {
              "internalType": "uint64",
              "name": "tokenId",
              "type": "uint64"
            },
            {
              "internalType": "address",
              "name": "owner",
              "type": "address"
            },
            {
              "internalType": "string",
              "name": "ipfsHash",
              "type": "string"
            },
            {
              "internalType": "uint256",
              "name": "timestamp",
              "type": "uint256"
            }
          ],
          "internalType": "struct BlogCertificate.BlogCertData",
          "name": "",
          "type": "tuple"
        }
      ],
      "stateMutability": "view",
      "type": "function"
    },
    {
      "inputs": [
        {
          "internalType": "address",
          "name": "owner",
          "type": "address"
        }
      ],
      "name": "getCertificatesByOwner",
      "outputs": [
        {
          "components": [
            {
              "internalType": "uint64",
              "name": "tokenId",
              "type": "uint64"
            },
            {
              "internalType": "address",
              "name": "owner",
              "type": "address"
            },
            {
              "internalType": "string",
              "name": "ipfsHash",
              "type": "string"
            },
            {
              "internalType": "uint256",
              "name": "timestamp",
              "type": "uint256"
            }
          ],
          "internalType": "struct BlogCertificate.BlogCertData[]",
          "name": "",
          "type": "tuple[]"
        }
      ],
      "stateMutability": "view",
      "type": "function"
    },
    {
      "inputs": [
        {
          "internalType": "address",
          "name": "owner",
          "type": "address"
        },
        {
          "internalType": "address",
          "name": "operator",
          "type": "address"
        }
      ],
      "name": "isApprovedForAll",
      "outputs": [
        {
          "internalType": "bool",
          "name": "",
          "type": "bool"
        }
      ],
      "stateMutability": "view",
      "type": "function"
    },
    {
      "inputs": [
        {
          "internalType": "uint64",
          "name": "tokenId",
          "type": "uint64"
        }
      ],
      "name": "isRevoked",
      "outputs": [
        {
          "internalType": "bool",
          "name": "",
          "type": "bool"
        }
      ],
      "stateMutability": "view",
      "type": "function"
    },
    {
      "inputs": [
        {
          "internalType": "address",
          "name": "owner",
          "type": "address"
        },
        {
          "internalType": "string",
          "name": "ipfstokenURI",
          "type": "string"
        }
      ],
      "name": "mintCertificate",
      "outputs": [
        {
          "internalType": "uint256",
          "name": "",
          "type": "uint256"
        }
      ],
      "stateMutability": "nonpayable",
      "type": "function"
    },
    {
      "inputs": [],
      "name": "name",
      "outputs": [
        {
          "internalType": "string",
          "name": "",
          "type": "string"
        }
      ],
      "stateMutability": "view",
      "type": "function"
    },
    {
      "inputs": [],
      "name": "owner",
      "outputs": [
        {
          "internalType": "address",
          "name": "",
          "type": "address"
        }
      ],
      "stateMutability": "view",
      "type": "function"
    },
    {
      "inputs": [
        {
          "internalType": "uint256",
          "name": "tokenId",
          "type": "uint256"
        }
      ],
      "name": "ownerOf",
      "outputs": [
        {
          "internalType": "address",
          "name": "",
          "type": "address"
        }
      ],
      "stateMutability": "view",
      "type": "function"
    },
    {
      "inputs": [],
      "name": "renounceOwnership",
      "outputs": [],
      "stateMutability": "nonpayable",
      "type": "function"
    },
    {
      "inputs": [
        {
          "internalType": "uint64",
          "name": "tokenId",
          "type": "uint64"
        }
      ],
      "name": "revokeCertificate",
      "outputs": [],
      "stateMutability": "nonpayable",
      "type": "function"
    },
    {
      "inputs": [
        {
          "internalType": "address",
          "name": "from",
          "type": "address"
        },
        {
          "internalType": "address",
          "name": "to",
          "type": "address"
        },
        {
          "internalType": "uint256",
          "name": "tokenId",
          "type": "uint256"
        }
      ],
      "name": "safeTransferFrom",
      "outputs": [],
      "stateMutability": "nonpayable",
      "type": "function"
    },
    {
      "inputs": [
        {
          "internalType": "address",
          "name": "from",
          "type": "address"
        },
        {
          "internalType": "address",
          "name": "to",
          "type": "address"
        },
        {
          "internalType": "uint256",
          "name": "tokenId",
          "type": "uint256"
        },
        {
          "internalType": "bytes",
          "name": "data",
          "type": "bytes"
        }
      ],
      "name": "safeTransferFrom",
      "outputs": [],
      "stateMutability": "nonpayable",
      "type": "function"
    },
    {
      "inputs": [
        {
          "internalType": "address",
          "name": "operator",
          "type": "address"
        },
        {
          "internalType": "bool",
          "name": "approved",
          "type": "bool"
        }
      ],
      "name": "setApprovalForAll",
      "outputs": [],
      "stateMutability": "nonpayable",
      "type": "function"
    },
    {
      "inputs": [
        {
          "internalType": "bytes4",
          "name": "interfaceId",
          "type": "bytes4"
        }
      ],
      "name": "supportsInterface",
      "outputs": [
        {
          "internalType": "bool",
          "name": "",
          "type": "bool"
        }
      ],
      "stateMutability": "view",
      "type": "function"
    },
    {
      "inputs": [],
      "name": "symbol",
      "outputs": [
        {
          "internalType": "string",
          "name": "",
          "type": "string"
        }
      ],
      "stateMutability": "view",
      "type": "function"
    },
    {
      "inputs": [
        {
          "internalType": "uint256",
          "name": "tokenId",
          "type": "uint256"
        }
      ],
      "name": "tokenURI",
      "outputs": [
        {
          "internalType": "string",
          "name": "",
          "type": "string"
        }
      ],
      "stateMutability": "view",
      "type": "function"
    },
    {
      "inputs": [],
      "name": "totalReviews",
      "outputs": [
        {
          "internalType": "uint256",
          "name": "",
          "type": "uint256"
        }
      ],
      "stateMutability": "view",
      "type": "function"
    },
    {
      "inputs": [
        {
          "internalType": "address",
          "name": "from",
          "type": "address"
        },
        {
          "internalType": "address",
          "name": "to",
          "type": "address"
        },
        {
          "internalType": "uint256",
          "name": "tokenId",
          "type": "uint256"
        }
      ],
      "name": "transferFrom",
      "outputs": [],
      "stateMutability": "nonpayable",
      "type": "function"
    },
    {
      "inputs": [
        {
          "internalType": "address",
          "name": "newOwner",
          "type": "address"
        }
      ],
      "name": "transferOwnership",
      "outputs": [],
      "stateMutability": "nonpayable",
      "type": "function"
    },
    {
      "inputs": [
        {
          "internalType": "uint256",
          "name": "tokenId",
          "type": "uint256"
        },
        {
          "internalType": "string",
          "name": "ipfsHash",
          "type": "string"
        }
      ],
      "name": "verifyCertificate",
      "outputs": [
        {
          "internalType": "bool",
          "name": "",
          "type": "bool"
        }
      ],
      "stateMutability": "view",
      "type": "function"
    }
  ],
  "bytecode": "0x60806040523480156200001157600080fd5b506040518060400160405280600f81526020016e426c6f67436572746966696361746560881b81525060405180604001604052806003815260200162424c4360e81b815250816000908162000067919062000194565b50600162000076828262000194565b505050620000936200008d6200009960201b60201c565b6200009d565b62000260565b3390565b600780546001600160a01b038381166001600160a01b0319831681179093556040519116919082907f8be0079c531659141344cd1fd0a4f28419497f9722a3daafe3b4186f6b6457e090600090a35050565b634e487b7160e01b600052604160045260246000fd5b600181811c908216806200011a57607f821691505b6020821081036200013b57634e487b7160e01b600052602260045260246000fd5b50919050565b601f8211156200018f57600081815260208120601f850160051c810160208610156200016a5750805b601f850160051c820191505b818110156200018b5782815560010162000176565b5050505b505050565b81516001600160401b03811115620001b057620001b0620000ef565b620001c881620001c1845462000105565b8462000141565b602080601f831160018114620002005760008415620001e75750858301515b600019600386901b1c1916600185901b1785556200018b565b600085815260208120601f198616915b82811015620002315788860151825594840194600190910190840162000210565b5085821015620002505787850151600019600388901b60f8161c191681555b5050505050600190811b01905550565b6126c680620002706000396000f3fe608060405234801561001057600080fd5b50600436106101585760003560e01c806370a08231116100c3578063b88d4fde1161007c578063b88d4fde146102f5578063c87b56dd14610308578063e23678901461031b578063e985e9c514610324578063f2fde38b14610360578063f6ae476b1461037357600080fd5b806370a0823114610282578063715018a614610295578063874ce6801461029d5780638da5cb5b146102c957806395d89b41146102da578063a22cb465146102e257600080fd5b806313fcfe801161011557806313fcfe801461020e5780631db738401461022357806321c61a001461023657806323b872dd1461024957806342842e0e1461025c5780636352211e1461026f57600080fd5b806301ffc9a71461015d57806306fdde03146101855780630712249f1461019a578063081812fc146101bb57806308d5fd12146101e6578063095ea7b3146101f9575b600080fd5b61017061016b366004611da0565b610393565b60405190151581526020015b60405180910390f35b61018d6103e5565b60405161017c9190611e0d565b6101ad6101a8366004611ee7565b610477565b60405190815260200161017c565b6101ce6101c9366004611f34565b61059f565b6040516001600160a01b03909116815260200161017c565b6101706101f4366004611f4d565b6105c6565b61020c610207366004611f7d565b6106f9565b005b610216610813565b60405161017c9190611ff5565b610216610231366004612057565b61093a565b61020c610244366004612072565b610b95565b61020c61025736600461209b565b610d17565b61020c61026a36600461209b565b610d48565b6101ce61027d366004611f34565b610d63565b6101ad610290366004612057565b610dc3565b61020c610e49565b6101706102ab366004612072565b6001600160401b03166000908152600b602052604090205460ff1690565b6007546001600160a01b03166101ce565b61018d610e5d565b61020c6102f03660046120d7565b610e6c565b61020c610303366004612113565b610e7b565b61018d610316366004611f34565b610eb3565b6101ad60095481565b61017061033236600461218e565b6001600160a01b03918216600090815260056020908152604080832093909416825291909152205460ff1690565b61020c61036e366004612057565b610eff565b610386610381366004612072565b610f75565b60405161017c91906121c1565b60006001600160e01b031982166380ac58cd60e01b14806103c457506001600160e01b03198216635b5e139f60e01b145b806103df57506301ffc9a760e01b6001600160e01b03198316145b92915050565b6060600080546103f4906121d4565b80601f0160208091040260200160405190810160405280929190818152602001828054610420906121d4565b801561046d5780601f106104425761010080835404028352916020019161046d565b820191906000526020600020905b81548152906001019060200180831161045057829003601f168201915b5050505050905090565b6000610487600a80546001019055565b6000610492600a5490565b90506104a784826001600160401b0316611138565b6104ba816001600160401b031684611152565b604080516080810182526001600160401b0380841682526001600160a01b038088166020840190815293830187815242606085015260088054600181018255600091909152845160039091027ff3f7a9fe364faab93b216da50a3214154f22a0a2b415b23a84c8169e8b636ee3810180549751909416600160401b026001600160e01b0319909716919094161794909417815592519192917ff3f7a9fe364faab93b216da50a3214154f22a0a2b415b23a84c8169e8b636ee490910190610581908261225c565b50606091909101516002909101556001600160401b03169392505050565b60006105aa826111e5565b506000908152600460205260409020546001600160a01b031690565b6000828152600260205260408120546001600160a01b03166105ea575060006103df565b6001600160401b0383166000908152600b602052604090205460ff1615610613575060006103df565b60005b6008548110156106ef5783600882815481106106345761063461231b565b60009182526020909120600390910201546001600160401b0316036106dd57826040516020016106649190612331565b604051602081830303815290604052805190602001206008828154811061068d5761068d61231b565b90600052602060002090600302016001016040516020016106ae919061234d565b60405160208183030381529060405280519060200120036106d35760019150506103df565b60009150506103df565b806106e7816123d9565b915050610616565b5060009392505050565b600061070482610d63565b9050806001600160a01b0316836001600160a01b0316036107765760405162461bcd60e51b815260206004820152602160248201527f4552433732313a20617070726f76616c20746f2063757272656e74206f776e656044820152603960f91b60648201526084015b60405180910390fd5b336001600160a01b038216148061079257506107928133610332565b6108045760405162461bcd60e51b815260206004820152603e60248201527f4552433732313a20617070726f76652063616c6c6572206973206e6f7420746f60448201527f6b656e206f776e6572206e6f7220617070726f76656420666f7220616c6c0000606482015260840161076d565b61080e8383611244565b505050565b60606008805480602002602001604051908101604052809291908181526020016000905b82821015610931576000848152602090819020604080516080810182526003860290920180546001600160401b0381168452600160401b90046001600160a01b03169383019390935260018301805492939291840191610896906121d4565b80601f01602080910402602001604051908101604052809291908181526020018280546108c2906121d4565b801561090f5780601f106108e45761010080835404028352916020019161090f565b820191906000526020600020905b8154815290600101906020018083116108f257829003601f168201915b5050505050815260200160028201548152505081526020019060010190610837565b50505050905090565b60606000805b6008548110156109ad57836001600160a01b0316600882815481106109675761096761231b565b6000918252602090912060039091020154600160401b90046001600160a01b03160361099b5781610997816123d9565b9250505b806109a5816123d9565b915050610940565b506000816001600160401b038111156109c8576109c8611e3c565b604051908082528060200260200182016040528015610a0157816020015b6109ee611d02565b8152602001906001900390816109e65790505b5090506000805b600854811015610b8b57856001600160a01b031660088281548110610a2f57610a2f61231b565b6000918252602090912060039091020154600160401b90046001600160a01b031603610b795760088181548110610a6857610a6861231b565b600091825260209182902060408051608081018252600390930290910180546001600160401b03811684526001600160a01b03600160401b909104169383019390935260018301805492939291840191610ac1906121d4565b80601f0160208091040260200160405190810160405280929190818152602001828054610aed906121d4565b8015610b3a5780601f10610b0f57610100808354040283529160200191610b3a565b820191906000526020600020905b815481529060010190602001808311610b1d57829003601f168201915b50505050508152602001600282015481525050838381518110610b5f57610b5f61231b565b60200260200101819052508180610b75906123d9565b9250505b80610b83816123d9565b915050610a08565b5090949350505050565b610b9d6112b2565b60005b600854811015610d0157816001600160401b031660088281548110610bc757610bc761231b565b60009182526020909120600390910201546001600160401b031603610cef5760088054610bf6906001906123f2565b81548110610c0657610c0661231b565b906000526020600020906003020160088281548110610c2757610c2761231b565b60009182526020909120825460039092020180546001600160401b0390921667ffffffffffffffff1983168117825583546001600160e01b031990931617600160401b928390046001600160a01b0316909202919091178155600180820190610c9290840182612405565b506002918201549101556008805480610cad57610cad6124df565b60008281526020812060036000199093019283020180546001600160e01b031916815590610cde6001830182611d3c565b600282016000905550509055610d01565b80610cf9816123d9565b915050610ba0565b50610d14816001600160401b031661130c565b50565b610d213382611315565b610d3d5760405162461bcd60e51b815260040161076d906124f5565b61080e838383611394565b61080e83838360405180602001604052806000815250610e7b565b6000818152600260205260408120546001600160a01b0316806103df5760405162461bcd60e51b8152602060048201526018602482015277115490cdcc8c4e881a5b9d985b1a59081d1bdad95b88125160421b604482015260640161076d565b60006001600160a01b038216610e2d5760405162461bcd60e51b815260206004820152602960248201527f4552433732313a2061646472657373207a65726f206973206e6f7420612076616044820152683634b21037bbb732b960b91b606482015260840161076d565b506001600160a01b031660009081526003602052604090205490565b610e516112b2565b610e5b600061153b565b565b6060600180546103f4906121d4565b610e7733838361158d565b5050565b610e853383611315565b610ea15760405162461bcd60e51b815260040161076d906124f5565b610ead8484848461165b565b50505050565b6001600160401b0381166000908152600b602052604090205460609060ff1615610ef6576040518060600160405280602181526020016126706021913992915050565b6103df8261168e565b610f076112b2565b6001600160a01b038116610f6c5760405162461bcd60e51b815260206004820152602660248201527f4f776e61626c653a206e6577206f776e657220697320746865207a65726f206160448201526564647265737360d01b606482015260840161076d565b610d148161153b565b610f7d611d02565b60005b6008548110156110d857826001600160401b031660088281548110610fa757610fa761231b565b60009182526020909120600390910201546001600160401b0316036110c65760088181548110610fd957610fd961231b565b600091825260209182902060408051608081018252600390930290910180546001600160401b03811684526001600160a01b03600160401b909104169383019390935260018301805492939291840191611032906121d4565b80601f016020809104026020016040519081016040528092919081815260200182805461105e906121d4565b80156110ab5780601f10611080576101008083540402835291602001916110ab565b820191906000526020600020905b81548152906001019060200180831161108e57829003601f168201915b50505050508152602001600282015481525050915050919050565b806110d0816123d9565b915050610f80565b5060405162461bcd60e51b815260206004820152602e60248201527f4365727469666963617465206e6f7420666f756e6420666f722074686520707260448201526d1bdd9a591959081d1bdad95b925960921b606482015260840161076d565b610e77828260405180602001604052806000815250611796565b6000828152600260205260409020546001600160a01b03166111cd5760405162461bcd60e51b815260206004820152602e60248201527f45524337323155524953746f726167653a2055524920736574206f66206e6f6e60448201526d32bc34b9ba32b73a103a37b5b2b760911b606482015260840161076d565b600082815260066020526040902061080e828261225c565b6000818152600260205260409020546001600160a01b0316610d145760405162461bcd60e51b8152602060048201526018602482015277115490cdcc8c4e881a5b9d985b1a59081d1bdad95b88125160421b604482015260640161076d565b600081815260046020526040902080546001600160a01b0319166001600160a01b038416908117909155819061127982610d63565b6001600160a01b03167f8c5be1e5ebec7d5bd14f71427d1e84f3dd0314c0f7b2291e5b200ac8c7c3b92560405160405180910390a45050565b6007546001600160a01b03163314610e5b5760405162461bcd60e51b815260206004820181905260248201527f4f776e61626c653a2063616c6c6572206973206e6f7420746865206f776e6572604482015260640161076d565b610d14816117c9565b60008061132183610d63565b9050806001600160a01b0316846001600160a01b0316148061136857506001600160a01b0380821660009081526005602090815260408083209388168352929052205460ff165b8061138c5750836001600160a01b03166113818461059f565b6001600160a01b0316145b949350505050565b826001600160a01b03166113a782610d63565b6001600160a01b03161461140b5760405162461bcd60e51b815260206004820152602560248201527f4552433732313a207472616e736665722066726f6d20696e636f72726563742060448201526437bbb732b960d91b606482015260840161076d565b6001600160a01b03821661146d5760405162461bcd60e51b8152602060048201526024808201527f4552433732313a207472616e7366657220746f20746865207a65726f206164646044820152637265737360e01b606482015260840161076d565b611478838383611809565b611483600082611244565b6001600160a01b03831660009081526003602052604081208054600192906114ac9084906123f2565b90915550506001600160a01b03821660009081526003602052604081208054600192906114da908490612543565b909155505060008181526002602052604080822080546001600160a01b0319166001600160a01b0386811691821790925591518493918716917fddf252ad1be2c89b69c2b068fc378daa952ba7f163c4a11628f55a4df523b3ef91a4505050565b600780546001600160a01b038381166001600160a01b0319831681179093556040519116919082907f8be0079c531659141344cd1fd0a4f28419497f9722a3daafe3b4186f6b6457e090600090a35050565b816001600160a01b0316836001600160a01b0316036115ee5760405162461bcd60e51b815260206004820152601960248201527f4552433732313a20617070726f766520746f2063616c6c657200000000000000604482015260640161076d565b6001600160a01b03838116600081815260056020908152604080832094871680845294825291829020805460ff191686151590811790915591519182527f17307eab39ab6107e8899845ad3d59bd9653f200f220920489ca2b5937696c31910160405180910390a3505050565b611666848484611394565b61167284848484611898565b610ead5760405162461bcd60e51b815260040161076d90612556565b6060611699826111e5565b600082815260066020526040812080546116b2906121d4565b80601f01602080910402602001604051908101604052809291908181526020018280546116de906121d4565b801561172b5780601f106117005761010080835404028352916020019161172b565b820191906000526020600020905b81548152906001019060200180831161170e57829003601f168201915b50505050509050600061174960408051602081019091526000815290565b9050805160000361175b575092915050565b81511561178d5780826040516020016117759291906125a8565b60405160208183030381529060405292505050919050565b61138c84611999565b6117a08383611a0d565b6117ad6000848484611898565b61080e5760405162461bcd60e51b815260040161076d90612556565b6117d281611b5b565b600081815260066020526040902080546117eb906121d4565b159050610d14576000818152600660205260408120610d1491611d3c565b6001600160a01b0383161580159061182957506001600160a01b03821615155b1561080e576001600160a01b0383161561080e5760405162461bcd60e51b815260206004820152602a60248201527f53425420626c6f672063657274696669636174652063616e6e6f7420626520746044820152691c985b9cd9995c9c995960b21b606482015260840161076d565b60006001600160a01b0384163b1561198e57604051630a85bd0160e11b81526001600160a01b0385169063150b7a02906118dc9033908990889088906004016125d7565b6020604051808303816000875af1925050508015611917575060408051601f3d908101601f1916820190925261191491810190612614565b60015b611974573d808015611945576040519150601f19603f3d011682016040523d82523d6000602084013e61194a565b606091505b50805160000361196c5760405162461bcd60e51b815260040161076d90612556565b805181602001fd5b6001600160e01b031916630a85bd0160e11b14905061138c565b506001949350505050565b60606119a4826111e5565b60006119bb60408051602081019091526000815290565b905060008151116119db5760405180602001604052806000815250611a06565b806119e584611c02565b6040516020016119f69291906125a8565b6040516020818303038152906040525b9392505050565b6001600160a01b038216611a635760405162461bcd60e51b815260206004820181905260248201527f4552433732313a206d696e7420746f20746865207a65726f2061646472657373604482015260640161076d565b6000818152600260205260409020546001600160a01b031615611ac85760405162461bcd60e51b815260206004820152601c60248201527f4552433732313a20746f6b656e20616c7265616479206d696e74656400000000604482015260640161076d565b611ad460008383611809565b6001600160a01b0382166000908152600360205260408120805460019290611afd908490612543565b909155505060008181526002602052604080822080546001600160a01b0319166001600160a01b03861690811790915590518392907fddf252ad1be2c89b69c2b068fc378daa952ba7f163c4a11628f55a4df523b3ef908290a45050565b6000611b6682610d63565b9050611b7481600084611809565b611b7f600083611244565b6001600160a01b0381166000908152600360205260408120805460019290611ba89084906123f2565b909155505060008281526002602052604080822080546001600160a01b0319169055518391906001600160a01b038416907fddf252ad1be2c89b69c2b068fc378daa952ba7f163c4a11628f55a4df523b3ef908390a45050565b606081600003611c295750506040805180820190915260018152600360fc1b602082015290565b8160005b8115611c535780611c3d816123d9565b9150611c4c9050600a83612647565b9150611c2d565b6000816001600160401b03811115611c6d57611c6d611e3c565b6040519080825280601f01601f191660200182016040528015611c97576020820181803683370190505b5090505b841561138c57611cac6001836123f2565b9150611cb9600a8661265b565b611cc4906030612543565b60f81b818381518110611cd957611cd961231b565b60200101906001600160f81b031916908160001a905350611cfb600a86612647565b9450611c9b565b604051806080016040528060006001600160401b0316815260200160006001600160a01b0316815260200160608152602001600081525090565b508054611d48906121d4565b6000825580601f10611d58575050565b601f016020900490600052602060002090810190610d1491905b80821115611d865760008155600101611d72565b5090565b6001600160e01b031981168114610d1457600080fd5b600060208284031215611db257600080fd5b8135611a0681611d8a565b60005b83811015611dd8578181015183820152602001611dc0565b50506000910152565b60008151808452611df9816020860160208601611dbd565b601f01601f19169290920160200192915050565b602081526000611a066020830184611de1565b80356001600160a01b0381168114611e3757600080fd5b919050565b634e487b7160e01b600052604160045260246000fd5b60006001600160401b0380841115611e6c57611e6c611e3c565b604051601f8501601f19908116603f01168101908282118183101715611e9457611e94611e3c565b81604052809350858152868686011115611ead57600080fd5b858560208301376000602087830101525050509392505050565b600082601f830112611ed857600080fd5b611a0683833560208501611e52565b60008060408385031215611efa57600080fd5b611f0383611e20565b915060208301356001600160401b03811115611f1e57600080fd5b611f2a85828601611ec7565b9150509250929050565b600060208284031215611f4657600080fd5b5035919050565b60008060408385031215611f6057600080fd5b8235915060208301356001600160401b03811115611f1e57600080fd5b60008060408385031215611f9057600080fd5b611f9983611e20565b946020939093013593505050565b6001600160401b03815116825260018060a01b0360208201511660208301526000604082015160806040850152611fe16080850182611de1565b606093840151949093019390935250919050565b6000602080830181845280855180835260408601915060408160051b870101925083870160005b8281101561204a57603f19888603018452612038858351611fa7565b9450928501929085019060010161201c565b5092979650505050505050565b60006020828403121561206957600080fd5b611a0682611e20565b60006020828403121561208457600080fd5b81356001600160401b0381168114611a0657600080fd5b6000806000606084860312156120b057600080fd5b6120b984611e20565b92506120c760208501611e20565b9150604084013590509250925092565b600080604083850312156120ea57600080fd5b6120f383611e20565b91506020830135801515811461210857600080fd5b809150509250929050565b6000806000806080858703121561212957600080fd5b61213285611e20565b935061214060208601611e20565b92506040850135915060608501356001600160401b0381111561216257600080fd5b8501601f8101871361217357600080fd5b61218287823560208401611e52565b91505092959194509250565b600080604083850312156121a157600080fd5b6121aa83611e20565b91506121b860208401611e20565b90509250929050565b602081526000611a066020830184611fa7565b600181811c908216806121e857607f821691505b60208210810361220857634e487b7160e01b600052602260045260246000fd5b50919050565b601f82111561080e57600081815260208120601f850160051c810160208610156122355750805b601f850160051c820191505b8181101561225457828155600101612241565b505050505050565b81516001600160401b0381111561227557612275611e3c565b6122898161228384546121d4565b8461220e565b602080601f8311600181146122be57600084156122a65750858301515b600019600386901b1c1916600185901b178555612254565b600085815260208120601f198616915b828110156122ed578886015182559484019460019091019084016122ce565b508582101561230b5787850151600019600388901b60f8161c191681555b5050505050600190811b01905550565b634e487b7160e01b600052603260045260246000fd5b60008251612343818460208701611dbd565b9190910192915050565b600080835461235b816121d4565b600182811680156123735760018114612388576123b7565b60ff19841687528215158302870194506123b7565b8760005260208060002060005b858110156123ae5781548a820152908401908201612395565b50505082870194505b50929695505050505050565b634e487b7160e01b600052601160045260246000fd5b6000600182016123eb576123eb6123c3565b5060010190565b818103818111156103df576103df6123c3565b818103612410575050565b61241a82546121d4565b6001600160401b0381111561243157612431611e3c565b61243f8161228384546121d4565b6000601f821160018114612473576000831561245b5750848201545b600019600385901b1c1916600184901b1784556124d8565b600085815260209020601f19841690600086815260209020845b838110156124ad578286015482556001958601959091019060200161248d565b50858310156124cb5781850154600019600388901b60f8161c191681555b50505060018360011b0184555b5050505050565b634e487b7160e01b600052603160045260246000fd5b6020808252602e908201527f4552433732313a2063616c6c6572206973206e6f7420746f6b656e206f776e6560408201526d1c881b9bdc88185c1c1c9bdd995960921b606082015260800190565b808201808211156103df576103df6123c3565b60208082526032908201527f4552433732313a207472616e7366657220746f206e6f6e20455243373231526560408201527131b2b4bb32b91034b6b83632b6b2b73a32b960711b606082015260800190565b600083516125ba818460208801611dbd565b8351908301906125ce818360208801611dbd565b01949350505050565b6001600160a01b038581168252841660208201526040810183905260806060820181905260009061260a90830184611de1565b9695505050505050565b60006020828403121561262657600080fd5b8151611a0681611d8a565b634e487b7160e01b600052601260045260246000fd5b60008261265657612656612631565b500490565b60008261266a5761266a612631565b50069056fe5468697320636572746966696361746520686173206265656e207265766f6b6564a264697066735822122084cad29e7e54aca42ca0421b52843404e3d0f1e1c8a1833a311f35aee0351c3964736f6c63430008140033",
  "linkReferences": {},
  "deployedLinkReferences": {}
}