{
  "_format": "hh-sol-artifact-1",
  "contractName": "BlogReview",
  "sourceName": "contracts/BlogReviewCert.sol",
  "abi": [
    {
      "inputs": [],
      "stateMutability": "nonpayable",
      "type": "constructor"
    },
    {
      "anonymous": false,
      "inputs": [
        {
          "indexed": true,
          "internalType": "address",
          "name": "owner",
          "type": "address"
        },
        {
          "indexed": true,
          "internalType": "address",
          "name": "approved",
          "type": "address"
        },
        {
          "indexed": true,
          "internalType": "uint256",
          "name": "tokenId",
          "type": "uint256"
        }
      ],
      "name": "Approval",
      "type": "event"
    },
    {
      "anonymous": false,
      "inputs": [
        {
          "indexed": true,
          "internalType": "address",
          "name": "owner",
          "type": "address"
        },
        {
          "indexed": true,
          "internalType": "address",
          "name": "operator",
          "type": "address"
        },
        {
          "indexed": false,
          "internalType": "bool",
          "name": "approved",
          "type": "bool"
        }
      ],
      "name": "ApprovalForAll",
      "type": "event"
    },
    {
      "anonymous": false,
      "inputs": [
        {
          "indexed": true,
          "internalType": "address",
          "name": "previousOwner",
          "type": "address"
        },
        {
          "indexed": true,
          "internalType": "address",
          "name": "newOwner",
          "type": "address"
        }
      ],
      "name": "OwnershipTransferred",
      "type": "event"
    },
    {
      "anonymous": false,
      "inputs": [
        {
          "indexed": true,
          "internalType": "address",
          "name": "from",
          "type": "address"
        },
        {
          "indexed": true,
          "internalType": "address",
          "name": "to",
          "type": "address"
        },
        {
          "indexed": true,
          "internalType": "uint256",
          "name": "tokenId",
          "type": "uint256"
        }
      ],
      "name": "Transfer",
      "type": "event"
    },
    {
      "inputs": [
        {
          "internalType": "address",
          "name": "to",
          "type": "address"
        },
        {
          "internalType": "uint256",
          "name": "tokenId",
          "type": "uint256"
        }
      ],
      "name": "approve",
      "outputs": [],
      "stateMutability": "nonpayable",
      "type": "function"
    },
    {
      "inputs": [
        {
          "internalType": "address",
          "name": "owner",
          "type": "address"
        }
      ],
      "name": "balanceOf",
      "outputs": [
        {
          "internalType": "uint256",
          "name": "",
          "type": "uint256"
        }
      ],
      "stateMutability": "view",
      "type": "function"
    },
    {
      "inputs": [],
      "name": "getAllCertificates",
      "outputs": [
        {
          "components": [
            {
              "internalType": "uint64",
              "name": "tokenId",
              "type": "uint64"
            },
            {
              "internalType": "address",
              "name": "owner",
              "type": "address"
            },
            {
              "internalType": "string",
              "name": "ownerName",
              "type": "string"
            },
            {
              "internalType": "string",
              "name": "title",
              "type": "string"
            },
            {
              "internalType": "string",
              "name": "ipfsHash",
              "type": "string"
            },
            {
              "internalType": "string",
              "name": "blogName",
              "type": "string"
            },
            {
              "internalType": "uint256",
              "name": "timestamp",
              "type": "uint256"
            }
          ],
          "internalType": "struct BlogReview.NFTData[]",
          "name": "",
          "type": "tuple[]"
        }
      ],
      "stateMutability": "view",
      "type": "function"
    },
    {
      "inputs": [
        {
          "internalType": "uint256",
          "name": "tokenId",
          "type": "uint256"
        }
      ],
      "name": "getApproved",
      "outputs": [
        {
          "internalType": "address",
          "name": "",
          "type": "address"
        }
      ],
      "stateMutability": "view",
      "type": "function"
    },
    {
      "inputs": [
        {
          "internalType": "uint64",
          "name": "tokenId",
          "type": "uint64"
        }
      ],
      "name": "getCertificate",
      "outputs": [
        {
          "components": [
            {
              "internalType": "uint64",
              "name": "tokenId",
              "type": "uint64"
            },
            {
              "internalType": "address",
              "name": "owner",
              "type": "address"
            },
            {
              "internalType": "string",
              "name": "ownerName",
              "type": "string"
            },
            {
              "internalType": "string",
              "name": "title",
              "type": "string"
            },
            {
              "internalType": "string",
              "name": "ipfsHash",
              "type": "string"
            },
            {
              "internalType": "string",
              "name": "blogName",
              "type": "string"
            },
            {
              "internalType": "uint256",
              "name": "timestamp",
              "type": "uint256"
            }
          ],
          "internalType": "struct BlogReview.NFTData",
          "name": "",
          "type": "tuple"
        }
      ],
      "stateMutability": "view",
      "type": "function"
    },
    {
      "inputs": [
        {
          "internalType": "address",
          "name": "owner",
          "type": "address"
        },
        {
          "internalType": "address",
          "name": "operator",
          "type": "address"
        }
      ],
      "name": "isApprovedForAll",
      "outputs": [
        {
          "internalType": "bool",
          "name": "",
          "type": "bool"
        }
      ],
      "stateMutability": "view",
      "type": "function"
    },
    {
      "inputs": [
        {
          "internalType": "uint64",
          "name": "tokenId",
          "type": "uint64"
        }
      ],
      "name": "isRevoked",
      "outputs": [
        {
          "internalType": "bool",
          "name": "",
          "type": "bool"
        }
      ],
      "stateMutability": "view",
      "type": "function"
    },
    {
      "inputs": [
        {
          "internalType": "address",
          "name": "owner",
          "type": "address"
        },
        {
          "internalType": "string",
          "name": "ownerName",
          "type": "string"
        },
        {
          "internalType": "string",
          "name": "title",
          "type": "string"
        },
        {
          "internalType": "string",
          "name": "ipfsHash",
          "type": "string"
        },
        {
          "internalType": "string",
          "name": "ipfstokenURI",
          "type": "string"
        },
        {
          "internalType": "string",
          "name": "blogName",
          "type": "string"
        }
      ],
      "name": "mintCertificate",
      "outputs": [
        {
          "internalType": "uint256",
          "name": "",
          "type": "uint256"
        }
      ],
      "stateMutability": "nonpayable",
      "type": "function"
    },
    {
      "inputs": [],
      "name": "name",
      "outputs": [
        {
          "internalType": "string",
          "name": "",
          "type": "string"
        }
      ],
      "stateMutability": "view",
      "type": "function"
    },
    {
      "inputs": [],
      "name": "owner",
      "outputs": [
        {
          "internalType": "address",
          "name": "",
          "type": "address"
        }
      ],
      "stateMutability": "view",
      "type": "function"
    },
    {
      "inputs": [
        {
          "internalType": "uint256",
          "name": "tokenId",
          "type": "uint256"
        }
      ],
      "name": "ownerOf",
      "outputs": [
        {
          "internalType": "address",
          "name": "",
          "type": "address"
        }
      ],
      "stateMutability": "view",
      "type": "function"
    },
    {
      "inputs": [],
      "name": "renounceOwnership",
      "outputs": [],
      "stateMutability": "nonpayable",
      "type": "function"
    },
    {
      "inputs": [
        {
          "internalType": "uint64",
          "name": "tokenId",
          "type": "uint64"
        }
      ],
      "name": "revokeCertificate",
      "outputs": [],
      "stateMutability": "nonpayable",
      "type": "function"
    },
    {
      "inputs": [
        {
          "internalType": "address",
          "name": "from",
          "type": "address"
        },
        {
          "internalType": "address",
          "name": "to",
          "type": "address"
        },
        {
          "internalType": "uint256",
          "name": "tokenId",
          "type": "uint256"
        }
      ],
      "name": "safeTransferFrom",
      "outputs": [],
      "stateMutability": "nonpayable",
      "type": "function"
    },
    {
      "inputs": [
        {
          "internalType": "address",
          "name": "from",
          "type": "address"
        },
        {
          "internalType": "address",
          "name": "to",
          "type": "address"
        },
        {
          "internalType": "uint256",
          "name": "tokenId",
          "type": "uint256"
        },
        {
          "internalType": "bytes",
          "name": "data",
          "type": "bytes"
        }
      ],
      "name": "safeTransferFrom",
      "outputs": [],
      "stateMutability": "nonpayable",
      "type": "function"
    },
    {
      "inputs": [
        {
          "internalType": "address",
          "name": "operator",
          "type": "address"
        },
        {
          "internalType": "bool",
          "name": "approved",
          "type": "bool"
        }
      ],
      "name": "setApprovalForAll",
      "outputs": [],
      "stateMutability": "nonpayable",
      "type": "function"
    },
    {
      "inputs": [
        {
          "internalType": "bytes4",
          "name": "interfaceId",
          "type": "bytes4"
        }
      ],
      "name": "supportsInterface",
      "outputs": [
        {
          "internalType": "bool",
          "name": "",
          "type": "bool"
        }
      ],
      "stateMutability": "view",
      "type": "function"
    },
    {
      "inputs": [],
      "name": "symbol",
      "outputs": [
        {
          "internalType": "string",
          "name": "",
          "type": "string"
        }
      ],
      "stateMutability": "view",
      "type": "function"
    },
    {
      "inputs": [
        {
          "internalType": "uint256",
          "name": "tokenId",
          "type": "uint256"
        }
      ],
      "name": "tokenURI",
      "outputs": [
        {
          "internalType": "string",
          "name": "",
          "type": "string"
        }
      ],
      "stateMutability": "view",
      "type": "function"
    },
    {
      "inputs": [],
      "name": "totalReviews",
      "outputs": [
        {
          "internalType": "uint256",
          "name": "",
          "type": "uint256"
        }
      ],
      "stateMutability": "view",
      "type": "function"
    },
    {
      "inputs": [
        {
          "internalType": "address",
          "name": "from",
          "type": "address"
        },
        {
          "internalType": "address",
          "name": "to",
          "type": "address"
        },
        {
          "internalType": "uint256",
          "name": "tokenId",
          "type": "uint256"
        }
      ],
      "name": "transferFrom",
      "outputs": [],
      "stateMutability": "nonpayable",
      "type": "function"
    },
    {
      "inputs": [
        {
          "internalType": "address",
          "name": "newOwner",
          "type": "address"
        }
      ],
      "name": "transferOwnership",
      "outputs": [],
      "stateMutability": "nonpayable",
      "type": "function"
    }
  ],
  "bytecode": "0x60806040523480156200001157600080fd5b506040518060400160405280601581526020017f426c6f67526576696577436572746966696361746500000000000000000000008152506040518060400160405280600381526020017f425243000000000000000000000000000000000000000000000000000000000081525081600090816200008f919062000412565b508060019081620000a1919062000412565b505050620000c4620000b8620000ca60201b60201c565b620000d260201b60201c565b620004f9565b600033905090565b6000600760009054906101000a900473ffffffffffffffffffffffffffffffffffffffff16905081600760006101000a81548173ffffffffffffffffffffffffffffffffffffffff021916908373ffffffffffffffffffffffffffffffffffffffff1602179055508173ffffffffffffffffffffffffffffffffffffffff168173ffffffffffffffffffffffffffffffffffffffff167f8be0079c531659141344cd1fd0a4f28419497f9722a3daafe3b4186f6b6457e060405160405180910390a35050565b600081519050919050565b7f4e487b7100000000000000000000000000000000000000000000000000000000600052604160045260246000fd5b7f4e487b7100000000000000000000000000000000000000000000000000000000600052602260045260246000fd5b600060028204905060018216806200021a57607f821691505b60208210810362000230576200022f620001d2565b5b50919050565b60008190508160005260206000209050919050565b60006020601f8301049050919050565b600082821b905092915050565b6000600883026200029a7fffffffffffffffffffffffffffffffffffffffffffffffffffffffffffffffff826200025b565b620002a686836200025b565b95508019841693508086168417925050509392505050565b6000819050919050565b6000819050919050565b6000620002f3620002ed620002e784620002be565b620002c8565b620002be565b9050919050565b6000819050919050565b6200030f83620002d2565b620003276200031e82620002fa565b84845462000268565b825550505050565b600090565b6200033e6200032f565b6200034b81848462000304565b505050565b5b8181101562000373576200036760008262000334565b60018101905062000351565b5050565b601f821115620003c2576200038c8162000236565b62000397846200024b565b81016020851015620003a7578190505b620003bf620003b6856200024b565b83018262000350565b50505b505050565b600082821c905092915050565b6000620003e760001984600802620003c7565b1980831691505092915050565b6000620004028383620003d4565b9150826002028217905092915050565b6200041d8262000198565b67ffffffffffffffff811115620004395762000438620001a3565b5b62000445825462000201565b6200045282828562000377565b600060209050601f8311600181146200048a576000841562000475578287015190505b620004818582620003f4565b865550620004f1565b601f1984166200049a8662000236565b60005b82811015620004c4578489015182556001820191506020850194506020810190506200049d565b86831015620004e45784890151620004e0601f891682620003d4565b8355505b6001600288020188555050505b505050505050565b6146dc80620005096000396000f3fe608060405234801561001057600080fd5b50600436106101425760003560e01c8063874ce680116100b8578063b88d4fde1161007c578063b88d4fde14610375578063c87b56dd14610391578063e2367890146103c1578063e985e9c5146103df578063f2fde38b1461040f578063f6ae476b1461042b57610142565b8063874ce680146102bd5780638d13d72d146102ed5780638da5cb5b1461031d57806395d89b411461033b578063a22cb4651461035957610142565b806321c61a001161010a57806321c61a00146101ff57806323b872dd1461021b57806342842e0e146102375780636352211e1461025357806370a0823114610283578063715018a6146102b357610142565b806301ffc9a71461014757806306fdde0314610177578063081812fc14610195578063095ea7b3146101c557806313fcfe80146101e1575b600080fd5b610161600480360381019061015c9190612bac565b61045b565b60405161016e9190612bf4565b60405180910390f35b61017f61053d565b60405161018c9190612c9f565b60405180910390f35b6101af60048036038101906101aa9190612cf7565b6105cf565b6040516101bc9190612d65565b60405180910390f35b6101df60048036038101906101da9190612dac565b610615565b005b6101e961072c565b6040516101f69190612fea565b60405180910390f35b61021960048036038101906102149190613038565b610a65565b005b61023560048036038101906102309190613065565b610e1c565b005b610251600480360381019061024c9190613065565b610e7c565b005b61026d60048036038101906102689190612cf7565b610e9c565b60405161027a9190612d65565b60405180910390f35b61029d600480360381019061029891906130b8565b610f4d565b6040516102aa91906130f4565b60405180910390f35b6102bb611004565b005b6102d760048036038101906102d29190613038565b611018565b6040516102e49190612bf4565b60405180910390f35b61030760048036038101906103029190613244565b611056565b60405161031491906130f4565b60405180910390f35b6103256111fb565b6040516103329190612d65565b60405180910390f35b610343611225565b6040516103509190612c9f565b60405180910390f35b610373600480360381019061036e9190613389565b6112b7565b005b61038f600480360381019061038a919061346a565b6112cd565b005b6103ab60048036038101906103a69190612cf7565b61132f565b6040516103b89190612c9f565b60405180910390f35b6103c961139c565b6040516103d691906130f4565b60405180910390f35b6103f960048036038101906103f491906134ed565b6113a2565b6040516104069190612bf4565b60405180910390f35b610429600480360381019061042491906130b8565b611436565b005b61044560048036038101906104409190613038565b6114b9565b60405161045291906135de565b60405180910390f35b60007f80ac58cd000000000000000000000000000000000000000000000000000000007bffffffffffffffffffffffffffffffffffffffffffffffffffffffff1916827bffffffffffffffffffffffffffffffffffffffffffffffffffffffff1916148061052657507f5b5e139f000000000000000000000000000000000000000000000000000000007bffffffffffffffffffffffffffffffffffffffffffffffffffffffff1916827bffffffffffffffffffffffffffffffffffffffffffffffffffffffff1916145b80610536575061053582611888565b5b9050919050565b60606000805461054c9061362f565b80601f01602080910402602001604051908101604052809291908181526020018280546105789061362f565b80156105c55780601f1061059a576101008083540402835291602001916105c5565b820191906000526020600020905b8154815290600101906020018083116105a857829003601f168201915b5050505050905090565b60006105da826118f2565b6004600083815260200190815260200160002060009054906101000a900473ffffffffffffffffffffffffffffffffffffffff169050919050565b600061062082610e9c565b90508073ffffffffffffffffffffffffffffffffffffffff168373ffffffffffffffffffffffffffffffffffffffff1603610690576040517f08c379a0000000000000000000000000000000000000000000000000000000008152600401610687906136d2565b60405180910390fd5b8073ffffffffffffffffffffffffffffffffffffffff166106af61193d565b73ffffffffffffffffffffffffffffffffffffffff1614806106de57506106dd816106d861193d565b6113a2565b5b61071d576040517f08c379a000000000000000000000000000000000000000000000000000000000815260040161071490613764565b60405180910390fd5b6107278383611945565b505050565b60606008805480602002602001604051908101604052809291908181526020016000905b82821015610a5c57838290600052602060002090600602016040518060e00160405290816000820160009054906101000a900467ffffffffffffffff1667ffffffffffffffff1667ffffffffffffffff1681526020016000820160089054906101000a900473ffffffffffffffffffffffffffffffffffffffff1673ffffffffffffffffffffffffffffffffffffffff1673ffffffffffffffffffffffffffffffffffffffff16815260200160018201805461080b9061362f565b80601f01602080910402602001604051908101604052809291908181526020018280546108379061362f565b80156108845780601f1061085957610100808354040283529160200191610884565b820191906000526020600020905b81548152906001019060200180831161086757829003601f168201915b5050505050815260200160028201805461089d9061362f565b80601f01602080910402602001604051908101604052809291908181526020018280546108c99061362f565b80156109165780601f106108eb57610100808354040283529160200191610916565b820191906000526020600020905b8154815290600101906020018083116108f957829003601f168201915b5050505050815260200160038201805461092f9061362f565b80601f016020809104026020016040519081016040528092919081815260200182805461095b9061362f565b80156109a85780601f1061097d576101008083540402835291602001916109a8565b820191906000526020600020905b81548152906001019060200180831161098b57829003601f168201915b505050505081526020016004820180546109c19061362f565b80601f01602080910402602001604051908101604052809291908181526020018280546109ed9061362f565b8015610a3a5780601f10610a0f57610100808354040283529160200191610a3a565b820191906000526020600020905b815481529060010190602001808311610a1d57829003601f168201915b5050505050815260200160058201548152505081526020019060010190610750565b50505050905090565b610a6d6119fe565b610a808167ffffffffffffffff16611a7c565b610abf576040517f08c379a0000000000000000000000000000000000000000000000000000000008152600401610ab6906137d0565b60405180910390fd5b600a60008267ffffffffffffffff1667ffffffffffffffff16815260200190815260200160002060009054906101000a900460ff1615610b34576040517f08c379a0000000000000000000000000000000000000000000000000000000008152600401610b2b9061383c565b60405180910390fd5b6001600a60008367ffffffffffffffff1667ffffffffffffffff16815260200190815260200160002060006101000a81548160ff02191690831515021790555060005b600880549050811015610e05578167ffffffffffffffff1660088281548110610ba357610ba261385c565b5b906000526020600020906006020160000160009054906101000a900467ffffffffffffffff1667ffffffffffffffff1603610df25760086001600880549050610bec91906138ba565b81548110610bfd57610bfc61385c565b5b906000526020600020906006020160088281548110610c1f57610c1e61385c565b5b90600052602060002090600602016000820160009054906101000a900467ffffffffffffffff168160000160006101000a81548167ffffffffffffffff021916908367ffffffffffffffff1602179055506000820160089054906101000a900473ffffffffffffffffffffffffffffffffffffffff168160000160086101000a81548173ffffffffffffffffffffffffffffffffffffffff021916908373ffffffffffffffffffffffffffffffffffffffff16021790555060018201816001019081610ceb9190613ab0565b5060028201816002019081610d009190613ab0565b5060038201816003019081610d159190613ab0565b5060048201816004019081610d2a9190613ab0565b50600582015481600501559050506008805480610d4a57610d49613b98565b5b6001900381819060005260206000209060060201600080820160006101000a81549067ffffffffffffffff02191690556000820160086101000a81549073ffffffffffffffffffffffffffffffffffffffff0219169055600182016000610db19190612a86565b600282016000610dc19190612a86565b600382016000610dd19190612a86565b600482016000610de19190612a86565b600582016000905550509055610e05565b8080610dfd90613bc7565b915050610b77565b50610e198167ffffffffffffffff16611ae8565b50565b610e2d610e2761193d565b82611af4565b610e6c576040517f08c379a0000000000000000000000000000000000000000000000000000000008152600401610e6390613c81565b60405180910390fd5b610e77838383611b89565b505050565b610e97838383604051806020016040528060008152506112cd565b505050565b6000806002600084815260200190815260200160002060009054906101000a900473ffffffffffffffffffffffffffffffffffffffff169050600073ffffffffffffffffffffffffffffffffffffffff168173ffffffffffffffffffffffffffffffffffffffff1603610f44576040517f08c379a0000000000000000000000000000000000000000000000000000000008152600401610f3b90613ced565b60405180910390fd5b80915050919050565b60008073ffffffffffffffffffffffffffffffffffffffff168273ffffffffffffffffffffffffffffffffffffffff1603610fbd576040517f08c379a0000000000000000000000000000000000000000000000000000000008152600401610fb490613d7f565b60405180910390fd5b600360008373ffffffffffffffffffffffffffffffffffffffff1673ffffffffffffffffffffffffffffffffffffffff168152602001908152602001600020549050919050565b61100c6119fe565b6110166000611def565b565b6000600a60008367ffffffffffffffff1667ffffffffffffffff16815260200190815260200160002060009054906101000a900460ff169050919050565b600080611061611eb5565b9050611077888267ffffffffffffffff16611efb565b61108b8167ffffffffffffffff1685611f19565b60086040518060e001604052808367ffffffffffffffff1681526020018a73ffffffffffffffffffffffffffffffffffffffff16815260200189815260200188815260200187815260200185815260200142815250908060018154018082558091505060019003906000526020600020906006020160009091909190915060008201518160000160006101000a81548167ffffffffffffffff021916908367ffffffffffffffff16021790555060208201518160000160086101000a81548173ffffffffffffffffffffffffffffffffffffffff021916908373ffffffffffffffffffffffffffffffffffffffff16021790555060408201518160010190816111949190613d9f565b5060608201518160020190816111aa9190613d9f565b5060808201518160030190816111c09190613d9f565b5060a08201518160040190816111d69190613d9f565b5060c0820151816005015550508067ffffffffffffffff169150509695505050505050565b6000600760009054906101000a900473ffffffffffffffffffffffffffffffffffffffff16905090565b6060600180546112349061362f565b80601f01602080910402602001604051908101604052809291908181526020018280546112609061362f565b80156112ad5780601f10611282576101008083540402835291602001916112ad565b820191906000526020600020905b81548152906001019060200180831161129057829003601f168201915b5050505050905090565b6112c96112c261193d565b8383611f86565b5050565b6112de6112d861193d565b83611af4565b61131d576040517f08c379a000000000000000000000000000000000000000000000000000000000815260040161131490613c81565b60405180910390fd5b611329848484846120f2565b50505050565b6060600a60008367ffffffffffffffff1667ffffffffffffffff16815260200190815260200160002060009054906101000a900460ff161561138b57604051806060016040528060218152602001614686602191399050611397565b6113948261214e565b90505b919050565b60095481565b6000600560008473ffffffffffffffffffffffffffffffffffffffff1673ffffffffffffffffffffffffffffffffffffffff16815260200190815260200160002060008373ffffffffffffffffffffffffffffffffffffffff1673ffffffffffffffffffffffffffffffffffffffff16815260200190815260200160002060009054906101000a900460ff16905092915050565b61143e6119fe565b600073ffffffffffffffffffffffffffffffffffffffff168173ffffffffffffffffffffffffffffffffffffffff16036114ad576040517f08c379a00000000000000000000000000000000000000000000000000000000081526004016114a490613ee3565b60405180910390fd5b6114b681611def565b50565b6114c1612ac6565b60005b600880549050811015611847578267ffffffffffffffff16600882815481106114f0576114ef61385c565b5b906000526020600020906006020160000160009054906101000a900467ffffffffffffffff1667ffffffffffffffff160361183457600881815481106115395761153861385c565b5b90600052602060002090600602016040518060e00160405290816000820160009054906101000a900467ffffffffffffffff1667ffffffffffffffff1667ffffffffffffffff1681526020016000820160089054906101000a900473ffffffffffffffffffffffffffffffffffffffff1673ffffffffffffffffffffffffffffffffffffffff1673ffffffffffffffffffffffffffffffffffffffff1681526020016001820180546115ea9061362f565b80601f01602080910402602001604051908101604052809291908181526020018280546116169061362f565b80156116635780601f1061163857610100808354040283529160200191611663565b820191906000526020600020905b81548152906001019060200180831161164657829003601f168201915b5050505050815260200160028201805461167c9061362f565b80601f01602080910402602001604051908101604052809291908181526020018280546116a89061362f565b80156116f55780601f106116ca576101008083540402835291602001916116f5565b820191906000526020600020905b8154815290600101906020018083116116d857829003601f168201915b5050505050815260200160038201805461170e9061362f565b80601f016020809104026020016040519081016040528092919081815260200182805461173a9061362f565b80156117875780601f1061175c57610100808354040283529160200191611787565b820191906000526020600020905b81548152906001019060200180831161176a57829003601f168201915b505050505081526020016004820180546117a09061362f565b80601f01602080910402602001604051908101604052809291908181526020018280546117cc9061362f565b80156118195780601f106117ee57610100808354040283529160200191611819565b820191906000526020600020905b8154815290600101906020018083116117fc57829003601f168201915b50505050508152602001600582015481525050915050611883565b808061183f90613bc7565b9150506114c4565b506040517f08c379a000000000000000000000000000000000000000000000000000000000815260040161187a90613f75565b60405180910390fd5b919050565b60007f01ffc9a7000000000000000000000000000000000000000000000000000000007bffffffffffffffffffffffffffffffffffffffffffffffffffffffff1916827bffffffffffffffffffffffffffffffffffffffffffffffffffffffff1916149050919050565b6118fb81611a7c565b61193a576040517f08c379a000000000000000000000000000000000000000000000000000000000815260040161193190613ced565b60405180910390fd5b50565b600033905090565b816004600083815260200190815260200160002060006101000a81548173ffffffffffffffffffffffffffffffffffffffff021916908373ffffffffffffffffffffffffffffffffffffffff160217905550808273ffffffffffffffffffffffffffffffffffffffff166119b883610e9c565b73ffffffffffffffffffffffffffffffffffffffff167f8c5be1e5ebec7d5bd14f71427d1e84f3dd0314c0f7b2291e5b200ac8c7c3b92560405160405180910390a45050565b611a0661193d565b73ffffffffffffffffffffffffffffffffffffffff16611a246111fb565b73ffffffffffffffffffffffffffffffffffffffff1614611a7a576040517f08c379a0000000000000000000000000000000000000000000000000000000008152600401611a7190613fe1565b60405180910390fd5b565b60008073ffffffffffffffffffffffffffffffffffffffff166002600084815260200190815260200160002060009054906101000a900473ffffffffffffffffffffffffffffffffffffffff1673ffffffffffffffffffffffffffffffffffffffff1614159050919050565b611af181612260565b50565b600080611b0083610e9c565b90508073ffffffffffffffffffffffffffffffffffffffff168473ffffffffffffffffffffffffffffffffffffffff161480611b425750611b4181856113a2565b5b80611b8057508373ffffffffffffffffffffffffffffffffffffffff16611b68846105cf565b73ffffffffffffffffffffffffffffffffffffffff16145b91505092915050565b8273ffffffffffffffffffffffffffffffffffffffff16611ba982610e9c565b73ffffffffffffffffffffffffffffffffffffffff1614611bff576040517f08c379a0000000000000000000000000000000000000000000000000000000008152600401611bf690614073565b60405180910390fd5b600073ffffffffffffffffffffffffffffffffffffffff168273ffffffffffffffffffffffffffffffffffffffff1603611c6e576040517f08c379a0000000000000000000000000000000000000000000000000000000008152600401611c6590614105565b60405180910390fd5b611c798383836122b3565b611c84600082611945565b6001600360008573ffffffffffffffffffffffffffffffffffffffff1673ffffffffffffffffffffffffffffffffffffffff1681526020019081526020016000206000828254611cd491906138ba565b925050819055506001600360008473ffffffffffffffffffffffffffffffffffffffff1673ffffffffffffffffffffffffffffffffffffffff1681526020019081526020016000206000828254611d2b9190614125565b92505081905550816002600083815260200190815260200160002060006101000a81548173ffffffffffffffffffffffffffffffffffffffff021916908373ffffffffffffffffffffffffffffffffffffffff160217905550808273ffffffffffffffffffffffffffffffffffffffff168473ffffffffffffffffffffffffffffffffffffffff167fddf252ad1be2c89b69c2b068fc378daa952ba7f163c4a11628f55a4df523b3ef60405160405180910390a4611dea8383836123a2565b505050565b6000600760009054906101000a900473ffffffffffffffffffffffffffffffffffffffff16905081600760006101000a81548173ffffffffffffffffffffffffffffffffffffffff021916908373ffffffffffffffffffffffffffffffffffffffff1602179055508173ffffffffffffffffffffffffffffffffffffffff168173ffffffffffffffffffffffffffffffffffffffff167f8be0079c531659141344cd1fd0a4f28419497f9722a3daafe3b4186f6b6457e060405160405180910390a35050565b60006305f5e1004244600954604051602001611ed39392919061417a565b6040516020818303038152906040528051906020012060001c611ef691906141e6565b905090565b611f158282604051806020016040528060008152506123a7565b5050565b611f2282611a7c565b611f61576040517f08c379a0000000000000000000000000000000000000000000000000000000008152600401611f5890614289565b60405180910390fd5b80600660008481526020019081526020016000209081611f819190613d9f565b505050565b8173ffffffffffffffffffffffffffffffffffffffff168373ffffffffffffffffffffffffffffffffffffffff1603611ff4576040517f08c379a0000000000000000000000000000000000000000000000000000000008152600401611feb906142f5565b60405180910390fd5b80600560008573ffffffffffffffffffffffffffffffffffffffff1673ffffffffffffffffffffffffffffffffffffffff16815260200190815260200160002060008473ffffffffffffffffffffffffffffffffffffffff1673ffffffffffffffffffffffffffffffffffffffff16815260200190815260200160002060006101000a81548160ff0219169083151502179055508173ffffffffffffffffffffffffffffffffffffffff168373ffffffffffffffffffffffffffffffffffffffff167f17307eab39ab6107e8899845ad3d59bd9653f200f220920489ca2b5937696c31836040516120e59190612bf4565b60405180910390a3505050565b6120fd848484611b89565b61210984848484612402565b612148576040517f08c379a000000000000000000000000000000000000000000000000000000000815260040161213f90614387565b60405180910390fd5b50505050565b6060612159826118f2565b60006006600084815260200190815260200160002080546121799061362f565b80601f01602080910402602001604051908101604052809291908181526020018280546121a59061362f565b80156121f25780601f106121c7576101008083540402835291602001916121f2565b820191906000526020600020905b8154815290600101906020018083116121d557829003601f168201915b505050505090506000612203612589565b9050600081510361221857819250505061225b565b60008251111561224d5780826040516020016122359291906143e3565b6040516020818303038152906040529250505061225b565b612256846125a0565b925050505b919050565b61226981612608565b60006006600083815260200190815260200160002080546122899061362f565b9050146122b0576006600082815260200190815260200160002060006122af9190612a86565b5b50565b600073ffffffffffffffffffffffffffffffffffffffff168373ffffffffffffffffffffffffffffffffffffffff161415801561231d5750600073ffffffffffffffffffffffffffffffffffffffff168273ffffffffffffffffffffffffffffffffffffffff1614155b1561239257600073ffffffffffffffffffffffffffffffffffffffff168373ffffffffffffffffffffffffffffffffffffffff1614612391576040517f08c379a000000000000000000000000000000000000000000000000000000000815260040161238890614479565b60405180910390fd5b5b61239d838383612725565b505050565b505050565b6123b1838361272a565b6123be6000848484612402565b6123fd576040517f08c379a00000000000000000000000000000000000000000000000000000000081526004016123f490614387565b60405180910390fd5b505050565b60006124238473ffffffffffffffffffffffffffffffffffffffff16612903565b1561257c578373ffffffffffffffffffffffffffffffffffffffff1663150b7a0261244c61193d565b8786866040518563ffffffff1660e01b815260040161246e94939291906144ee565b6020604051808303816000875af19250505080156124aa57506040513d601f19601f820116820180604052508101906124a7919061454f565b60015b61252c573d80600081146124da576040519150601f19603f3d011682016040523d82523d6000602084013e6124df565b606091505b506000815103612524576040517f08c379a000000000000000000000000000000000000000000000000000000000815260040161251b90614387565b60405180910390fd5b805181602001fd5b63150b7a0260e01b7bffffffffffffffffffffffffffffffffffffffffffffffffffffffff1916817bffffffffffffffffffffffffffffffffffffffffffffffffffffffff191614915050612581565b600190505b949350505050565b606060405180602001604052806000815250905090565b60606125ab826118f2565b60006125b5612589565b905060008151116125d55760405180602001604052806000815250612600565b806125df84612926565b6040516020016125f09291906143e3565b6040516020818303038152906040525b915050919050565b600061261382610e9c565b9050612621816000846122b3565b61262c600083611945565b6001600360008373ffffffffffffffffffffffffffffffffffffffff1673ffffffffffffffffffffffffffffffffffffffff168152602001908152602001600020600082825461267c91906138ba565b925050819055506002600083815260200190815260200160002060006101000a81549073ffffffffffffffffffffffffffffffffffffffff021916905581600073ffffffffffffffffffffffffffffffffffffffff168273ffffffffffffffffffffffffffffffffffffffff167fddf252ad1be2c89b69c2b068fc378daa952ba7f163c4a11628f55a4df523b3ef60405160405180910390a4612721816000846123a2565b5050565b505050565b600073ffffffffffffffffffffffffffffffffffffffff168273ffffffffffffffffffffffffffffffffffffffff1603612799576040517f08c379a0000000000000000000000000000000000000000000000000000000008152600401612790906145c8565b60405180910390fd5b6127a281611a7c565b156127e2576040517f08c379a00000000000000000000000000000000000000000000000000000000081526004016127d990614634565b60405180910390fd5b6127ee600083836122b3565b6001600360008473ffffffffffffffffffffffffffffffffffffffff1673ffffffffffffffffffffffffffffffffffffffff168152602001908152602001600020600082825461283e9190614125565b92505081905550816002600083815260200190815260200160002060006101000a81548173ffffffffffffffffffffffffffffffffffffffff021916908373ffffffffffffffffffffffffffffffffffffffff160217905550808273ffffffffffffffffffffffffffffffffffffffff16600073ffffffffffffffffffffffffffffffffffffffff167fddf252ad1be2c89b69c2b068fc378daa952ba7f163c4a11628f55a4df523b3ef60405160405180910390a46128ff600083836123a2565b5050565b6000808273ffffffffffffffffffffffffffffffffffffffff163b119050919050565b60606000820361296d576040518060400160405280600181526020017f30000000000000000000000000000000000000000000000000000000000000008152509050612a81565b600082905060005b6000821461299f57808061298890613bc7565b915050600a826129989190614654565b9150612975565b60008167ffffffffffffffff8111156129bb576129ba613119565b5b6040519080825280601f01601f1916602001820160405280156129ed5781602001600182028036833780820191505090505b5090505b60008514612a7a57600182612a0691906138ba565b9150600a85612a1591906141e6565b6030612a219190614125565b60f81b818381518110612a3757612a3661385c565b5b60200101907effffffffffffffffffffffffffffffffffffffffffffffffffffffffffffff1916908160001a905350600a85612a739190614654565b94506129f1565b8093505050505b919050565b508054612a929061362f565b6000825580601f10612aa45750612ac3565b601f016020900490600052602060002090810190612ac29190612b23565b5b50565b6040518060e00160405280600067ffffffffffffffff168152602001600073ffffffffffffffffffffffffffffffffffffffff16815260200160608152602001606081526020016060815260200160608152602001600081525090565b5b80821115612b3c576000816000905550600101612b24565b5090565b6000604051905090565b600080fd5b600080fd5b60007fffffffff0000000000000000000000000000000000000000000000000000000082169050919050565b612b8981612b54565b8114612b9457600080fd5b50565b600081359050612ba681612b80565b92915050565b600060208284031215612bc257612bc1612b4a565b5b6000612bd084828501612b97565b91505092915050565b60008115159050919050565b612bee81612bd9565b82525050565b6000602082019050612c096000830184612be5565b92915050565b600081519050919050565b600082825260208201905092915050565b60005b83811015612c49578082015181840152602081019050612c2e565b60008484015250505050565b6000601f19601f8301169050919050565b6000612c7182612c0f565b612c7b8185612c1a565b9350612c8b818560208601612c2b565b612c9481612c55565b840191505092915050565b60006020820190508181036000830152612cb98184612c66565b905092915050565b6000819050919050565b612cd481612cc1565b8114612cdf57600080fd5b50565b600081359050612cf181612ccb565b92915050565b600060208284031215612d0d57612d0c612b4a565b5b6000612d1b84828501612ce2565b91505092915050565b600073ffffffffffffffffffffffffffffffffffffffff82169050919050565b6000612d4f82612d24565b9050919050565b612d5f81612d44565b82525050565b6000602082019050612d7a6000830184612d56565b92915050565b612d8981612d44565b8114612d9457600080fd5b50565b600081359050612da681612d80565b92915050565b60008060408385031215612dc357612dc2612b4a565b5b6000612dd185828601612d97565b9250506020612de285828601612ce2565b9150509250929050565b600081519050919050565b600082825260208201905092915050565b6000819050602082019050919050565b600067ffffffffffffffff82169050919050565b612e3581612e18565b82525050565b612e4481612d44565b82525050565b600082825260208201905092915050565b6000612e6682612c0f565b612e708185612e4a565b9350612e80818560208601612c2b565b612e8981612c55565b840191505092915050565b612e9d81612cc1565b82525050565b600060e083016000830151612ebb6000860182612e2c565b506020830151612ece6020860182612e3b565b5060408301518482036040860152612ee68282612e5b565b91505060608301518482036060860152612f008282612e5b565b91505060808301518482036080860152612f1a8282612e5b565b91505060a083015184820360a0860152612f348282612e5b565b91505060c0830151612f4960c0860182612e94565b508091505092915050565b6000612f608383612ea3565b905092915050565b6000602082019050919050565b6000612f8082612dec565b612f8a8185612df7565b935083602082028501612f9c85612e08565b8060005b85811015612fd85784840389528151612fb98582612f54565b9450612fc483612f68565b925060208a01995050600181019050612fa0565b50829750879550505050505092915050565b600060208201905081810360008301526130048184612f75565b905092915050565b61301581612e18565b811461302057600080fd5b50565b6000813590506130328161300c565b92915050565b60006020828403121561304e5761304d612b4a565b5b600061305c84828501613023565b91505092915050565b60008060006060848603121561307e5761307d612b4a565b5b600061308c86828701612d97565b935050602061309d86828701612d97565b92505060406130ae86828701612ce2565b9150509250925092565b6000602082840312156130ce576130cd612b4a565b5b60006130dc84828501612d97565b91505092915050565b6130ee81612cc1565b82525050565b600060208201905061310960008301846130e5565b92915050565b600080fd5b600080fd5b7f4e487b7100000000000000000000000000000000000000000000000000000000600052604160045260246000fd5b61315182612c55565b810181811067ffffffffffffffff821117156131705761316f613119565b5b80604052505050565b6000613183612b40565b905061318f8282613148565b919050565b600067ffffffffffffffff8211156131af576131ae613119565b5b6131b882612c55565b9050602081019050919050565b82818337600083830152505050565b60006131e76131e284613194565b613179565b90508281526020810184848401111561320357613202613114565b5b61320e8482856131c5565b509392505050565b600082601f83011261322b5761322a61310f565b5b813561323b8482602086016131d4565b91505092915050565b60008060008060008060c0878903121561326157613260612b4a565b5b600061326f89828a01612d97565b965050602087013567ffffffffffffffff8111156132905761328f612b4f565b5b61329c89828a01613216565b955050604087013567ffffffffffffffff8111156132bd576132bc612b4f565b5b6132c989828a01613216565b945050606087013567ffffffffffffffff8111156132ea576132e9612b4f565b5b6132f689828a01613216565b935050608087013567ffffffffffffffff81111561331757613316612b4f565b5b61332389828a01613216565b92505060a087013567ffffffffffffffff81111561334457613343612b4f565b5b61335089828a01613216565b9150509295509295509295565b61336681612bd9565b811461337157600080fd5b50565b6000813590506133838161335d565b92915050565b600080604083850312156133a05761339f612b4a565b5b60006133ae85828601612d97565b92505060206133bf85828601613374565b9150509250929050565b600067ffffffffffffffff8211156133e4576133e3613119565b5b6133ed82612c55565b9050602081019050919050565b600061340d613408846133c9565b613179565b90508281526020810184848401111561342957613428613114565b5b6134348482856131c5565b509392505050565b600082601f8301126134515761345061310f565b5b81356134618482602086016133fa565b91505092915050565b6000806000806080858703121561348457613483612b4a565b5b600061349287828801612d97565b94505060206134a387828801612d97565b93505060406134b487828801612ce2565b925050606085013567ffffffffffffffff8111156134d5576134d4612b4f565b5b6134e18782880161343c565b91505092959194509250565b6000806040838503121561350457613503612b4a565b5b600061351285828601612d97565b925050602061352385828601612d97565b9150509250929050565b600060e0830160008301516135456000860182612e2c565b5060208301516135586020860182612e3b565b50604083015184820360408601526135708282612e5b565b9150506060830151848203606086015261358a8282612e5b565b915050608083015184820360808601526135a48282612e5b565b91505060a083015184820360a08601526135be8282612e5b565b91505060c08301516135d360c0860182612e94565b508091505092915050565b600060208201905081810360008301526135f8818461352d565b905092915050565b7f4e487b7100000000000000000000000000000000000000000000000000000000600052602260045260246000fd5b6000600282049050600182168061364757607f821691505b60208210810361365a57613659613600565b5b50919050565b7f4552433732313a20617070726f76616c20746f2063757272656e74206f776e6560008201527f7200000000000000000000000000000000000000000000000000000000000000602082015250565b60006136bc602183612c1a565b91506136c782613660565b604082019050919050565b600060208201905081810360008301526136eb816136af565b9050919050565b7f4552433732313a20617070726f76652063616c6c6572206973206e6f7420746f60008201527f6b656e206f776e6572206e6f7220617070726f76656420666f7220616c6c0000602082015250565b600061374e603e83612c1a565b9150613759826136f2565b604082019050919050565b6000602082019050818103600083015261377d81613741565b9050919050565b7f546f6b656e20646f6573206e6f74206578697374000000000000000000000000600082015250565b60006137ba601483612c1a565b91506137c582613784565b602082019050919050565b600060208201905081810360008301526137e9816137ad565b9050919050565b7f436572746966696361746520616c7265616479207265766f6b65640000000000600082015250565b6000613826601b83612c1a565b9150613831826137f0565b602082019050919050565b6000602082019050818103600083015261385581613819565b9050919050565b7f4e487b7100000000000000000000000000000000000000000000000000000000600052603260045260246000fd5b7f4e487b7100000000000000000000000000000000000000000000000000000000600052601160045260246000fd5b60006138c582612cc1565b91506138d083612cc1565b92508282039050818111156138e8576138e761388b565b5b92915050565b6000815490506138fd8161362f565b9050919050565b60008190508160005260206000209050919050565b60006020601f8301049050919050565b600082821b905092915050565b6000600883026139667fffffffffffffffffffffffffffffffffffffffffffffffffffffffffffffffff82613929565b6139708683613929565b95508019841693508086168417925050509392505050565b6000819050919050565b60006139ad6139a86139a384612cc1565b613988565b612cc1565b9050919050565b6000819050919050565b6139c783613992565b6139db6139d3826139b4565b848454613936565b825550505050565b600090565b6139f06139e3565b6139fb8184846139be565b505050565b5b81811015613a1f57613a146000826139e8565b600181019050613a01565b5050565b601f821115613a6457613a3581613904565b613a3e84613919565b81016020851015613a4d578190505b613a61613a5985613919565b830182613a00565b50505b505050565b600082821c905092915050565b6000613a8760001984600802613a69565b1980831691505092915050565b6000613aa08383613a76565b9150826002028217905092915050565b818103613abe575050613b96565b613ac7826138ee565b67ffffffffffffffff811115613ae057613adf613119565b5b613aea825461362f565b613af5828285613a23565b6000601f831160018114613b245760008415613b12578287015490505b613b1c8582613a94565b865550613b8f565b601f198416613b3287613904565b9650613b3d86613904565b60005b82811015613b6557848901548255600182019150600185019450602081019050613b40565b86831015613b825784890154613b7e601f891682613a76565b8355505b6001600288020188555050505b5050505050505b565b7f4e487b7100000000000000000000000000000000000000000000000000000000600052603160045260246000fd5b6000613bd282612cc1565b91507fffffffffffffffffffffffffffffffffffffffffffffffffffffffffffffffff8203613c0457613c0361388b565b5b600182019050919050565b7f4552433732313a2063616c6c6572206973206e6f7420746f6b656e206f776e6560008201527f72206e6f7220617070726f766564000000000000000000000000000000000000602082015250565b6000613c6b602e83612c1a565b9150613c7682613c0f565b604082019050919050565b60006020820190508181036000830152613c9a81613c5e565b9050919050565b7f4552433732313a20696e76616c696420746f6b656e2049440000000000000000600082015250565b6000613cd7601883612c1a565b9150613ce282613ca1565b602082019050919050565b60006020820190508181036000830152613d0681613cca565b9050919050565b7f4552433732313a2061646472657373207a65726f206973206e6f74206120766160008201527f6c6964206f776e65720000000000000000000000000000000000000000000000602082015250565b6000613d69602983612c1a565b9150613d7482613d0d565b604082019050919050565b60006020820190508181036000830152613d9881613d5c565b9050919050565b613da882612c0f565b67ffffffffffffffff811115613dc157613dc0613119565b5b613dcb825461362f565b613dd6828285613a23565b600060209050601f831160018114613e095760008415613df7578287015190505b613e018582613a94565b865550613e69565b601f198416613e1786613904565b60005b82811015613e3f57848901518255600182019150602085019450602081019050613e1a565b86831015613e5c5784890151613e58601f891682613a76565b8355505b6001600288020188555050505b505050505050565b7f4f776e61626c653a206e6577206f776e657220697320746865207a65726f206160008201527f6464726573730000000000000000000000000000000000000000000000000000602082015250565b6000613ecd602683612c1a565b9150613ed882613e71565b604082019050919050565b60006020820190508181036000830152613efc81613ec0565b9050919050565b7f4365727469666963617465206e6f7420666f756e6420666f722074686520707260008201527f6f766964656420746f6b656e4964000000000000000000000000000000000000602082015250565b6000613f5f602e83612c1a565b9150613f6a82613f03565b604082019050919050565b60006020820190508181036000830152613f8e81613f52565b9050919050565b7f4f776e61626c653a2063616c6c6572206973206e6f7420746865206f776e6572600082015250565b6000613fcb602083612c1a565b9150613fd682613f95565b602082019050919050565b60006020820190508181036000830152613ffa81613fbe565b9050919050565b7f4552433732313a207472616e736665722066726f6d20696e636f72726563742060008201527f6f776e6572000000000000000000000000000000000000000000000000000000602082015250565b600061405d602583612c1a565b915061406882614001565b604082019050919050565b6000602082019050818103600083015261408c81614050565b9050919050565b7f4552433732313a207472616e7366657220746f20746865207a65726f2061646460008201527f7265737300000000000000000000000000000000000000000000000000000000602082015250565b60006140ef602483612c1a565b91506140fa82614093565b604082019050919050565b6000602082019050818103600083015261411e816140e2565b9050919050565b600061413082612cc1565b915061413b83612cc1565b92508282019050808211156141535761415261388b565b5b92915050565b6000819050919050565b61417461416f82612cc1565b614159565b82525050565b60006141868286614163565b6020820191506141968285614163565b6020820191506141a68284614163565b602082019150819050949350505050565b7f4e487b7100000000000000000000000000000000000000000000000000000000600052601260045260246000fd5b60006141f182612cc1565b91506141fc83612cc1565b92508261420c5761420b6141b7565b5b828206905092915050565b7f45524337323155524953746f726167653a2055524920736574206f66206e6f6e60008201527f6578697374656e7420746f6b656e000000000000000000000000000000000000602082015250565b6000614273602e83612c1a565b915061427e82614217565b604082019050919050565b600060208201905081810360008301526142a281614266565b9050919050565b7f4552433732313a20617070726f766520746f2063616c6c657200000000000000600082015250565b60006142df601983612c1a565b91506142ea826142a9565b602082019050919050565b6000602082019050818103600083015261430e816142d2565b9050919050565b7f4552433732313a207472616e7366657220746f206e6f6e20455243373231526560008201527f63656976657220696d706c656d656e7465720000000000000000000000000000602082015250565b6000614371603283612c1a565b915061437c82614315565b604082019050919050565b600060208201905081810360008301526143a081614364565b9050919050565b600081905092915050565b60006143bd82612c0f565b6143c781856143a7565b93506143d7818560208601612c2b565b80840191505092915050565b60006143ef82856143b2565b91506143fb82846143b2565b91508190509392505050565b7f536f756c626f756e6420746f6b656e2063616e6e6f74206265207472616e736660008201527f6572726564000000000000000000000000000000000000000000000000000000602082015250565b6000614463602583612c1a565b915061446e82614407565b604082019050919050565b6000602082019050818103600083015261449281614456565b9050919050565b600081519050919050565b600082825260208201905092915050565b60006144c082614499565b6144ca81856144a4565b93506144da818560208601612c2b565b6144e381612c55565b840191505092915050565b60006080820190506145036000830187612d56565b6145106020830186612d56565b61451d60408301856130e5565b818103606083015261452f81846144b5565b905095945050505050565b60008151905061454981612b80565b92915050565b60006020828403121561456557614564612b4a565b5b60006145738482850161453a565b91505092915050565b7f4552433732313a206d696e7420746f20746865207a65726f2061646472657373600082015250565b60006145b2602083612c1a565b91506145bd8261457c565b602082019050919050565b600060208201905081810360008301526145e1816145a5565b9050919050565b7f4552433732313a20746f6b656e20616c7265616479206d696e74656400000000600082015250565b600061461e601c83612c1a565b9150614629826145e8565b602082019050919050565b6000602082019050818103600083015261464d81614611565b9050919050565b600061465f82612cc1565b915061466a83612cc1565b92508261467a576146796141b7565b5b82820490509291505056fe5468697320636572746966696361746520686173206265656e207265766f6b6564a2646970667358221220ec2673822c8bbff52c279fb7ab55e99d0454eeb7c60925a15dbf859054f8ac9c64736f6c63430008140033",
  "linkReferences": {},
  "deployedLinkReferences": {}
}