{
  "_format": "hh-sol-artifact-1",
  "contractName": "BlogReview",
  "sourceName": "contracts/BlogReview.sol",
  "abi": [
    {
      "inputs": [],
      "stateMutability": "nonpayable",
      "type": "constructor"
    },
    {
      "inputs": [
        {
          "internalType": "address",
          "name": "sender",
          "type": "address"
        },
        {
          "internalType": "uint256",
          "name": "tokenId",
          "type": "uint256"
        },
        {
          "internalType": "address",
          "name": "owner",
          "type": "address"
        }
      ],
      "name": "ERC721IncorrectOwner",
      "type": "error"
    },
    {
      "inputs": [
        {
          "internalType": "address",
          "name": "operator",
          "type": "address"
        },
        {
          "internalType": "uint256",
          "name": "tokenId",
          "type": "uint256"
        }
      ],
      "name": "ERC721InsufficientApproval",
      "type": "error"
    },
    {
      "inputs": [
        {
          "internalType": "address",
          "name": "approver",
          "type": "address"
        }
      ],
      "name": "ERC721InvalidApprover",
      "type": "error"
    },
    {
      "inputs": [
        {
          "internalType": "address",
          "name": "operator",
          "type": "address"
        }
      ],
      "name": "ERC721InvalidOperator",
      "type": "error"
    },
    {
      "inputs": [
        {
          "internalType": "address",
          "name": "owner",
          "type": "address"
        }
      ],
      "name": "ERC721InvalidOwner",
      "type": "error"
    },
    {
      "inputs": [
        {
          "internalType": "address",
          "name": "receiver",
          "type": "address"
        }
      ],
      "name": "ERC721InvalidReceiver",
      "type": "error"
    },
    {
      "inputs": [
        {
          "internalType": "address",
          "name": "sender",
          "type": "address"
        }
      ],
      "name": "ERC721InvalidSender",
      "type": "error"
    },
    {
      "inputs": [
        {
          "internalType": "uint256",
          "name": "tokenId",
          "type": "uint256"
        }
      ],
      "name": "ERC721NonexistentToken",
      "type": "error"
    },
    {
      "anonymous": false,
      "inputs": [
        {
          "indexed": true,
          "internalType": "address",
          "name": "owner",
          "type": "address"
        },
        {
          "indexed": true,
          "internalType": "address",
          "name": "approved",
          "type": "address"
        },
        {
          "indexed": true,
          "internalType": "uint256",
          "name": "tokenId",
          "type": "uint256"
        }
      ],
      "name": "Approval",
      "type": "event"
    },
    {
      "anonymous": false,
      "inputs": [
        {
          "indexed": true,
          "internalType": "address",
          "name": "owner",
          "type": "address"
        },
        {
          "indexed": true,
          "internalType": "address",
          "name": "operator",
          "type": "address"
        },
        {
          "indexed": false,
          "internalType": "bool",
          "name": "approved",
          "type": "bool"
        }
      ],
      "name": "ApprovalForAll",
      "type": "event"
    },
    {
      "anonymous": false,
      "inputs": [
        {
          "indexed": false,
          "internalType": "uint256",
          "name": "_fromTokenId",
          "type": "uint256"
        },
        {
          "indexed": false,
          "internalType": "uint256",
          "name": "_toTokenId",
          "type": "uint256"
        }
      ],
      "name": "BatchMetadataUpdate",
      "type": "event"
    },
    {
      "anonymous": false,
      "inputs": [
        {
          "indexed": false,
          "internalType": "uint256",
          "name": "_tokenId",
          "type": "uint256"
        }
      ],
      "name": "MetadataUpdate",
      "type": "event"
    },
    {
      "anonymous": false,
      "inputs": [
        {
          "indexed": true,
          "internalType": "uint64",
          "name": "reviewId",
          "type": "uint64"
        },
        {
          "indexed": true,
          "internalType": "string",
          "name": "blogId",
          "type": "string"
        },
        {
          "indexed": true,
          "internalType": "address",
          "name": "reviewer",
          "type": "address"
        },
        {
          "indexed": false,
          "internalType": "string",
          "name": "title",
          "type": "string"
        },
        {
          "indexed": false,
          "internalType": "uint256",
          "name": "rating",
          "type": "uint256"
        },
        {
          "indexed": false,
          "internalType": "string[]",
          "name": "ipfsHash",
          "type": "string[]"
        },
        {
          "indexed": false,
          "internalType": "uint256",
          "name": "timestamp",
          "type": "uint256"
        }
      ],
      "name": "ReviewAdded",
      "type": "event"
    },
    {
      "anonymous": false,
      "inputs": [
        {
          "indexed": true,
          "internalType": "uint64",
          "name": "reviewId",
          "type": "uint64"
        },
        {
          "indexed": true,
          "internalType": "string",
          "name": "blogId",
          "type": "string"
        },
        {
          "indexed": true,
          "internalType": "address",
          "name": "reviewer",
          "type": "address"
        }
      ],
      "name": "ReviewDeleted",
      "type": "event"
    },
    {
      "anonymous": false,
      "inputs": [
        {
          "indexed": true,
          "internalType": "uint64",
          "name": "reviewId",
          "type": "uint64"
        },
        {
          "indexed": true,
          "internalType": "string",
          "name": "blogId",
          "type": "string"
        },
        {
          "indexed": true,
          "internalType": "address",
          "name": "reviewer",
          "type": "address"
        },
        {
          "indexed": false,
          "internalType": "string",
          "name": "title",
          "type": "string"
        },
        {
          "indexed": false,
          "internalType": "uint256",
          "name": "rating",
          "type": "uint256"
        },
        {
          "indexed": false,
          "internalType": "string[]",
          "name": "ipfsHash",
          "type": "string[]"
        }
      ],
      "name": "ReviewUpdated",
      "type": "event"
    },
    {
      "anonymous": false,
      "inputs": [
        {
          "indexed": true,
          "internalType": "address",
          "name": "from",
          "type": "address"
        },
        {
          "indexed": true,
          "internalType": "address",
          "name": "to",
          "type": "address"
        },
        {
          "indexed": true,
          "internalType": "uint256",
          "name": "tokenId",
          "type": "uint256"
        }
      ],
      "name": "Transfer",
      "type": "event"
    },
    {
      "inputs": [
        {
          "internalType": "string",
          "name": "blogId",
          "type": "string"
        },
        {
          "internalType": "string",
          "name": "title",
          "type": "string"
        },
        {
          "internalType": "uint256",
          "name": "rating",
          "type": "uint256"
        },
        {
          "internalType": "string[]",
          "name": "ipfsHash",
          "type": "string[]"
        }
      ],
      "name": "addReview",
      "outputs": [],
      "stateMutability": "nonpayable",
      "type": "function"
    },
    {
      "inputs": [
        {
          "internalType": "address",
          "name": "to",
          "type": "address"
        },
        {
          "internalType": "uint256",
          "name": "tokenId",
          "type": "uint256"
        }
      ],
      "name": "approve",
      "outputs": [],
      "stateMutability": "nonpayable",
      "type": "function"
    },
    {
      "inputs": [
        {
          "internalType": "address",
          "name": "owner",
          "type": "address"
        }
      ],
      "name": "balanceOf",
      "outputs": [
        {
          "internalType": "uint256",
          "name": "",
          "type": "uint256"
        }
      ],
      "stateMutability": "view",
      "type": "function"
    },
    {
      "inputs": [
        {
          "internalType": "uint64",
          "name": "reviewId",
          "type": "uint64"
        },
        {
          "internalType": "string",
          "name": "blogId",
          "type": "string"
        }
      ],
      "name": "deleteReview",
      "outputs": [],
      "stateMutability": "nonpayable",
      "type": "function"
    },
    {
      "inputs": [],
      "name": "getAllCertificates",
      "outputs": [
        {
          "components": [
            {
              "internalType": "uint64",
              "name": "tokenId",
              "type": "uint64"
            },
            {
              "internalType": "address",
              "name": "owner",
              "type": "address"
            },
            {
              "internalType": "string",
              "name": "ownerName",
              "type": "string"
            },
            {
              "internalType": "string",
              "name": "title",
              "type": "string"
            },
            {
              "internalType": "string",
              "name": "ipfsHash",
              "type": "string"
            },
            {
              "internalType": "string",
              "name": "blogName",
              "type": "string"
            },
            {
              "internalType": "uint256",
              "name": "timestamp",
              "type": "uint256"
            }
          ],
          "internalType": "struct BlogReview.NFTData[]",
          "name": "",
          "type": "tuple[]"
        }
      ],
      "stateMutability": "view",
      "type": "function"
    },
    {
      "inputs": [
        {
          "internalType": "string",
          "name": "blogId",
          "type": "string"
        }
      ],
      "name": "getAllReviews",
      "outputs": [
        {
          "components": [
            {
              "internalType": "uint64",
              "name": "reviewId",
              "type": "uint64"
            },
            {
              "internalType": "uint256",
              "name": "timestamp",
              "type": "uint256"
            },
            {
              "internalType": "address",
              "name": "reviewer",
              "type": "address"
            },
            {
              "internalType": "string",
              "name": "title",
              "type": "string"
            },
            {
              "internalType": "uint256",
              "name": "rating",
              "type": "uint256"
            },
            {
              "internalType": "string[]",
              "name": "ipfsHash",
              "type": "string[]"
            }
          ],
          "internalType": "struct BlogReview.Review[]",
          "name": "",
          "type": "tuple[]"
        }
      ],
      "stateMutability": "view",
      "type": "function"
    },
    {
      "inputs": [
        {
          "internalType": "uint256",
          "name": "tokenId",
          "type": "uint256"
        }
      ],
      "name": "getApproved",
      "outputs": [
        {
          "internalType": "address",
          "name": "",
          "type": "address"
        }
      ],
      "stateMutability": "view",
      "type": "function"
    },
    {
      "inputs": [
        {
          "internalType": "uint64",
          "name": "tokenId",
          "type": "uint64"
        }
      ],
      "name": "getCertificate",
      "outputs": [
        {
          "components": [
            {
              "internalType": "uint64",
              "name": "tokenId",
              "type": "uint64"
            },
            {
              "internalType": "address",
              "name": "owner",
              "type": "address"
            },
            {
              "internalType": "string",
              "name": "ownerName",
              "type": "string"
            },
            {
              "internalType": "string",
              "name": "title",
              "type": "string"
            },
            {
              "internalType": "string",
              "name": "ipfsHash",
              "type": "string"
            },
            {
              "internalType": "string",
              "name": "blogName",
              "type": "string"
            },
            {
              "internalType": "uint256",
              "name": "timestamp",
              "type": "uint256"
            }
          ],
          "internalType": "struct BlogReview.NFTData",
          "name": "",
          "type": "tuple"
        }
      ],
      "stateMutability": "view",
      "type": "function"
    },
    {
      "inputs": [
        {
          "internalType": "address",
          "name": "owner",
          "type": "address"
        },
        {
          "internalType": "address",
          "name": "operator",
          "type": "address"
        }
      ],
      "name": "isApprovedForAll",
      "outputs": [
        {
          "internalType": "bool",
          "name": "",
          "type": "bool"
        }
      ],
      "stateMutability": "view",
      "type": "function"
    },
    {
      "inputs": [
        {
          "internalType": "address",
          "name": "owner",
          "type": "address"
        },
        {
          "internalType": "string",
          "name": "ownerName",
          "type": "string"
        },
        {
          "internalType": "string",
          "name": "title",
          "type": "string"
        },
        {
          "internalType": "string",
          "name": "ipfsHash",
          "type": "string"
        },
        {
          "internalType": "string",
          "name": "ipfstokenURI",
          "type": "string"
        },
        {
          "internalType": "string",
          "name": "blogName",
          "type": "string"
        }
      ],
      "name": "mintCertificate",
      "outputs": [
        {
          "internalType": "uint256",
          "name": "",
          "type": "uint256"
        }
      ],
      "stateMutability": "nonpayable",
      "type": "function"
    },
    {
      "inputs": [],
      "name": "name",
      "outputs": [
        {
          "internalType": "string",
          "name": "",
          "type": "string"
        }
      ],
      "stateMutability": "view",
      "type": "function"
    },
    {
      "inputs": [
        {
          "internalType": "uint256",
          "name": "tokenId",
          "type": "uint256"
        }
      ],
      "name": "ownerOf",
      "outputs": [
        {
          "internalType": "address",
          "name": "",
          "type": "address"
        }
      ],
      "stateMutability": "view",
      "type": "function"
    },
    {
      "inputs": [
        {
          "internalType": "string",
          "name": "",
          "type": "string"
        },
        {
          "internalType": "uint256",
          "name": "",
          "type": "uint256"
        }
      ],
      "name": "reviews",
      "outputs": [
        {
          "internalType": "uint64",
          "name": "reviewId",
          "type": "uint64"
        },
        {
          "internalType": "uint256",
          "name": "timestamp",
          "type": "uint256"
        },
        {
          "internalType": "address",
          "name": "reviewer",
          "type": "address"
        },
        {
          "internalType": "string",
          "name": "title",
          "type": "string"
        },
        {
          "internalType": "uint256",
          "name": "rating",
          "type": "uint256"
        }
      ],
      "stateMutability": "view",
      "type": "function"
    },
    {
      "inputs": [
        {
          "internalType": "address",
          "name": "from",
          "type": "address"
        },
        {
          "internalType": "address",
          "name": "to",
          "type": "address"
        },
        {
          "internalType": "uint256",
          "name": "tokenId",
          "type": "uint256"
        }
      ],
      "name": "safeTransferFrom",
      "outputs": [],
      "stateMutability": "nonpayable",
      "type": "function"
    },
    {
      "inputs": [
        {
          "internalType": "address",
          "name": "from",
          "type": "address"
        },
        {
          "internalType": "address",
          "name": "to",
          "type": "address"
        },
        {
          "internalType": "uint256",
          "name": "tokenId",
          "type": "uint256"
        },
        {
          "internalType": "bytes",
          "name": "data",
          "type": "bytes"
        }
      ],
      "name": "safeTransferFrom",
      "outputs": [],
      "stateMutability": "nonpayable",
      "type": "function"
    },
    {
      "inputs": [
        {
          "internalType": "address",
          "name": "operator",
          "type": "address"
        },
        {
          "internalType": "bool",
          "name": "approved",
          "type": "bool"
        }
      ],
      "name": "setApprovalForAll",
      "outputs": [],
      "stateMutability": "nonpayable",
      "type": "function"
    },
    {
      "inputs": [
        {
          "internalType": "bytes4",
          "name": "interfaceId",
          "type": "bytes4"
        }
      ],
      "name": "supportsInterface",
      "outputs": [
        {
          "internalType": "bool",
          "name": "",
          "type": "bool"
        }
      ],
      "stateMutability": "view",
      "type": "function"
    },
    {
      "inputs": [],
      "name": "symbol",
      "outputs": [
        {
          "internalType": "string",
          "name": "",
          "type": "string"
        }
      ],
      "stateMutability": "view",
      "type": "function"
    },
    {
      "inputs": [
        {
          "internalType": "uint256",
          "name": "tokenId",
          "type": "uint256"
        }
      ],
      "name": "tokenURI",
      "outputs": [
        {
          "internalType": "string",
          "name": "",
          "type": "string"
        }
      ],
      "stateMutability": "view",
      "type": "function"
    },
    {
      "inputs": [],
      "name": "totalReviews",
      "outputs": [
        {
          "internalType": "uint256",
          "name": "",
          "type": "uint256"
        }
      ],
      "stateMutability": "view",
      "type": "function"
    },
    {
      "inputs": [
        {
          "internalType": "address",
          "name": "from",
          "type": "address"
        },
        {
          "internalType": "address",
          "name": "to",
          "type": "address"
        },
        {
          "internalType": "uint256",
          "name": "tokenId",
          "type": "uint256"
        }
      ],
      "name": "transferFrom",
      "outputs": [],
      "stateMutability": "nonpayable",
      "type": "function"
    },
    {
      "inputs": [
        {
          "internalType": "uint64",
          "name": "reviewId",
          "type": "uint64"
        },
        {
          "internalType": "string",
          "name": "blogId",
          "type": "string"
        },
        {
          "internalType": "string",
          "name": "title",
          "type": "string"
        },
        {
          "internalType": "uint256",
          "name": "rating",
          "type": "uint256"
        },
        {
          "internalType": "string[]",
          "name": "ipfsHash",
          "type": "string[]"
        }
      ],
      "name": "updateReview",
      "outputs": [],
      "stateMutability": "nonpayable",
      "type": "function"
    }
  ],
  "bytecode": "0x60806040523480156200001157600080fd5b506040518060400160405280601581526020017f426c6f67526576696577436572746966696361746500000000000000000000008152506040518060400160405280600381526020017f425243000000000000000000000000000000000000000000000000000000000081525081600090816200008f919062000324565b508060019081620000a1919062000324565b5050506200040b565b600081519050919050565b7f4e487b7100000000000000000000000000000000000000000000000000000000600052604160045260246000fd5b7f4e487b7100000000000000000000000000000000000000000000000000000000600052602260045260246000fd5b600060028204905060018216806200012c57607f821691505b602082108103620001425762000141620000e4565b5b50919050565b60008190508160005260206000209050919050565b60006020601f8301049050919050565b600082821b905092915050565b600060088302620001ac7fffffffffffffffffffffffffffffffffffffffffffffffffffffffffffffffff826200016d565b620001b886836200016d565b95508019841693508086168417925050509392505050565b6000819050919050565b6000819050919050565b600062000205620001ff620001f984620001d0565b620001da565b620001d0565b9050919050565b6000819050919050565b6200022183620001e4565b6200023962000230826200020c565b8484546200017a565b825550505050565b600090565b6200025062000241565b6200025d81848462000216565b505050565b5b8181101562000285576200027960008262000246565b60018101905062000263565b5050565b601f821115620002d4576200029e8162000148565b620002a9846200015d565b81016020851015620002b9578190505b620002d1620002c8856200015d565b83018262000262565b50505b505050565b600082821c905092915050565b6000620002f960001984600802620002d9565b1980831691505092915050565b6000620003148383620002e6565b9150826002028217905092915050565b6200032f82620000aa565b67ffffffffffffffff8111156200034b576200034a620000b5565b5b62000357825462000113565b6200036482828562000289565b600060209050601f8311600181146200039c576000841562000387578287015190505b62000393858262000306565b86555062000403565b601f198416620003ac8662000148565b60005b82811015620003d657848901518255600182019150602085019450602081019050620003af565b86831015620003f65784890151620003f2601f891682620002e6565b8355505b6001600288020188555050505b505050505050565b614d43806200041b6000396000f3fe608060405234801561001057600080fd5b50600436106101425760003560e01c806370a08231116100b8578063a22cb4651161007c578063a22cb4651461039d578063b88d4fde146103b9578063c87b56dd146103d5578063e236789014610405578063e985e9c514610423578063f6ae476b1461045357610142565b806370a08231146102cf57806371f5e27c146102ff5780638d13d72d146103335780639252c3131461036357806395d89b411461037f57610142565b806323b872dd1161010a57806323b872dd146101ff57806336a41ed31461021b57806342842e0e1461024b5780635055f1ab146102675780636352211e1461028357806369b43c93146102b357610142565b806301ffc9a71461014757806306fdde0314610177578063081812fc14610195578063095ea7b3146101c557806313fcfe80146101e1575b600080fd5b610161600480360381019061015c9190613209565b610483565b60405161016e9190613251565b60405180910390f35b61017f6104e4565b60405161018c91906132fc565b60405180910390f35b6101af60048036038101906101aa9190613354565b610576565b6040516101bc91906133c2565b60405180910390f35b6101df60048036038101906101da9190613409565b610592565b005b6101e96105a8565b6040516101f69190613647565b60405180910390f35b61021960048036038101906102149190613669565b6108e1565b005b610235600480360381019061023091906137f1565b6109e3565b6040516102429190613a4e565b60405180910390f35b61026560048036038101906102609190613669565b610cfa565b005b610281600480360381019061027c9190613b56565b610d1a565b005b61029d60048036038101906102989190613354565b610f51565b6040516102aa91906133c2565b60405180910390f35b6102cd60048036038101906102c89190613c3d565b610f63565b005b6102e960048036038101906102e49190613c99565b6113cb565b6040516102f69190613cd5565b60405180910390f35b61031960048036038101906103149190613cf0565b611485565b60405161032a959493929190613d5b565b60405180910390f35b61034d60048036038101906103489190613db5565b6115aa565b60405161035a9190613cd5565b60405180910390f35b61037d60048036038101906103789190613ece565b61174f565b005b6103876119e9565b60405161039491906132fc565b60405180910390f35b6103b760048036038101906103b29190613fc9565b611a7b565b005b6103d360048036038101906103ce91906140aa565b611a91565b005b6103ef60048036038101906103ea9190613354565b611aae565b6040516103fc91906132fc565b60405180910390f35b61040d611bc1565b60405161041a9190613cd5565b60405180910390f35b61043d6004803603810190610438919061412d565b611bc7565b60405161044a9190613251565b60405180910390f35b61046d6004803603810190610468919061416d565b611c5b565b60405161047a919061424b565b60405180910390f35b6000634906490660e01b7bffffffffffffffffffffffffffffffffffffffffffffffffffffffff1916827bffffffffffffffffffffffffffffffffffffffffffffffffffffffff191614806104dd57506104dc8261202a565b5b9050919050565b6060600080546104f39061429c565b80601f016020809104026020016040519081016040528092919081815260200182805461051f9061429c565b801561056c5780601f106105415761010080835404028352916020019161056c565b820191906000526020600020905b81548152906001019060200180831161054f57829003601f168201915b5050505050905090565b60006105818261210c565b5061058b82612194565b9050919050565b6105a4828261059f6121d1565b6121d9565b5050565b60606007805480602002602001604051908101604052809291908181526020016000905b828210156108d857838290600052602060002090600602016040518060e00160405290816000820160009054906101000a900467ffffffffffffffff1667ffffffffffffffff1667ffffffffffffffff1681526020016000820160089054906101000a900473ffffffffffffffffffffffffffffffffffffffff1673ffffffffffffffffffffffffffffffffffffffff1673ffffffffffffffffffffffffffffffffffffffff1681526020016001820180546106879061429c565b80601f01602080910402602001604051908101604052809291908181526020018280546106b39061429c565b80156107005780601f106106d557610100808354040283529160200191610700565b820191906000526020600020905b8154815290600101906020018083116106e357829003601f168201915b505050505081526020016002820180546107199061429c565b80601f01602080910402602001604051908101604052809291908181526020018280546107459061429c565b80156107925780601f1061076757610100808354040283529160200191610792565b820191906000526020600020905b81548152906001019060200180831161077557829003601f168201915b505050505081526020016003820180546107ab9061429c565b80601f01602080910402602001604051908101604052809291908181526020018280546107d79061429c565b80156108245780601f106107f957610100808354040283529160200191610824565b820191906000526020600020905b81548152906001019060200180831161080757829003601f168201915b5050505050815260200160048201805461083d9061429c565b80601f01602080910402602001604051908101604052809291908181526020018280546108699061429c565b80156108b65780601f1061088b576101008083540402835291602001916108b6565b820191906000526020600020905b81548152906001019060200180831161089957829003601f168201915b50505050508152602001600582015481525050815260200190600101906105cc565b50505050905090565b600073ffffffffffffffffffffffffffffffffffffffff168273ffffffffffffffffffffffffffffffffffffffff16036109535760006040517f64a0ae9200000000000000000000000000000000000000000000000000000000815260040161094a91906133c2565b60405180910390fd5b600061096783836109626121d1565b6121eb565b90508373ffffffffffffffffffffffffffffffffffffffff168173ffffffffffffffffffffffffffffffffffffffff16146109dd578382826040517f64283d7b0000000000000000000000000000000000000000000000000000000081526004016109d4939291906142cd565b60405180910390fd5b50505050565b606060006009836040516109f79190614340565b908152602001604051809103902080549050905060008167ffffffffffffffff811115610a2757610a266136c6565b5b604051908082528060200260200182016040528015610a6057816020015b610a4d612f92565b815260200190600190039081610a455790505b50905060005b82811015610cef57600985604051610a7e9190614340565b90815260200160405180910390208181548110610a9e57610a9d614357565b5b90600052602060002090600602016040518060c00160405290816000820160009054906101000a900467ffffffffffffffff1667ffffffffffffffff1667ffffffffffffffff168152602001600182015481526020016002820160009054906101000a900473ffffffffffffffffffffffffffffffffffffffff1673ffffffffffffffffffffffffffffffffffffffff1673ffffffffffffffffffffffffffffffffffffffff168152602001600382018054610b599061429c565b80601f0160208091040260200160405190810160405280929190818152602001828054610b859061429c565b8015610bd25780601f10610ba757610100808354040283529160200191610bd2565b820191906000526020600020905b815481529060010190602001808311610bb557829003601f168201915b505050505081526020016004820154815260200160058201805480602002602001604051908101604052809291908181526020016000905b82821015610cb6578382906000526020600020018054610c299061429c565b80601f0160208091040260200160405190810160405280929190818152602001828054610c559061429c565b8015610ca25780601f10610c7757610100808354040283529160200191610ca2565b820191906000526020600020905b815481529060010190602001808311610c8557829003601f168201915b505050505081526020019060010190610c0a565b5050505081525050828281518110610cd157610cd0614357565b5b60200260200101819052508080610ce7906143b5565b915050610a66565b508092505050919050565b610d1583838360405180602001604052806000815250611a91565b505050565b6000845111610d5e576040517f08c379a0000000000000000000000000000000000000000000000000000000008152600401610d5590614449565b60405180910390fd5b6000610d68612405565b9050600985604051610d7a9190614340565b90815260200160405180910390206040518060c001604052808367ffffffffffffffff1681526020014281526020013373ffffffffffffffffffffffffffffffffffffffff16815260200186815260200185815260200184815250908060018154018082558091505060019003906000526020600020906006020160009091909190915060008201518160000160006101000a81548167ffffffffffffffff021916908367ffffffffffffffff1602179055506020820151816001015560408201518160020160006101000a81548173ffffffffffffffffffffffffffffffffffffffff021916908373ffffffffffffffffffffffffffffffffffffffff1602179055506060820151816003019081610e939190614615565b506080820151816004015560a0820151816005019080519060200190610eba929190612fe8565b5050503373ffffffffffffffffffffffffffffffffffffffff1685604051610ee29190614340565b60405180910390208267ffffffffffffffff167f711e0f6ac2561d94686aed091622229cb6ed7fa7535568fa5566c5dbf98f047d87878742604051610f2a949392919061476d565b60405180910390a460086000815480929190610f45906143b5565b91905055505050505050565b6000610f5c8261210c565b9050919050565b6000815111610fa7576040517f08c379a0000000000000000000000000000000000000000000000000000000008152600401610f9e90614449565b60405180910390fd5b6000600982604051610fb99190614340565b9081526020016040518091039020805490501161100b576040517f08c379a000000000000000000000000000000000000000000000000000000000815260040161100290614832565b60405180910390fd5b60005b60098260405161101e9190614340565b90815260200160405180910390208054905081101561138b578267ffffffffffffffff166009836040516110529190614340565b9081526020016040518091039020828154811061107257611071614357565b5b906000526020600020906006020160000160009054906101000a900467ffffffffffffffff1667ffffffffffffffff1603611378576009826040516110b79190614340565b908152602001604051809103902060016009846040516110d79190614340565b9081526020016040518091039020805490506110f39190614852565b8154811061110457611103614357565b5b90600052602060002090600602016009836040516111229190614340565b9081526020016040518091039020828154811061114257611141614357565b5b90600052602060002090600602016000820160009054906101000a900467ffffffffffffffff168160000160006101000a81548167ffffffffffffffff021916908367ffffffffffffffff160217905550600182015481600101556002820160009054906101000a900473ffffffffffffffffffffffffffffffffffffffff168160020160006101000a81548173ffffffffffffffffffffffffffffffffffffffff021916908373ffffffffffffffffffffffffffffffffffffffff16021790555060038201816003019081611218919061489c565b50600482015481600401556005820181600501908054611239929190613041565b5090505060098260405161124d9190614340565b908152602001604051809103902080548061126b5761126a614984565b5b6001900381819060005260206000209060060201600080820160006101000a81549067ffffffffffffffff021916905560018201600090556002820160006101000a81549073ffffffffffffffffffffffffffffffffffffffff02191690556003820160006112da919061309e565b60048201600090556005820160006112f291906130de565b505090553373ffffffffffffffffffffffffffffffffffffffff168260405161131b9190614340565b60405180910390208467ffffffffffffffff167f4dc3a631bee407c15ad3d0c57d5aa816a2aba967df12884baa5dc7caf7bbb8ef60405160405180910390a46008600081548092919061136d906149b3565b9190505550506113c7565b8080611383906143b5565b91505061100e565b506040517f08c379a00000000000000000000000000000000000000000000000000000000081526004016113be90614a28565b60405180910390fd5b5050565b60008073ffffffffffffffffffffffffffffffffffffffff168273ffffffffffffffffffffffffffffffffffffffff160361143e5760006040517f89c62b6400000000000000000000000000000000000000000000000000000000815260040161143591906133c2565b60405180910390fd5b600360008373ffffffffffffffffffffffffffffffffffffffff1673ffffffffffffffffffffffffffffffffffffffff168152602001908152602001600020549050919050565b60098280516020810182018051848252602083016020850120818352809550505050505081815481106114b757600080fd5b9060005260206000209060060201600091509150508060000160009054906101000a900467ffffffffffffffff16908060010154908060020160009054906101000a900473ffffffffffffffffffffffffffffffffffffffff16908060030180546115219061429c565b80601f016020809104026020016040519081016040528092919081815260200182805461154d9061429c565b801561159a5780601f1061156f5761010080835404028352916020019161159a565b820191906000526020600020905b81548152906001019060200180831161157d57829003601f168201915b5050505050908060040154905085565b6000806115b5612405565b90506115cb888267ffffffffffffffff1661244b565b6115df8167ffffffffffffffff1685612469565b60076040518060e001604052808367ffffffffffffffff1681526020018a73ffffffffffffffffffffffffffffffffffffffff16815260200189815260200188815260200187815260200185815260200142815250908060018154018082558091505060019003906000526020600020906006020160009091909190915060008201518160000160006101000a81548167ffffffffffffffff021916908367ffffffffffffffff16021790555060208201518160000160086101000a81548173ffffffffffffffffffffffffffffffffffffffff021916908373ffffffffffffffffffffffffffffffffffffffff16021790555060408201518160010190816116e89190614615565b5060608201518160020190816116fe9190614615565b5060808201518160030190816117149190614615565b5060a082015181600401908161172a9190614615565b5060c0820151816005015550508067ffffffffffffffff169150509695505050505050565b6000845111611793576040517f08c379a000000000000000000000000000000000000000000000000000000000815260040161178a90614449565b60405180910390fd5b60005b6009856040516117a69190614340565b9081526020016040518091039020805490508110156119a6578567ffffffffffffffff166009866040516117da9190614340565b908152602001604051809103902082815481106117fa576117f9614357565b5b906000526020600020906006020160000160009054906101000a900467ffffffffffffffff1667ffffffffffffffff160361199357836009866040516118409190614340565b908152602001604051809103902082815481106118605761185f614357565b5b9060005260206000209060060201600301908161187d9190614615565b508260098660405161188f9190614340565b908152602001604051809103902082815481106118af576118ae614357565b5b906000526020600020906006020160040181905550816009866040516118d59190614340565b908152602001604051809103902082815481106118f5576118f4614357565b5b90600052602060002090600602016005019080519060200190611919929190612fe8565b503373ffffffffffffffffffffffffffffffffffffffff168560405161193f9190614340565b60405180910390208767ffffffffffffffff167f1dd652c29494508e098143d73d725f0bc4b53734cc129266d3dd41a27059d3ba87878760405161198593929190614a48565b60405180910390a4506119e2565b808061199e906143b5565b915050611796565b506040517f08c379a00000000000000000000000000000000000000000000000000000000081526004016119d990614a28565b60405180910390fd5b5050505050565b6060600180546119f89061429c565b80601f0160208091040260200160405190810160405280929190818152602001828054611a249061429c565b8015611a715780601f10611a4657610100808354040283529160200191611a71565b820191906000526020600020905b815481529060010190602001808311611a5457829003601f168201915b5050505050905090565b611a8d611a866121d1565b83836124c5565b5050565b611a9c8484846108e1565b611aa884848484612634565b50505050565b6060611ab98261210c565b506000600660008481526020019081526020016000208054611ada9061429c565b80601f0160208091040260200160405190810160405280929190818152602001828054611b069061429c565b8015611b535780601f10611b2857610100808354040283529160200191611b53565b820191906000526020600020905b815481529060010190602001808311611b3657829003601f168201915b505050505090506000611b646127eb565b90506000815103611b79578192505050611bbc565b600082511115611bae578082604051602001611b96929190614a8d565b60405160208183030381529060405292505050611bbc565b611bb784612802565b925050505b919050565b60085481565b6000600560008473ffffffffffffffffffffffffffffffffffffffff1673ffffffffffffffffffffffffffffffffffffffff16815260200190815260200160002060008373ffffffffffffffffffffffffffffffffffffffff1673ffffffffffffffffffffffffffffffffffffffff16815260200190815260200160002060009054906101000a900460ff16905092915050565b611c636130ff565b60005b600780549050811015611fe9578267ffffffffffffffff1660078281548110611c9257611c91614357565b5b906000526020600020906006020160000160009054906101000a900467ffffffffffffffff1667ffffffffffffffff1603611fd65760078181548110611cdb57611cda614357565b5b90600052602060002090600602016040518060e00160405290816000820160009054906101000a900467ffffffffffffffff1667ffffffffffffffff1667ffffffffffffffff1681526020016000820160089054906101000a900473ffffffffffffffffffffffffffffffffffffffff1673ffffffffffffffffffffffffffffffffffffffff1673ffffffffffffffffffffffffffffffffffffffff168152602001600182018054611d8c9061429c565b80601f0160208091040260200160405190810160405280929190818152602001828054611db89061429c565b8015611e055780601f10611dda57610100808354040283529160200191611e05565b820191906000526020600020905b815481529060010190602001808311611de857829003601f168201915b50505050508152602001600282018054611e1e9061429c565b80601f0160208091040260200160405190810160405280929190818152602001828054611e4a9061429c565b8015611e975780601f10611e6c57610100808354040283529160200191611e97565b820191906000526020600020905b815481529060010190602001808311611e7a57829003601f168201915b50505050508152602001600382018054611eb09061429c565b80601f0160208091040260200160405190810160405280929190818152602001828054611edc9061429c565b8015611f295780601f10611efe57610100808354040283529160200191611f29565b820191906000526020600020905b815481529060010190602001808311611f0c57829003601f168201915b50505050508152602001600482018054611f429061429c565b80601f0160208091040260200160405190810160405280929190818152602001828054611f6e9061429c565b8015611fbb5780601f10611f9057610100808354040283529160200191611fbb565b820191906000526020600020905b815481529060010190602001808311611f9e57829003601f168201915b50505050508152602001600582015481525050915050612025565b8080611fe1906143b5565b915050611c66565b506040517f08c379a000000000000000000000000000000000000000000000000000000000815260040161201c90614b23565b60405180910390fd5b919050565b60007f80ac58cd000000000000000000000000000000000000000000000000000000007bffffffffffffffffffffffffffffffffffffffffffffffffffffffff1916827bffffffffffffffffffffffffffffffffffffffffffffffffffffffff191614806120f557507f5b5e139f000000000000000000000000000000000000000000000000000000007bffffffffffffffffffffffffffffffffffffffffffffffffffffffff1916827bffffffffffffffffffffffffffffffffffffffffffffffffffffffff1916145b8061210557506121048261286b565b5b9050919050565b600080612118836128d5565b9050600073ffffffffffffffffffffffffffffffffffffffff168173ffffffffffffffffffffffffffffffffffffffff160361218b57826040517f7e2732890000000000000000000000000000000000000000000000000000000081526004016121829190613cd5565b60405180910390fd5b80915050919050565b60006004600083815260200190815260200160002060009054906101000a900473ffffffffffffffffffffffffffffffffffffffff169050919050565b600033905090565b6121e68383836001612912565b505050565b6000806121f7846128d5565b9050600073ffffffffffffffffffffffffffffffffffffffff168373ffffffffffffffffffffffffffffffffffffffff161461223957612238818486612ad7565b5b600073ffffffffffffffffffffffffffffffffffffffff168173ffffffffffffffffffffffffffffffffffffffff16146122ca5761227b600085600080612912565b6001600360008373ffffffffffffffffffffffffffffffffffffffff1673ffffffffffffffffffffffffffffffffffffffff168152602001908152602001600020600082825403925050819055505b600073ffffffffffffffffffffffffffffffffffffffff168573ffffffffffffffffffffffffffffffffffffffff161461234d576001600360008773ffffffffffffffffffffffffffffffffffffffff1673ffffffffffffffffffffffffffffffffffffffff168152602001908152602001600020600082825401925050819055505b846002600086815260200190815260200160002060006101000a81548173ffffffffffffffffffffffffffffffffffffffff021916908373ffffffffffffffffffffffffffffffffffffffff160217905550838573ffffffffffffffffffffffffffffffffffffffff168273ffffffffffffffffffffffffffffffffffffffff167fddf252ad1be2c89b69c2b068fc378daa952ba7f163c4a11628f55a4df523b3ef60405160405180910390a4809150509392505050565b60006305f5e100424460085460405160200161242393929190614b64565b6040516020818303038152906040528051906020012060001c6124469190614bd0565b905090565b612465828260405180602001604052806000815250612b9b565b5050565b806006600084815260200190815260200160002090816124899190614615565b507ff8e1a15aba9398e019f0b49df1a4fde98ee17ae345cb5f6b5e2c27f5033e8ce7826040516124b99190613cd5565b60405180910390a15050565b600073ffffffffffffffffffffffffffffffffffffffff168273ffffffffffffffffffffffffffffffffffffffff160361253657816040517f5b08ba1800000000000000000000000000000000000000000000000000000000815260040161252d91906133c2565b60405180910390fd5b80600560008573ffffffffffffffffffffffffffffffffffffffff1673ffffffffffffffffffffffffffffffffffffffff16815260200190815260200160002060008473ffffffffffffffffffffffffffffffffffffffff1673ffffffffffffffffffffffffffffffffffffffff16815260200190815260200160002060006101000a81548160ff0219169083151502179055508173ffffffffffffffffffffffffffffffffffffffff168373ffffffffffffffffffffffffffffffffffffffff167f17307eab39ab6107e8899845ad3d59bd9653f200f220920489ca2b5937696c31836040516126279190613251565b60405180910390a3505050565b60008373ffffffffffffffffffffffffffffffffffffffff163b11156127e5578273ffffffffffffffffffffffffffffffffffffffff1663150b7a026126786121d1565b8685856040518563ffffffff1660e01b815260040161269a9493929190614c56565b6020604051808303816000875af19250505080156126d657506040513d601f19601f820116820180604052508101906126d39190614cb7565b60015b61275a573d8060008114612706576040519150601f19603f3d011682016040523d82523d6000602084013e61270b565b606091505b50600081510361275257836040517f64a0ae9200000000000000000000000000000000000000000000000000000000815260040161274991906133c2565b60405180910390fd5b805181602001fd5b63150b7a0260e01b7bffffffffffffffffffffffffffffffffffffffffffffffffffffffff1916817bffffffffffffffffffffffffffffffffffffffffffffffffffffffff1916146127e357836040517f64a0ae920000000000000000000000000000000000000000000000000000000081526004016127da91906133c2565b60405180910390fd5b505b50505050565b606060405180602001604052806000815250905090565b606061280d8261210c565b5060006128186127eb565b905060008151116128385760405180602001604052806000815250612863565b8061284284612bb7565b604051602001612853929190614a8d565b6040516020818303038152906040525b915050919050565b60007f01ffc9a7000000000000000000000000000000000000000000000000000000007bffffffffffffffffffffffffffffffffffffffffffffffffffffffff1916827bffffffffffffffffffffffffffffffffffffffffffffffffffffffff1916149050919050565b60006002600083815260200190815260200160002060009054906101000a900473ffffffffffffffffffffffffffffffffffffffff169050919050565b808061294b5750600073ffffffffffffffffffffffffffffffffffffffff168273ffffffffffffffffffffffffffffffffffffffff1614155b15612a7f57600061295b8461210c565b9050600073ffffffffffffffffffffffffffffffffffffffff168373ffffffffffffffffffffffffffffffffffffffff16141580156129c657508273ffffffffffffffffffffffffffffffffffffffff168173ffffffffffffffffffffffffffffffffffffffff1614155b80156129d957506129d78184611bc7565b155b15612a1b57826040517fa9fbf51f000000000000000000000000000000000000000000000000000000008152600401612a1291906133c2565b60405180910390fd5b8115612a7d57838573ffffffffffffffffffffffffffffffffffffffff168273ffffffffffffffffffffffffffffffffffffffff167f8c5be1e5ebec7d5bd14f71427d1e84f3dd0314c0f7b2291e5b200ac8c7c3b92560405160405180910390a45b505b836004600085815260200190815260200160002060006101000a81548173ffffffffffffffffffffffffffffffffffffffff021916908373ffffffffffffffffffffffffffffffffffffffff16021790555050505050565b612ae2838383612c85565b612b9657600073ffffffffffffffffffffffffffffffffffffffff168373ffffffffffffffffffffffffffffffffffffffff1603612b5757806040517f7e273289000000000000000000000000000000000000000000000000000000008152600401612b4e9190613cd5565b60405180910390fd5b81816040517f177e802f000000000000000000000000000000000000000000000000000000008152600401612b8d929190614ce4565b60405180910390fd5b505050565b612ba58383612d46565b612bb26000848484612634565b505050565b606060006001612bc684612e3f565b01905060008167ffffffffffffffff811115612be557612be46136c6565b5b6040519080825280601f01601f191660200182016040528015612c175781602001600182028036833780820191505090505b509050600082602001820190505b600115612c7a578080600190039150507f3031323334353637383961626364656600000000000000000000000000000000600a86061a8153600a8581612c6e57612c6d614ba1565b5b04945060008503612c25575b819350505050919050565b60008073ffffffffffffffffffffffffffffffffffffffff168373ffffffffffffffffffffffffffffffffffffffff1614158015612d3d57508273ffffffffffffffffffffffffffffffffffffffff168473ffffffffffffffffffffffffffffffffffffffff161480612cfe5750612cfd8484611bc7565b5b80612d3c57508273ffffffffffffffffffffffffffffffffffffffff16612d2483612194565b73ffffffffffffffffffffffffffffffffffffffff16145b5b90509392505050565b600073ffffffffffffffffffffffffffffffffffffffff168273ffffffffffffffffffffffffffffffffffffffff1603612db85760006040517f64a0ae92000000000000000000000000000000000000000000000000000000008152600401612daf91906133c2565b60405180910390fd5b6000612dc6838360006121eb565b9050600073ffffffffffffffffffffffffffffffffffffffff168173ffffffffffffffffffffffffffffffffffffffff1614612e3a5760006040517f73c6ac6e000000000000000000000000000000000000000000000000000000008152600401612e3191906133c2565b60405180910390fd5b505050565b600080600090507a184f03e93ff9f4daa797ed6e38ed64bf6a1f0100000000000000008310612e9d577a184f03e93ff9f4daa797ed6e38ed64bf6a1f0100000000000000008381612e9357612e92614ba1565b5b0492506040810190505b6d04ee2d6d415b85acef81000000008310612eda576d04ee2d6d415b85acef81000000008381612ed057612ecf614ba1565b5b0492506020810190505b662386f26fc100008310612f0957662386f26fc100008381612eff57612efe614ba1565b5b0492506010810190505b6305f5e1008310612f32576305f5e1008381612f2857612f27614ba1565b5b0492506008810190505b6127108310612f57576127108381612f4d57612f4c614ba1565b5b0492506004810190505b60648310612f7a5760648381612f7057612f6f614ba1565b5b0492506002810190505b600a8310612f89576001810190505b80915050919050565b6040518060c00160405280600067ffffffffffffffff16815260200160008152602001600073ffffffffffffffffffffffffffffffffffffffff1681526020016060815260200160008152602001606081525090565b828054828255906000526020600020908101928215613030579160200282015b8281111561302f57825182908161301f9190614615565b5091602001919060010190613008565b5b50905061303d919061315c565b5090565b82805482825590600052602060002090810192821561308d5760005260206000209182015b8281111561308c578282908161307c919061489c565b5091600101919060010190613066565b5b50905061309a919061315c565b5090565b5080546130aa9061429c565b6000825580601f106130bc57506130db565b601f0160209004906000526020600020908101906130da9190613180565b5b50565b50805460008255906000526020600020908101906130fc919061315c565b50565b6040518060e00160405280600067ffffffffffffffff168152602001600073ffffffffffffffffffffffffffffffffffffffff16815260200160608152602001606081526020016060815260200160608152602001600081525090565b5b8082111561317c5760008181613173919061309e565b5060010161315d565b5090565b5b80821115613199576000816000905550600101613181565b5090565b6000604051905090565b600080fd5b600080fd5b60007fffffffff0000000000000000000000000000000000000000000000000000000082169050919050565b6131e6816131b1565b81146131f157600080fd5b50565b600081359050613203816131dd565b92915050565b60006020828403121561321f5761321e6131a7565b5b600061322d848285016131f4565b91505092915050565b60008115159050919050565b61324b81613236565b82525050565b60006020820190506132666000830184613242565b92915050565b600081519050919050565b600082825260208201905092915050565b60005b838110156132a657808201518184015260208101905061328b565b60008484015250505050565b6000601f19601f8301169050919050565b60006132ce8261326c565b6132d88185613277565b93506132e8818560208601613288565b6132f1816132b2565b840191505092915050565b6000602082019050818103600083015261331681846132c3565b905092915050565b6000819050919050565b6133318161331e565b811461333c57600080fd5b50565b60008135905061334e81613328565b92915050565b60006020828403121561336a576133696131a7565b5b60006133788482850161333f565b91505092915050565b600073ffffffffffffffffffffffffffffffffffffffff82169050919050565b60006133ac82613381565b9050919050565b6133bc816133a1565b82525050565b60006020820190506133d760008301846133b3565b92915050565b6133e6816133a1565b81146133f157600080fd5b50565b600081359050613403816133dd565b92915050565b600080604083850312156134205761341f6131a7565b5b600061342e858286016133f4565b925050602061343f8582860161333f565b9150509250929050565b600081519050919050565b600082825260208201905092915050565b6000819050602082019050919050565b600067ffffffffffffffff82169050919050565b61349281613475565b82525050565b6134a1816133a1565b82525050565b600082825260208201905092915050565b60006134c38261326c565b6134cd81856134a7565b93506134dd818560208601613288565b6134e6816132b2565b840191505092915050565b6134fa8161331e565b82525050565b600060e0830160008301516135186000860182613489565b50602083015161352b6020860182613498565b506040830151848203604086015261354382826134b8565b9150506060830151848203606086015261355d82826134b8565b9150506080830151848203608086015261357782826134b8565b91505060a083015184820360a086015261359182826134b8565b91505060c08301516135a660c08601826134f1565b508091505092915050565b60006135bd8383613500565b905092915050565b6000602082019050919050565b60006135dd82613449565b6135e78185613454565b9350836020820285016135f985613465565b8060005b85811015613635578484038952815161361685826135b1565b9450613621836135c5565b925060208a019950506001810190506135fd565b50829750879550505050505092915050565b6000602082019050818103600083015261366181846135d2565b905092915050565b600080600060608486031215613682576136816131a7565b5b6000613690868287016133f4565b93505060206136a1868287016133f4565b92505060406136b28682870161333f565b9150509250925092565b600080fd5b600080fd5b7f4e487b7100000000000000000000000000000000000000000000000000000000600052604160045260246000fd5b6136fe826132b2565b810181811067ffffffffffffffff8211171561371d5761371c6136c6565b5b80604052505050565b600061373061319d565b905061373c82826136f5565b919050565b600067ffffffffffffffff82111561375c5761375b6136c6565b5b613765826132b2565b9050602081019050919050565b82818337600083830152505050565b600061379461378f84613741565b613726565b9050828152602081018484840111156137b0576137af6136c1565b5b6137bb848285613772565b509392505050565b600082601f8301126137d8576137d76136bc565b5b81356137e8848260208601613781565b91505092915050565b600060208284031215613807576138066131a7565b5b600082013567ffffffffffffffff811115613825576138246131ac565b5b613831848285016137c3565b91505092915050565b600081519050919050565b600082825260208201905092915050565b6000819050602082019050919050565b600081519050919050565b600082825260208201905092915050565b6000819050602082019050919050565b600061389e83836134b8565b905092915050565b6000602082019050919050565b60006138be82613866565b6138c88185613871565b9350836020820285016138da85613882565b8060005b8581101561391657848403895281516138f78582613892565b9450613902836138a6565b925060208a019950506001810190506138de565b50829750879550505050505092915050565b600060c0830160008301516139406000860182613489565b50602083015161395360208601826134f1565b5060408301516139666040860182613498565b506060830151848203606086015261397e82826134b8565b915050608083015161399360808601826134f1565b5060a083015184820360a08601526139ab82826138b3565b9150508091505092915050565b60006139c48383613928565b905092915050565b6000602082019050919050565b60006139e48261383a565b6139ee8185613845565b935083602082028501613a0085613856565b8060005b85811015613a3c5784840389528151613a1d85826139b8565b9450613a28836139cc565b925060208a01995050600181019050613a04565b50829750879550505050505092915050565b60006020820190508181036000830152613a6881846139d9565b905092915050565b600067ffffffffffffffff821115613a8b57613a8a6136c6565b5b602082029050602081019050919050565b600080fd5b6000613ab4613aaf84613a70565b613726565b90508083825260208201905060208402830185811115613ad757613ad6613a9c565b5b835b81811015613b1e57803567ffffffffffffffff811115613afc57613afb6136bc565b5b808601613b0989826137c3565b85526020850194505050602081019050613ad9565b5050509392505050565b600082601f830112613b3d57613b3c6136bc565b5b8135613b4d848260208601613aa1565b91505092915050565b60008060008060808587031215613b7057613b6f6131a7565b5b600085013567ffffffffffffffff811115613b8e57613b8d6131ac565b5b613b9a878288016137c3565b945050602085013567ffffffffffffffff811115613bbb57613bba6131ac565b5b613bc7878288016137c3565b9350506040613bd88782880161333f565b925050606085013567ffffffffffffffff811115613bf957613bf86131ac565b5b613c0587828801613b28565b91505092959194509250565b613c1a81613475565b8114613c2557600080fd5b50565b600081359050613c3781613c11565b92915050565b60008060408385031215613c5457613c536131a7565b5b6000613c6285828601613c28565b925050602083013567ffffffffffffffff811115613c8357613c826131ac565b5b613c8f858286016137c3565b9150509250929050565b600060208284031215613caf57613cae6131a7565b5b6000613cbd848285016133f4565b91505092915050565b613ccf8161331e565b82525050565b6000602082019050613cea6000830184613cc6565b92915050565b60008060408385031215613d0757613d066131a7565b5b600083013567ffffffffffffffff811115613d2557613d246131ac565b5b613d31858286016137c3565b9250506020613d428582860161333f565b9150509250929050565b613d5581613475565b82525050565b600060a082019050613d706000830188613d4c565b613d7d6020830187613cc6565b613d8a60408301866133b3565b8181036060830152613d9c81856132c3565b9050613dab6080830184613cc6565b9695505050505050565b60008060008060008060c08789031215613dd257613dd16131a7565b5b6000613de089828a016133f4565b965050602087013567ffffffffffffffff811115613e0157613e006131ac565b5b613e0d89828a016137c3565b955050604087013567ffffffffffffffff811115613e2e57613e2d6131ac565b5b613e3a89828a016137c3565b945050606087013567ffffffffffffffff811115613e5b57613e5a6131ac565b5b613e6789828a016137c3565b935050608087013567ffffffffffffffff811115613e8857613e876131ac565b5b613e9489828a016137c3565b92505060a087013567ffffffffffffffff811115613eb557613eb46131ac565b5b613ec189828a016137c3565b9150509295509295509295565b600080600080600060a08688031215613eea57613ee96131a7565b5b6000613ef888828901613c28565b955050602086013567ffffffffffffffff811115613f1957613f186131ac565b5b613f25888289016137c3565b945050604086013567ffffffffffffffff811115613f4657613f456131ac565b5b613f52888289016137c3565b9350506060613f638882890161333f565b925050608086013567ffffffffffffffff811115613f8457613f836131ac565b5b613f9088828901613b28565b9150509295509295909350565b613fa681613236565b8114613fb157600080fd5b50565b600081359050613fc381613f9d565b92915050565b60008060408385031215613fe057613fdf6131a7565b5b6000613fee858286016133f4565b9250506020613fff85828601613fb4565b9150509250929050565b600067ffffffffffffffff821115614024576140236136c6565b5b61402d826132b2565b9050602081019050919050565b600061404d61404884614009565b613726565b905082815260208101848484011115614069576140686136c1565b5b614074848285613772565b509392505050565b600082601f830112614091576140906136bc565b5b81356140a184826020860161403a565b91505092915050565b600080600080608085870312156140c4576140c36131a7565b5b60006140d2878288016133f4565b94505060206140e3878288016133f4565b93505060406140f48782880161333f565b925050606085013567ffffffffffffffff811115614115576141146131ac565b5b6141218782880161407c565b91505092959194509250565b60008060408385031215614144576141436131a7565b5b6000614152858286016133f4565b9250506020614163858286016133f4565b9150509250929050565b600060208284031215614183576141826131a7565b5b600061419184828501613c28565b91505092915050565b600060e0830160008301516141b26000860182613489565b5060208301516141c56020860182613498565b50604083015184820360408601526141dd82826134b8565b915050606083015184820360608601526141f782826134b8565b9150506080830151848203608086015261421182826134b8565b91505060a083015184820360a086015261422b82826134b8565b91505060c083015161424060c08601826134f1565b508091505092915050565b60006020820190508181036000830152614265818461419a565b905092915050565b7f4e487b7100000000000000000000000000000000000000000000000000000000600052602260045260246000fd5b600060028204905060018216806142b457607f821691505b6020821081036142c7576142c661426d565b5b50919050565b60006060820190506142e260008301866133b3565b6142ef6020830185613cc6565b6142fc60408301846133b3565b949350505050565b600081905092915050565b600061431a8261326c565b6143248185614304565b9350614334818560208601613288565b80840191505092915050565b600061434c828461430f565b915081905092915050565b7f4e487b7100000000000000000000000000000000000000000000000000000000600052603260045260246000fd5b7f4e487b7100000000000000000000000000000000000000000000000000000000600052601160045260246000fd5b60006143c08261331e565b91507fffffffffffffffffffffffffffffffffffffffffffffffffffffffffffffffff82036143f2576143f1614386565b5b600182019050919050565b7f496e76616c696420626c6f672049440000000000000000000000000000000000600082015250565b6000614433600f83613277565b915061443e826143fd565b602082019050919050565b6000602082019050818103600083015261446281614426565b9050919050565b60008190508160005260206000209050919050565b60006020601f8301049050919050565b600082821b905092915050565b6000600883026144cb7fffffffffffffffffffffffffffffffffffffffffffffffffffffffffffffffff8261448e565b6144d5868361448e565b95508019841693508086168417925050509392505050565b6000819050919050565b600061451261450d6145088461331e565b6144ed565b61331e565b9050919050565b6000819050919050565b61452c836144f7565b61454061453882614519565b84845461449b565b825550505050565b600090565b614555614548565b614560818484614523565b505050565b5b818110156145845761457960008261454d565b600181019050614566565b5050565b601f8211156145c95761459a81614469565b6145a38461447e565b810160208510156145b2578190505b6145c66145be8561447e565b830182614565565b50505b505050565b600082821c905092915050565b60006145ec600019846008026145ce565b1980831691505092915050565b600061460583836145db565b9150826002028217905092915050565b61461e8261326c565b67ffffffffffffffff811115614637576146366136c6565b5b614641825461429c565b61464c828285614588565b600060209050601f83116001811461467f576000841561466d578287015190505b61467785826145f9565b8655506146df565b601f19841661468d86614469565b60005b828110156146b557848901518255600182019150602085019450602081019050614690565b868310156146d257848901516146ce601f8916826145db565b8355505b6001600288020188555050505b505050505050565b600082825260208201905092915050565b600061470382613866565b61470d81856146e7565b93508360208202850161471f85613882565b8060005b8581101561475b578484038952815161473c8582613892565b9450614747836138a6565b925060208a01995050600181019050614723565b50829750879550505050505092915050565b6000608082019050818103600083015261478781876132c3565b90506147966020830186613cc6565b81810360408301526147a881856146f8565b90506147b76060830184613cc6565b95945050505050565b7f4e6f207265766965777320666f756e6420666f72207468697320626c6f67204960008201527f4400000000000000000000000000000000000000000000000000000000000000602082015250565b600061481c602183613277565b9150614827826147c0565b604082019050919050565b6000602082019050818103600083015261484b8161480f565b9050919050565b600061485d8261331e565b91506148688361331e565b92508282039050818111156148805761487f614386565b5b92915050565b6000815490506148958161429c565b9050919050565b8181036148aa575050614982565b6148b382614886565b67ffffffffffffffff8111156148cc576148cb6136c6565b5b6148d6825461429c565b6148e1828285614588565b6000601f83116001811461491057600084156148fe578287015490505b61490885826145f9565b86555061497b565b601f19841661491e87614469565b965061492986614469565b60005b828110156149515784890154825560018201915060018501945060208101905061492c565b8683101561496e578489015461496a601f8916826145db565b8355505b6001600288020188555050505b5050505050505b565b7f4e487b7100000000000000000000000000000000000000000000000000000000600052603160045260246000fd5b60006149be8261331e565b9150600082036149d1576149d0614386565b5b600182039050919050565b7f526576696577206e6f7420666f756e6400000000000000000000000000000000600082015250565b6000614a12601083613277565b9150614a1d826149dc565b602082019050919050565b60006020820190508181036000830152614a4181614a05565b9050919050565b60006060820190508181036000830152614a6281866132c3565b9050614a716020830185613cc6565b8181036040830152614a8381846146f8565b9050949350505050565b6000614a99828561430f565b9150614aa5828461430f565b91508190509392505050565b7f4365727469666963617465206e6f7420666f756e6420666f722074686520707260008201527f6f766964656420746f6b656e4964000000000000000000000000000000000000602082015250565b6000614b0d602e83613277565b9150614b1882614ab1565b604082019050919050565b60006020820190508181036000830152614b3c81614b00565b9050919050565b6000819050919050565b614b5e614b598261331e565b614b43565b82525050565b6000614b708286614b4d565b602082019150614b808285614b4d565b602082019150614b908284614b4d565b602082019150819050949350505050565b7f4e487b7100000000000000000000000000000000000000000000000000000000600052601260045260246000fd5b6000614bdb8261331e565b9150614be68361331e565b925082614bf657614bf5614ba1565b5b828206905092915050565b600081519050919050565b600082825260208201905092915050565b6000614c2882614c01565b614c328185614c0c565b9350614c42818560208601613288565b614c4b816132b2565b840191505092915050565b6000608082019050614c6b60008301876133b3565b614c7860208301866133b3565b614c856040830185613cc6565b8181036060830152614c978184614c1d565b905095945050505050565b600081519050614cb1816131dd565b92915050565b600060208284031215614ccd57614ccc6131a7565b5b6000614cdb84828501614ca2565b91505092915050565b6000604082019050614cf960008301856133b3565b614d066020830184613cc6565b939250505056fea2646970667358221220969bded572c3e9aaf13d7e2d9d24c6ed284e2d1785563ae53b9754533e0cb6fd64736f6c63430008140033",
  "linkReferences": {},
  "deployedLinkReferences": {}
}